{"abi":[{"type":"constructor","inputs":[{"name":"_supplyChainContract","type":"address","internalType":"address"}],"stateMutability":"nonpayable"},{"type":"function","name":"AUTOMATED_DETECTOR_ROLE","inputs":[],"outputs":[{"name":"","type":"bytes32","internalType":"bytes32"}],"stateMutability":"view"},{"type":"function","name":"DEFAULT_ADMIN_ROLE","inputs":[],"outputs":[{"name":"","type":"bytes32","internalType":"bytes32"}],"stateMutability":"view"},{"type":"function","name":"FRAUD_ANALYST_ROLE","inputs":[],"outputs":[{"name":"","type":"bytes32","internalType":"bytes32"}],"stateMutability":"view"},{"type":"function","name":"actorTransactionHistory","inputs":[{"name":"","type":"address","internalType":"address"},{"name":"","type":"uint256","internalType":"uint256"}],"outputs":[{"name":"","type":"uint256","internalType":"uint256"}],"stateMutability":"view"},{"type":"function","name":"analyzePriceAnomaly","inputs":[{"name":"productId","type":"uint256","internalType":"uint256"}],"outputs":[{"name":"anomalyId","type":"uint256","internalType":"uint256"}],"stateMutability":"nonpayable"},{"type":"function","name":"anomalyCounter","inputs":[],"outputs":[{"name":"","type":"uint256","internalType":"uint256"}],"stateMutability":"view"},{"type":"function","name":"comprehensiveFraudAnalysis","inputs":[{"name":"productId","type":"uint256","internalType":"uint256"}],"outputs":[{"name":"riskScore","type":"uint32","internalType":"uint32"},{"name":"detectedIssues","type":"string[]","internalType":"string[]"}],"stateMutability":"nonpayable"},{"type":"function","name":"config","inputs":[],"outputs":[{"name":"priceDeviationThreshold","type":"uint32","internalType":"uint32"},{"name":"timeDeviationThresholdMinutes","type":"uint32","internalType":"uint32"},{"name":"minimumHistoryRequired","type":"uint16","internalType":"uint16"},{"name":"confidenceThreshold","type":"uint16","internalType":"uint16"},{"name":"maxViolationsBeforeBlacklist","type":"uint8","internalType":"uint8"},{"name":"isActive","type":"bool","internalType":"bool"}],"stateMutability":"view"},{"type":"function","name":"detectedAnomalies","inputs":[{"name":"","type":"uint256","internalType":"uint256"}],"outputs":[{"name":"productId","type":"uint256","internalType":"uint256"},{"name":"suspiciousPrice","type":"uint128","internalType":"uint128"},{"name":"detectionTime","type":"uint64","internalType":"uint64"},{"name":"deviationPercentage","type":"uint32","internalType":"uint32"},{"name":"confidenceScore","type":"uint16","internalType":"uint16"},{"name":"anomalyType","type":"uint8","internalType":"uint8"},{"name":"isResolved","type":"bool","internalType":"bool"}],"stateMutability":"view"},{"type":"function","name":"fraudPatterns","inputs":[{"name":"","type":"address","internalType":"address"}],"outputs":[{"name":"suspiciousActor","type":"address","internalType":"address"},{"name":"firstDetection","type":"uint64","internalType":"uint64"},{"name":"violationCount","type":"uint32","internalType":"uint32"},{"name":"totalSuspiciousValue","type":"uint128","internalType":"uint128"},{"name":"lastViolation","type":"uint64","internalType":"uint64"},{"name":"riskScore","type":"uint32","internalType":"uint32"},{"name":"isBlacklisted","type":"bool","internalType":"bool"}],"stateMutability":"view"},{"type":"function","name":"getAnomalyDetails","inputs":[{"name":"anomalyId","type":"uint256","internalType":"uint256"}],"outputs":[{"name":"","type":"tuple","internalType":"struct FraudDetectionContract.PriceAnomaly","components":[{"name":"productId","type":"uint256","internalType":"uint256"},{"name":"suspiciousPrice","type":"uint128","internalType":"uint128"},{"name":"detectionTime","type":"uint64","internalType":"uint64"},{"name":"deviationPercentage","type":"uint32","internalType":"uint32"},{"name":"confidenceScore","type":"uint16","internalType":"uint16"},{"name":"anomalyType","type":"uint8","internalType":"uint8"},{"name":"isResolved","type":"bool","internalType":"bool"}]}],"stateMutability":"view"},{"type":"function","name":"getFraudPattern","inputs":[{"name":"actor","type":"address","internalType":"address"}],"outputs":[{"name":"","type":"tuple","internalType":"struct FraudDetectionContract.FraudPattern","components":[{"name":"suspiciousActor","type":"address","internalType":"address"},{"name":"firstDetection","type":"uint64","internalType":"uint64"},{"name":"violationCount","type":"uint32","internalType":"uint32"},{"name":"totalSuspiciousValue","type":"uint128","internalType":"uint128"},{"name":"lastViolation","type":"uint64","internalType":"uint64"},{"name":"riskScore","type":"uint32","internalType":"uint32"},{"name":"isBlacklisted","type":"bool","internalType":"bool"}]}],"stateMutability":"view"},{"type":"function","name":"getRoleAdmin","inputs":[{"name":"role","type":"bytes32","internalType":"bytes32"}],"outputs":[{"name":"","type":"bytes32","internalType":"bytes32"}],"stateMutability":"view"},{"type":"function","name":"getViolationDetails","inputs":[{"name":"violationId","type":"uint256","internalType":"uint256"}],"outputs":[{"name":"","type":"tuple","internalType":"struct FraudDetectionContract.TimeViolation","components":[{"name":"productId","type":"uint256","internalType":"uint256"},{"name":"expectedTime","type":"uint64","internalType":"uint64"},{"name":"actualTime","type":"uint64","internalType":"uint64"},{"name":"delayMinutes","type":"uint32","internalType":"uint32"},{"name":"stageViolated","type":"uint8","internalType":"uint8"},{"name":"violationType","type":"uint8","internalType":"uint8"},{"name":"isResolved","type":"bool","internalType":"bool"}]}],"stateMutability":"view"},{"type":"function","name":"grantRole","inputs":[{"name":"role","type":"bytes32","internalType":"bytes32"},{"name":"account","type":"address","internalType":"address"}],"outputs":[],"stateMutability":"nonpayable"},{"type":"function","name":"hasRole","inputs":[{"name":"role","type":"bytes32","internalType":"bytes32"},{"name":"account","type":"address","internalType":"address"}],"outputs":[{"name":"","type":"bool","internalType":"bool"}],"stateMutability":"view"},{"type":"function","name":"isActorBlacklisted","inputs":[{"name":"actor","type":"address","internalType":"address"}],"outputs":[{"name":"","type":"bool","internalType":"bool"}],"stateMutability":"view"},{"type":"function","name":"pause","inputs":[],"outputs":[],"stateMutability":"nonpayable"},{"type":"function","name":"paused","inputs":[],"outputs":[{"name":"","type":"bool","internalType":"bool"}],"stateMutability":"view"},{"type":"function","name":"priceHistories","inputs":[{"name":"","type":"uint256","internalType":"uint256"},{"name":"","type":"uint256","internalType":"uint256"}],"outputs":[{"name":"price","type":"uint128","internalType":"uint128"},{"name":"timestamp","type":"uint64","internalType":"uint64"},{"name":"productId","type":"uint32","internalType":"uint32"},{"name":"stage","type":"uint8","internalType":"uint8"}],"stateMutability":"view"},{"type":"function","name":"priceStandardDeviation","inputs":[{"name":"","type":"uint256","internalType":"uint256"}],"outputs":[{"name":"","type":"uint128","internalType":"uint128"}],"stateMutability":"view"},{"type":"function","name":"removeBlacklist","inputs":[{"name":"actor","type":"address","internalType":"address"}],"outputs":[],"stateMutability":"nonpayable"},{"type":"function","name":"renounceRole","inputs":[{"name":"role","type":"bytes32","internalType":"bytes32"},{"name":"callerConfirmation","type":"address","internalType":"address"}],"outputs":[],"stateMutability":"nonpayable"},{"type":"function","name":"resolveAnomaly","inputs":[{"name":"anomalyId","type":"uint256","internalType":"uint256"},{"name":"resolution","type":"string","internalType":"string"}],"outputs":[],"stateMutability":"nonpayable"},{"type":"function","name":"resolveViolation","inputs":[{"name":"violationId","type":"uint256","internalType":"uint256"},{"name":"resolution","type":"string","internalType":"string"}],"outputs":[],"stateMutability":"nonpayable"},{"type":"function","name":"revokeRole","inputs":[{"name":"role","type":"bytes32","internalType":"bytes32"},{"name":"account","type":"address","internalType":"address"}],"outputs":[],"stateMutability":"nonpayable"},{"type":"function","name":"rollingPriceAverage","inputs":[{"name":"","type":"uint256","internalType":"uint256"}],"outputs":[{"name":"","type":"uint128","internalType":"uint128"}],"stateMutability":"view"},{"type":"function","name":"stageTimeExpectations","inputs":[{"name":"","type":"uint8","internalType":"uint8"}],"outputs":[{"name":"","type":"uint64","internalType":"uint64"}],"stateMutability":"view"},{"type":"function","name":"supplyChainContract","inputs":[],"outputs":[{"name":"","type":"address","internalType":"contract IAgricultureSupplyChain"}],"stateMutability":"view"},{"type":"function","name":"supportsInterface","inputs":[{"name":"interfaceId","type":"bytes4","internalType":"bytes4"}],"outputs":[{"name":"","type":"bool","internalType":"bool"}],"stateMutability":"view"},{"type":"function","name":"timeViolations","inputs":[{"name":"","type":"uint256","internalType":"uint256"}],"outputs":[{"name":"productId","type":"uint256","internalType":"uint256"},{"name":"expectedTime","type":"uint64","internalType":"uint64"},{"name":"actualTime","type":"uint64","internalType":"uint64"},{"name":"delayMinutes","type":"uint32","internalType":"uint32"},{"name":"stageViolated","type":"uint8","internalType":"uint8"},{"name":"violationType","type":"uint8","internalType":"uint8"},{"name":"isResolved","type":"bool","internalType":"bool"}],"stateMutability":"view"},{"type":"function","name":"unpause","inputs":[],"outputs":[],"stateMutability":"nonpayable"},{"type":"function","name":"updateDetectionConfig","inputs":[{"name":"newConfig","type":"tuple","internalType":"struct FraudDetectionContract.DetectionConfig","components":[{"name":"priceDeviationThreshold","type":"uint32","internalType":"uint32"},{"name":"timeDeviationThresholdMinutes","type":"uint32","internalType":"uint32"},{"name":"minimumHistoryRequired","type":"uint16","internalType":"uint16"},{"name":"confidenceThreshold","type":"uint16","internalType":"uint16"},{"name":"maxViolationsBeforeBlacklist","type":"uint8","internalType":"uint8"},{"name":"isActive","type":"bool","internalType":"bool"}]}],"outputs":[],"stateMutability":"nonpayable"},{"type":"function","name":"validateStageTimings","inputs":[{"name":"productId","type":"uint256","internalType":"uint256"}],"outputs":[{"name":"violationId","type":"uint256","internalType":"uint256"}],"stateMutability":"nonpayable"},{"type":"function","name":"violationCounter","inputs":[],"outputs":[{"name":"","type":"uint256","internalType":"uint256"}],"stateMutability":"view"},{"type":"event","name":"ActorBlacklisted","inputs":[{"name":"actor","type":"address","indexed":true,"internalType":"address"},{"name":"reason","type":"string","indexed":false,"internalType":"string"}],"anonymous":false},{"type":"event","name":"AnomalyDetected","inputs":[{"name":"anomalyId","type":"uint256","indexed":true,"internalType":"uint256"},{"name":"productId","type":"uint256","indexed":true,"internalType":"uint256"},{"name":"anomalyType","type":"string","indexed":false,"internalType":"string"},{"name":"confidence","type":"uint256","indexed":false,"internalType":"uint256"}],"anonymous":false},{"type":"event","name":"FraudPatternIdentified","inputs":[{"name":"actor","type":"address","indexed":true,"internalType":"address"},{"name":"riskScore","type":"uint256","indexed":false,"internalType":"uint256"},{"name":"patternType","type":"string","indexed":false,"internalType":"string"}],"anonymous":false},{"type":"event","name":"FraudResolved","inputs":[{"name":"caseId","type":"uint256","indexed":true,"internalType":"uint256"},{"name":"resolver","type":"address","indexed":false,"internalType":"address"},{"name":"resolution","type":"string","indexed":false,"internalType":"string"}],"anonymous":false},{"type":"event","name":"Paused","inputs":[{"name":"account","type":"address","indexed":false,"internalType":"address"}],"anonymous":false},{"type":"event","name":"RoleAdminChanged","inputs":[{"name":"role","type":"bytes32","indexed":true,"internalType":"bytes32"},{"name":"previousAdminRole","type":"bytes32","indexed":true,"internalType":"bytes32"},{"name":"newAdminRole","type":"bytes32","indexed":true,"internalType":"bytes32"}],"anonymous":false},{"type":"event","name":"RoleGranted","inputs":[{"name":"role","type":"bytes32","indexed":true,"internalType":"bytes32"},{"name":"account","type":"address","indexed":true,"internalType":"address"},{"name":"sender","type":"address","indexed":true,"internalType":"address"}],"anonymous":false},{"type":"event","name":"RoleRevoked","inputs":[{"name":"role","type":"bytes32","indexed":true,"internalType":"bytes32"},{"name":"account","type":"address","indexed":true,"internalType":"address"},{"name":"sender","type":"address","indexed":true,"internalType":"address"}],"anonymous":false},{"type":"event","name":"TimeViolationDetected","inputs":[{"name":"violationId","type":"uint256","indexed":true,"internalType":"uint256"},{"name":"productId","type":"uint256","indexed":true,"internalType":"uint256"},{"name":"delay","type":"uint256","indexed":false,"internalType":"uint256"}],"anonymous":false},{"type":"event","name":"Unpaused","inputs":[{"name":"account","type":"address","indexed":false,"internalType":"address"}],"anonymous":false},{"type":"error","name":"AccessControlBadConfirmation","inputs":[]},{"type":"error","name":"AccessControlUnauthorizedAccount","inputs":[{"name":"account","type":"address","internalType":"address"},{"name":"neededRole","type":"bytes32","internalType":"bytes32"}]},{"type":"error","name":"EnforcedPause","inputs":[]},{"type":"error","name":"ExpectedPause","inputs":[]},{"type":"error","name":"FraudAnomalyDetected","inputs":[]},{"type":"error","name":"InsufficientHistoricalData","inputs":[]},{"type":"error","name":"InvalidTimeValidation","inputs":[]},{"type":"error","name":"ReentrancyGuardReentrantCall","inputs":[]},{"type":"error","name":"SuspiciousActivity","inputs":[]},{"type":"error","name":"UnauthorizedAnalysis","inputs":[]}],"bytecode":{"object":"0x60a060405234801561000f575f5ffd5b50604051615385380380615385833981810160405281019061003191906105ad565b6001808190555061004a5f5f1b336103f060201b60201c565b5061007b7f38c45169c4754c04fc4d4dcfa54309c5e8871ed1e108977daec85dc17839467f336103f060201b60201c565b506100ac7f58e0e2db25213c88f633116676cbf9661c0532fc157765f5daea8bed79505779336103f060201b60201c565b508073ffffffffffffffffffffffffffffffffffffffff1660808173ffffffffffffffffffffffffffffffffffffffff16815250506040518060c00160405280610bb863ffffffff1681526020016105a063ffffffff168152602001600561ffff168152602001611d4c61ffff168152602001600360ff1681526020016001151581525060085f820151815f015f6101000a81548163ffffffff021916908363ffffffff1602179055506020820151815f0160046101000a81548163ffffffff021916908363ffffffff1602179055506040820151815f0160086101000a81548161ffff021916908361ffff1602179055506060820151815f01600a6101000a81548161ffff021916908361ffff1602179055506080820151815f01600c6101000a81548160ff021916908360ff16021790555060a0820151815f01600d6101000a81548160ff02191690831515021790555090505061276060075f5f60ff1681526020019081526020015f205f6101000a81548167ffffffffffffffff021916908367ffffffffffffffff1602179055506201fa4060075f600160ff1681526020019081526020015f205f6101000a81548167ffffffffffffffff021916908367ffffffffffffffff1602179055506105a060075f600260ff1681526020019081526020015f205f6101000a81548167ffffffffffffffff021916908367ffffffffffffffff160217905550610b4060075f600360ff1681526020019081526020015f205f6101000a81548167ffffffffffffffff021916908367ffffffffffffffff1602179055506102d060075f600460ff1681526020019081526020015f205f6101000a81548167ffffffffffffffff021916908367ffffffffffffffff1602179055506110e060075f600560ff1681526020019081526020015f205f6101000a81548167ffffffffffffffff021916908367ffffffffffffffff1602179055506105a060075f600660ff1681526020019081526020015f205f6101000a81548167ffffffffffffffff021916908367ffffffffffffffff16021790555061276060075f600760ff1681526020019081526020015f205f6101000a81548167ffffffffffffffff021916908367ffffffffffffffff160217905550506105d8565b5f61040183836104e560201b60201c565b6104db5760015f5f8581526020019081526020015f205f015f8473ffffffffffffffffffffffffffffffffffffffff1673ffffffffffffffffffffffffffffffffffffffff1681526020019081526020015f205f6101000a81548160ff02191690831515021790555061047861054860201b60201c565b73ffffffffffffffffffffffffffffffffffffffff168273ffffffffffffffffffffffffffffffffffffffff16847f2f8788117e7eff1d82e926ec794901d17c78024a50270940304540a733656f0d60405160405180910390a4600190506104df565b5f90505b92915050565b5f5f5f8481526020019081526020015f205f015f8373ffffffffffffffffffffffffffffffffffffffff1673ffffffffffffffffffffffffffffffffffffffff1681526020019081526020015f205f9054906101000a900460ff16905092915050565b5f33905090565b5f5ffd5b5f73ffffffffffffffffffffffffffffffffffffffff82169050919050565b5f61057c82610553565b9050919050565b61058c81610572565b8114610596575f5ffd5b50565b5f815190506105a781610583565b92915050565b5f602082840312156105c2576105c161054f565b5b5f6105cf84828501610599565b91505092915050565b608051614d806106055f395f81816112230152818161173301528181611a920152611e5e0152614d805ff3fe608060405234801561000f575f5ffd5b506004361061020f575f3560e01c80638c597dca11610123578063d92c0cf5116100ab578063eb91e6511161007a578063eb91e6511461068c578063f21ed8e5146106a8578063f48e7f9b146106d8578063f9c06e01146106f6578063ffd6dd92146107265761020f565b8063d92c0cf5146105d8578063dafa2b1714610608578063e900aaba1461063e578063eb8d2e381461065c5761020f565b8063a217fddf116100f2578063a217fddf14610532578063a269cc7a14610550578063b2d33e811461056e578063b910c4bd1461059e578063d547741f146105bc5761020f565b80638c597dca1461047d57806391d14854146104ae578063982a9fa6146104de5780639dd8cf3d146104fc5761020f565b80634bd738c7116101a657806367b52a701161017557806367b52a70146103d45780636c9ca1a11461040457806379502c551461043457806383206f59146104575780638456cb59146104735761020f565b80634bd738c71461033157806359b3f905146103645780635c975abb146103805780636319c9201461039e5761020f565b80632f2ff15d116101e25780632f2ff15d146102bf57806336568abe146102db5780633f4ba83a146102f757806349f04684146103015761020f565b806301ffc9a7146102135780630a86a399146102435780630d8ab1d714610273578063248a9ca31461028f575b5f5ffd5b61022d6004803603810190610228919061359d565b610756565b60405161023a91906135e2565b60405180910390f35b61025d6004803603810190610258919061362e565b6107cf565b60405161026a919061375e565b60405180910390f35b61028d60048036038101906102889190613799565b6108e1565b005b6102a960048036038101906102a491906137f7565b610903565b6040516102b69190613831565b60405180910390f35b6102d960048036038101906102d491906138a4565b61091f565b005b6102f560048036038101906102f091906138a4565b610941565b005b6102ff6109bc565b005b61031b6004803603810190610316919061362e565b6109d3565b604051610328919061390c565b60405180910390f35b61034b60048036038101906103469190613925565b6109ff565b60405161035b9493929190613990565b60405180910390f35b61037e60048036038101906103799190613a34565b610a8a565b005b610388610b58565b60405161039591906135e2565b60405180910390f35b6103b860048036038101906103b3919061362e565b610b6d565b6040516103cb9796959493929190613aa0565b60405180910390f35b6103ee60048036038101906103e99190613b0d565b610c09565b6040516103fb9190613be2565b60405180910390f35b61041e60048036038101906104199190613b0d565b610dc6565b60405161042b91906135e2565b60405180910390f35b61043c610e1c565b60405161044e96959493929190613c17565b60405180910390f35b610471600480360381019061046c9190613a34565b610e95565b005b61047b610f63565b005b6104976004803603810190610492919061362e565b610f7a565b6040516104a5929190613da1565b60405180910390f35b6104c860048036038101906104c391906138a4565b6115f7565b6040516104d591906135e2565b60405180910390f35b6104e661165a565b6040516104f39190613dcf565b60405180910390f35b61051660048036038101906105119190613b0d565b611660565b6040516105299796959493929190613df7565b60405180910390f35b61053a61172b565b6040516105479190613831565b60405180910390f35b610558611731565b6040516105659190613ebf565b60405180910390f35b61058860048036038101906105839190613ed8565b611755565b6040516105959190613dcf565b60405180910390f35b6105a6611780565b6040516105b39190613831565b60405180910390f35b6105d660048036038101906105d191906138a4565b6117a4565b005b6105f260048036038101906105ed919061362e565b6117c6565b6040516105ff919061390c565b60405180910390f35b610622600480360381019061061d919061362e565b6117f2565b6040516106359796959493929190613f16565b60405180910390f35b610646611897565b6040516106539190613dcf565b60405180910390f35b6106766004803603810190610671919061362e565b61189d565b604051610683919061401e565b60405180910390f35b6106a660048036038101906106a19190613b0d565b6119ca565b005b6106c260048036038101906106bd919061362e565b611a32565b6040516106cf9190613dcf565b60405180910390f35b6106e0611dda565b6040516106ed9190613831565b60405180910390f35b610710600480360381019061070b919061362e565b611dfe565b60405161071d9190613dcf565b60405180910390f35b610740600480360381019061073b9190614061565b6121ac565b60405161074d919061408c565b60405180910390f35b5f7f7965db0b000000000000000000000000000000000000000000000000000000007bffffffffffffffffffffffffffffffffffffffffffffffffffffffff1916827bffffffffffffffffffffffffffffffffffffffffffffffffffffffff191614806107c857506107c7826121d0565b5b9050919050565b6107d7613407565b60045f8381526020019081526020015f206040518060e00160405290815f8201548152602001600182015f9054906101000a900467ffffffffffffffff1667ffffffffffffffff1667ffffffffffffffff1681526020016001820160089054906101000a900467ffffffffffffffff1667ffffffffffffffff1667ffffffffffffffff1681526020016001820160109054906101000a900463ffffffff1663ffffffff1663ffffffff1681526020016001820160149054906101000a900460ff1660ff1660ff1681526020016001820160159054906101000a900460ff1660ff1660ff1681526020016001820160169054906101000a900460ff1615151515815250509050919050565b5f5f1b6108ed81612239565b81600881816108fc91906144b2565b9050505050565b5f5f5f8381526020019081526020015f20600101549050919050565b61092882610903565b61093181612239565b61093b838361224d565b50505050565b610949612336565b73ffffffffffffffffffffffffffffffffffffffff168173ffffffffffffffffffffffffffffffffffffffff16146109ad576040517f6697b23200000000000000000000000000000000000000000000000000000000815260040160405180910390fd5b6109b7828261233d565b505050565b5f5f1b6109c881612239565b6109d0612426565b50565b600b602052805f5260405f205f915054906101000a90046fffffffffffffffffffffffffffffffff1681565b6006602052815f5260405f208181548110610a18575f80fd5b905f5260205f20015f9150915050805f015f9054906101000a90046fffffffffffffffffffffffffffffffff1690805f0160109054906101000a900467ffffffffffffffff1690805f0160189054906101000a900463ffffffff1690805f01601c9054906101000a900460ff16905084565b610ab47f38c45169c4754c04fc4d4dcfa54309c5e8871ed1e108977daec85dc17839467f336115f7565b610aea576040517f8068c94100000000000000000000000000000000000000000000000000000000815260040160405180910390fd5b600160045f8581526020019081526020015f2060010160166101000a81548160ff021916908315150217905550827f794331c49e103a769e38b5cc80a1e6feeeefb199ff9882b024f32485fd91110b338484604051610b4b9392919061450a565b60405180910390a2505050565b5f60025f9054906101000a900460ff16905090565b6004602052805f5260405f205f91509050805f015490806001015f9054906101000a900467ffffffffffffffff16908060010160089054906101000a900467ffffffffffffffff16908060010160109054906101000a900463ffffffff16908060010160149054906101000a900460ff16908060010160159054906101000a900460ff16908060010160169054906101000a900460ff16905087565b610c1161345f565b60055f8373ffffffffffffffffffffffffffffffffffffffff1673ffffffffffffffffffffffffffffffffffffffff1681526020019081526020015f206040518060e00160405290815f82015f9054906101000a900473ffffffffffffffffffffffffffffffffffffffff1673ffffffffffffffffffffffffffffffffffffffff1673ffffffffffffffffffffffffffffffffffffffff1681526020015f820160149054906101000a900467ffffffffffffffff1667ffffffffffffffff1667ffffffffffffffff1681526020015f8201601c9054906101000a900463ffffffff1663ffffffff1663ffffffff168152602001600182015f9054906101000a90046fffffffffffffffffffffffffffffffff166fffffffffffffffffffffffffffffffff166fffffffffffffffffffffffffffffffff1681526020016001820160109054906101000a900467ffffffffffffffff1667ffffffffffffffff1667ffffffffffffffff1681526020016001820160189054906101000a900463ffffffff1663ffffffff1663ffffffff16815260200160018201601c9054906101000a900460ff1615151515815250509050919050565b5f60055f8373ffffffffffffffffffffffffffffffffffffffff1673ffffffffffffffffffffffffffffffffffffffff1681526020019081526020015f20600101601c9054906101000a900460ff169050919050565b6008805f015f9054906101000a900463ffffffff1690805f0160049054906101000a900463ffffffff1690805f0160089054906101000a900461ffff1690805f01600a9054906101000a900461ffff1690805f01600c9054906101000a900460ff1690805f01600d9054906101000a900460ff16905086565b610ebf7f38c45169c4754c04fc4d4dcfa54309c5e8871ed1e108977daec85dc17839467f336115f7565b610ef5576040517f8068c94100000000000000000000000000000000000000000000000000000000815260040160405180910390fd5b600160035f8581526020019081526020015f20600101601f6101000a81548160ff021916908315150217905550827f794331c49e103a769e38b5cc80a1e6feeeefb199ff9882b024f32485fd91110b338484604051610f569392919061450a565b60405180910390a2505050565b5f5f1b610f6f81612239565b610f77612487565b50565b5f6060610f856124e9565b60085f01600d9054906101000a900460ff16610fd6576040517f08c379a0000000000000000000000000000000000000000000000000000000008152600401610fcd90614584565b60405180910390fd5b5f3073ffffffffffffffffffffffffffffffffffffffff1663f21ed8e5856040518263ffffffff1660e01b81526004016110109190613dcf565b6020604051808303815f875af115801561102c573d5f5f3e3d5ffd5b505050506040513d601f19601f8201168201806040525081019061105091906145b6565b90505f3073ffffffffffffffffffffffffffffffffffffffff1663f9c06e01866040518263ffffffff1660e01b815260040161108c9190613dcf565b6020604051808303815f875af11580156110a8573d5f5f3e3d5ffd5b505050506040513d601f19601f820116820180604052508101906110cc91906145b6565b90505f93505f5f90505f600367ffffffffffffffff8111156110f1576110f06145e1565b5b60405190808252806020026020018201604052801561112457816020015b606081526020019060019003908161110f5790505b5090505f8411156111a257610fa08661113d919061463b565b95506040518060400160405280601681526020017f507269636520616e6f6d616c792064657465637465640000000000000000000081525081838151811061118857611187614672565b5b6020026020010181905250818061119e9061469f565b9250505b5f83111561121d57610bb8866111b8919061463b565b95506040518060400160405280601981526020017f54696d696e672076696f6c6174696f6e2064657465637465640000000000000081525081838151811061120357611202614672565b5b602002602001018190525081806112199061469f565b9250505b5f5f5f5f7f000000000000000000000000000000000000000000000000000000000000000073ffffffffffffffffffffffffffffffffffffffff1663b9db15b48c6040518263ffffffff1660e01b815260040161127a9190613dcf565b60c060405180830381865afa158015611295573d5f5f3e3d5ffd5b505050506040513d601f19601f820116820180604052508101906112b991906147b7565b955095509550955050505f60055f8473ffffffffffffffffffffffffffffffffffffffff1673ffffffffffffffffffffffffffffffffffffffff1681526020019081526020015f206040518060e00160405290815f82015f9054906101000a900473ffffffffffffffffffffffffffffffffffffffff1673ffffffffffffffffffffffffffffffffffffffff1673ffffffffffffffffffffffffffffffffffffffff1681526020015f820160149054906101000a900467ffffffffffffffff1667ffffffffffffffff1667ffffffffffffffff1681526020015f8201601c9054906101000a900463ffffffff1663ffffffff1663ffffffff168152602001600182015f9054906101000a90046fffffffffffffffffffffffffffffffff166fffffffffffffffffffffffffffffffff166fffffffffffffffffffffffffffffffff1681526020016001820160109054906101000a900467ffffffffffffffff1667ffffffffffffffff1667ffffffffffffffff1681526020016001820160189054906101000a900463ffffffff1663ffffffff1663ffffffff16815260200160018201601c9054906101000a900460ff16151515158152505090506002816040015163ffffffff16106114de578060a001518b611496919061463b565b9a50604051806060016040528060218152602001614d2a602191398688815181106114c4576114c3614672565b5b602002602001018190525086806114da9061469f565b9750505b8667ffffffffffffffff8111156114f8576114f76145e1565b5b60405190808252806020026020018201604052801561152b57816020015b60608152602001906001900390816115165790505b5099505f5f90505b878110156115815786818151811061154e5761154d614672565b5b60200260200101518b828151811061156957611568614672565b5b60200260200101819052508080600101915050611533565b50611f408b63ffffffff161015801561159c57508060c00151155b156115e1576115e0836040518060400160405280601581526020017f48696768206672617564207269736b2073636f7265000000000000000000000081525061252f565b5b5050505050505050506115f26125da565b915091565b5f5f5f8481526020019081526020015f205f015f8373ffffffffffffffffffffffffffffffffffffffff1673ffffffffffffffffffffffffffffffffffffffff1681526020019081526020015f205f9054906101000a900460ff16905092915050565b60095481565b6005602052805f5260405f205f91509050805f015f9054906101000a900473ffffffffffffffffffffffffffffffffffffffff1690805f0160149054906101000a900467ffffffffffffffff1690805f01601c9054906101000a900463ffffffff1690806001015f9054906101000a90046fffffffffffffffffffffffffffffffff16908060010160109054906101000a900467ffffffffffffffff16908060010160189054906101000a900463ffffffff169080600101601c9054906101000a900460ff16905087565b5f5f1b81565b7f000000000000000000000000000000000000000000000000000000000000000081565b600d602052815f5260405f20818154811061176e575f80fd5b905f5260205f20015f91509150505481565b7f58e0e2db25213c88f633116676cbf9661c0532fc157765f5daea8bed7950577981565b6117ad82610903565b6117b681612239565b6117c0838361233d565b50505050565b600c602052805f5260405f205f915054906101000a90046fffffffffffffffffffffffffffffffff1681565b6003602052805f5260405f205f91509050805f015490806001015f9054906101000a90046fffffffffffffffffffffffffffffffff16908060010160109054906101000a900467ffffffffffffffff16908060010160189054906101000a900463ffffffff169080600101601c9054906101000a900461ffff169080600101601e9054906101000a900460ff169080600101601f9054906101000a900460ff16905087565b600a5481565b6118a56134df565b60035f8381526020019081526020015f206040518060e00160405290815f8201548152602001600182015f9054906101000a90046fffffffffffffffffffffffffffffffff166fffffffffffffffffffffffffffffffff166fffffffffffffffffffffffffffffffff1681526020016001820160109054906101000a900467ffffffffffffffff1667ffffffffffffffff1667ffffffffffffffff1681526020016001820160189054906101000a900463ffffffff1663ffffffff1663ffffffff16815260200160018201601c9054906101000a900461ffff1661ffff1661ffff16815260200160018201601e9054906101000a900460ff1660ff1660ff16815260200160018201601f9054906101000a900460ff1615151515815250509050919050565b5f5f1b6119d681612239565b5f60055f8473ffffffffffffffffffffffffffffffffffffffff1673ffffffffffffffffffffffffffffffffffffffff1681526020019081526020015f20600101601c6101000a81548160ff0219169083151502179055505050565b5f611a3b6124e9565b60085f01600d9054906101000a900460ff16611a8c576040517f08c379a0000000000000000000000000000000000000000000000000000000008152600401611a8390614584565b60405180910390fd5b5f5f5f5f7f000000000000000000000000000000000000000000000000000000000000000073ffffffffffffffffffffffffffffffffffffffff1663b9db15b4876040518263ffffffff1660e01b8152600401611ae99190613dcf565b60c060405180830381865afa158015611b04573d5f5f3e3d5ffd5b505050506040513d601f19601f82011682018060405250810190611b2891906147b7565b955095509550955050505f836bffffffffffffffffffffffff1603611b53575f945050505050611dcd565b611b5e8684836125e3565b60085f0160089054906101000a900461ffff1661ffff1660065f8881526020019081526020015f20805490501015611b9c575f945050505050611dcd565b5f5f5f611ba98987612970565b9250925092508215611dc55760095f8154611bc39061469f565b91905081905597506040518060e001604052808a8152602001876bffffffffffffffffffffffff166fffffffffffffffffffffffffffffffff1681526020014267ffffffffffffffff1681526020018363ffffffff168152602001611c288b89612da1565b61ffff1681526020018260ff1681526020015f151581525060035f8a81526020019081526020015f205f820151815f01556020820151816001015f6101000a8154816fffffffffffffffffffffffffffffffff02191690836fffffffffffffffffffffffffffffffff16021790555060408201518160010160106101000a81548167ffffffffffffffff021916908367ffffffffffffffff16021790555060608201518160010160186101000a81548163ffffffff021916908363ffffffff160217905550608082015181600101601c6101000a81548161ffff021916908361ffff16021790555060a082015181600101601e6101000a81548160ff021916908360ff16021790555060c082015181600101601f6101000a81548160ff021916908315150217905550905050611d5f85878a612ded565b88887ff27d08f8785c2e9def4170e74d379f88f5527897f5bbc90169fbfaed5cd0b9f0611d8b846131ac565b60035f8d81526020019081526020015f20600101601c9054906101000a900461ffff16604051611dbc9291906148a8565b60405180910390a35b505050505050505b611dd56125da565b919050565b7f38c45169c4754c04fc4d4dcfa54309c5e8871ed1e108977daec85dc17839467f81565b5f611e076124e9565b60085f01600d9054906101000a900460ff16611e58576040517f08c379a0000000000000000000000000000000000000000000000000000000008152600401611e4f90614584565b60405180910390fd5b5f5f5f5f7f000000000000000000000000000000000000000000000000000000000000000073ffffffffffffffffffffffffffffffffffffffff1663b9db15b4876040518263ffffffff1660e01b8152600401611eb59190613dcf565b60c060405180830381865afa158015611ed0573d5f5f3e3d5ffd5b505050506040513d601f19601f82011682018060405250810190611ef491906147b7565b955095509550509450505f8160ff1603611f14575f94505050505061219f565b5f600182611f2291906148d6565b90505f60075f8360ff1660ff1681526020019081526020015f205f9054906101000a900467ffffffffffffffff1690505f8667ffffffffffffffff1642611f69919061490a565b90505f603c82611f79919061496a565b905060085f0160049054906101000a900463ffffffff1663ffffffff1683611fa1919061499a565b67ffffffffffffffff168167ffffffffffffffff16111561219657600a5f8154611fca9061469f565b91905081905598505f8382611fdf91906149d5565b90506040518060e001604052808c8152602001603c86611fff9190614a10565b8b61200a919061499a565b67ffffffffffffffff1681526020014267ffffffffffffffff1681526020018263ffffffff1681526020018760ff168152602001600160ff1681526020015f151581525060045f8c81526020019081526020015f205f820151815f01556020820151816001015f6101000a81548167ffffffffffffffff021916908367ffffffffffffffff16021790555060408201518160010160086101000a81548167ffffffffffffffff021916908367ffffffffffffffff16021790555060608201518160010160106101000a81548163ffffffff021916908363ffffffff16021790555060808201518160010160146101000a81548160ff021916908360ff16021790555060a08201518160010160156101000a81548160ff021916908360ff16021790555060c08201518160010160166101000a81548160ff02191690831515021790555090505061215b87898c612ded565b8a8a7f8944f984b79095f402d62793f0d39c3ae261ac96e516736e86b1730da8059b2d8360405161218c9190614a7c565b60405180910390a3505b50505050505050505b6121a76125da565b919050565b6007602052805f5260405f205f915054906101000a900467ffffffffffffffff1681565b5f7f01ffc9a7000000000000000000000000000000000000000000000000000000007bffffffffffffffffffffffffffffffffffffffffffffffffffffffff1916827bffffffffffffffffffffffffffffffffffffffffffffffffffffffff1916149050919050565b61224a81612245612336565b6132c4565b50565b5f61225883836115f7565b61232c5760015f5f8581526020019081526020015f205f015f8473ffffffffffffffffffffffffffffffffffffffff1673ffffffffffffffffffffffffffffffffffffffff1681526020019081526020015f205f6101000a81548160ff0219169083151502179055506122c9612336565b73ffffffffffffffffffffffffffffffffffffffff168273ffffffffffffffffffffffffffffffffffffffff16847f2f8788117e7eff1d82e926ec794901d17c78024a50270940304540a733656f0d60405160405180910390a460019050612330565b5f90505b92915050565b5f33905090565b5f61234883836115f7565b1561241c575f5f5f8581526020019081526020015f205f015f8473ffffffffffffffffffffffffffffffffffffffff1673ffffffffffffffffffffffffffffffffffffffff1681526020019081526020015f205f6101000a81548160ff0219169083151502179055506123b9612336565b73ffffffffffffffffffffffffffffffffffffffff168273ffffffffffffffffffffffffffffffffffffffff16847ff6391f5c32d9c69d2a47ea670b442974b53935d1edc7fd64eb21e047a839171b60405160405180910390a460019050612420565b5f90505b92915050565b61242e613315565b5f60025f6101000a81548160ff0219169083151502179055507f5db9ee0a495bf2e6ff9c91a7834c1ba4fdd244a5e8aa4e537bd38aeae4b073aa612470612336565b60405161247d9190614a95565b60405180910390a1565b61248f613355565b600160025f6101000a81548160ff0219169083151502179055507f62e78cea01bee320cd4e420270b5ea74000d11b0c9f74754ebdbfc544b05a2586124d2612336565b6040516124df9190614a95565b60405180910390a1565b600260015403612525576040517f3ee5aeb500000000000000000000000000000000000000000000000000000000815260040160405180910390fd5b6002600181905550565b600160055f8473ffffffffffffffffffffffffffffffffffffffff1673ffffffffffffffffffffffffffffffffffffffff1681526020019081526020015f20600101601c6101000a81548160ff0219169083151502179055508173ffffffffffffffffffffffffffffffffffffffff167f6de06015d32f748fe51288b9e4d41fdc297402a6883e2f1d5cd265d0cef0edfa826040516125ce9190614aae565b60405180910390a25050565b60018081905550565b60065f8481526020019081526020015f206040518060800160405280846bffffffffffffffffffffffff166fffffffffffffffffffffffffffffffff1681526020014267ffffffffffffffff1681526020018563ffffffff1681526020018360ff16815250908060018154018082558091505060019003905f5260205f20015f909190919091505f820151815f015f6101000a8154816fffffffffffffffffffffffffffffffff02191690836fffffffffffffffffffffffffffffffff1602179055506020820151815f0160106101000a81548167ffffffffffffffff021916908367ffffffffffffffff1602179055506040820151815f0160186101000a81548163ffffffff021916908363ffffffff1602179055506060820151815f01601c6101000a81548160ff021916908360ff1602179055505050606460065f8581526020019081526020015f2080549050111561296b575f5f90505b600160065f8681526020019081526020015f208054905061275f919061490a565b8110156128d15760065f8581526020019081526020015f206001826127849190614ace565b8154811061279557612794614672565b5b905f5260205f200160065f8681526020019081526020015f2082815481106127c0576127bf614672565b5b905f5260205f20015f82015f9054906101000a90046fffffffffffffffffffffffffffffffff16815f015f6101000a8154816fffffffffffffffffffffffffffffffff02191690836fffffffffffffffffffffffffffffffff1602179055505f820160109054906101000a900467ffffffffffffffff16815f0160106101000a81548167ffffffffffffffff021916908367ffffffffffffffff1602179055505f820160189054906101000a900463ffffffff16815f0160186101000a81548163ffffffff021916908363ffffffff1602179055505f8201601c9054906101000a900460ff16815f01601c6101000a81548160ff021916908360ff160217905550905050808060010191505061273e565b5060065f8481526020019081526020015f208054806128f3576128f2614b01565b5b600190038181905f5260205f20015f5f82015f6101000a8154906fffffffffffffffffffffffffffffffff02191690555f820160106101000a81549067ffffffffffffffff02191690555f820160186101000a81549063ffffffff02191690555f8201601c6101000a81549060ff0219169055505090555b505050565b5f5f5f5f60065f8781526020019081526020015f20805480602002602001604051908101604052809291908181526020015f905b82821015612a8a578382905f5260205f20016040518060800160405290815f82015f9054906101000a90046fffffffffffffffffffffffffffffffff166fffffffffffffffffffffffffffffffff166fffffffffffffffffffffffffffffffff1681526020015f820160109054906101000a900467ffffffffffffffff1667ffffffffffffffff1667ffffffffffffffff1681526020015f820160189054906101000a900463ffffffff1663ffffffff1663ffffffff1681526020015f8201601c9054906101000a900460ff1660ff1660ff1681525050815260200190600101906129a4565b50505050905060085f0160089054906101000a900461ffff1661ffff1681511015612abe575f5f5f93509350935050612d9a565b5f5f90505f5f90505b8251811015612b1a57828181518110612ae357612ae2614672565b5b60200260200101515f01516fffffffffffffffffffffffffffffffff1682612b0b9190614ace565b91508080600101915050612ac7565b505f825182612b29919061496a565b90505f5f90505f5f90505b8451811015612c19575f836fffffffffffffffffffffffffffffffff16868381518110612b6457612b63614672565b5b60200260200101515f01516fffffffffffffffffffffffffffffffff1611612bb457858281518110612b9957612b98614672565b5b60200260200101515f015184612baf9190614b2e565b612bde565b83868381518110612bc857612bc7614672565b5b60200260200101515f0151612bdd9190614b2e565b5b6fffffffffffffffffffffffffffffffff1690508081612bfe9190614b71565b83612c099190614ace565b9250508080600101915050612b34565b505f612c30855183612c2b919061496a565b613396565b90505f836fffffffffffffffffffffffffffffffff168a6bffffffffffffffffffffffff1611612c7957896bffffffffffffffffffffffff1684612c749190614b2e565b612c94565b838a6bffffffffffffffffffffffff16612c939190614b2e565b5b90505f846fffffffffffffffffffffffffffffffff1611612cb5575f612ccf565b8361271082612cc49190614bb2565b612cce9190614bee565b5b975060085f015f9054906101000a900463ffffffff1663ffffffff168863ffffffff161115612d9357816002612d059190614bb2565b84612d109190614c1e565b6fffffffffffffffffffffffffffffffff168a6bffffffffffffffffffffffff161115612d405760019650612d8e565b816002612d4d9190614bb2565b84612d589190614b2e565b6fffffffffffffffffffffffffffffffff168a6bffffffffffffffffffffffff161015612d885760029650612d8d565b600396505b5b600198505b5050505050505b9250925092565b5f5f60065f8581526020019081526020015f2080549050905060148110612dcd57612328915050612de7565b600a8110612de057611d4c915050612de7565b6113889150505b92915050565b5f60055f8573ffffffffffffffffffffffffffffffffffffffff1673ffffffffffffffffffffffffffffffffffffffff1681526020019081526020015f2090505f73ffffffffffffffffffffffffffffffffffffffff16815f015f9054906101000a900473ffffffffffffffffffffffffffffffffffffffff1673ffffffffffffffffffffffffffffffffffffffff1603612fad5783815f015f6101000a81548173ffffffffffffffffffffffffffffffffffffffff021916908373ffffffffffffffffffffffffffffffffffffffff16021790555042815f0160146101000a81548167ffffffffffffffff021916908367ffffffffffffffff1602179055506001815f01601c6101000a81548163ffffffff021916908363ffffffff160217905550826bffffffffffffffffffffffff16816001015f6101000a8154816fffffffffffffffffffffffffffffffff02191690836fffffffffffffffffffffffffffffffff160217905550428160010160106101000a81548167ffffffffffffffff021916908367ffffffffffffffff1602179055506103e88160010160186101000a81548163ffffffff021916908363ffffffff160217905550613144565b805f01601c81819054906101000a900463ffffffff1680929190612fd090614c61565b91906101000a81548163ffffffff021916908363ffffffff16021790555050826bffffffffffffffffffffffff16816001015f8282829054906101000a90046fffffffffffffffffffffffffffffffff1661302b9190614c1e565b92506101000a8154816fffffffffffffffffffffffffffffffff02191690836fffffffffffffffffffffffffffffffff160217905550428160010160106101000a81548167ffffffffffffffff021916908367ffffffffffffffff1602179055506105dc8160010160188282829054906101000a900463ffffffff166130b1919061463b565b92506101000a81548163ffffffff021916908363ffffffff16021790555060085f01600c9054906101000a900460ff1660ff16815f01601c9054906101000a900463ffffffff1663ffffffff161061314357613142846040518060400160405280601b81526020017f4578636565646564206d6178696d756d2076696f6c6174696f6e73000000000081525061252f565b5b5b8373ffffffffffffffffffffffffffffffffffffffff167f0b564f38c91aa7b8be8f1a7d111239d247aa2219f9a2296c3db74537fd54de048260010160189054906101000a900463ffffffff1660405161319e9190614cd6565b60405180910390a250505050565b606060018260ff16036131f6576040518060400160405280601781526020017f537573706963696f75736c79206869676820707269636500000000000000000081525090506132bf565b60028260ff160361323e576040518060400160405280601681526020017f537573706963696f75736c79206c6f772070726963650000000000000000000081525090506132bf565b60038260ff1603613286576040518060400160405280601581526020017f47656e6572616c20707269636520616e6f6d616c79000000000000000000000081525090506132bf565b6040518060400160405280600f81526020017f556e6b6e6f776e20616e6f6d616c79000000000000000000000000000000000081525090505b919050565b6132ce82826115f7565b6133115780826040517fe2517d3f000000000000000000000000000000000000000000000000000000008152600401613308929190614d02565b60405180910390fd5b5050565b61331d610b58565b613353576040517f8dfc202b00000000000000000000000000000000000000000000000000000000815260040160405180910390fd5b565b61335d610b58565b15613394576040517fd93c066500000000000000000000000000000000000000000000000000000000815260040160405180910390fd5b565b5f5f82036133a6575f9050613402565b5f60026001846133b69190614ace565b6133c0919061496a565b90505f8390505b808210156133fc5781905060028283866133e1919061496a565b6133eb9190614ace565b6133f5919061496a565b91506133c7565b80925050505b919050565b6040518060e001604052805f81526020015f67ffffffffffffffff1681526020015f67ffffffffffffffff1681526020015f63ffffffff1681526020015f60ff1681526020015f60ff1681526020015f151581525090565b6040518060e001604052805f73ffffffffffffffffffffffffffffffffffffffff1681526020015f67ffffffffffffffff1681526020015f63ffffffff1681526020015f6fffffffffffffffffffffffffffffffff1681526020015f67ffffffffffffffff1681526020015f63ffffffff1681526020015f151581525090565b6040518060e001604052805f81526020015f6fffffffffffffffffffffffffffffffff1681526020015f67ffffffffffffffff1681526020015f63ffffffff1681526020015f61ffff1681526020015f60ff1681526020015f151581525090565b5f5ffd5b5f5ffd5b5f7fffffffff0000000000000000000000000000000000000000000000000000000082169050919050565b61357c81613548565b8114613586575f5ffd5b50565b5f8135905061359781613573565b92915050565b5f602082840312156135b2576135b1613540565b5b5f6135bf84828501613589565b91505092915050565b5f8115159050919050565b6135dc816135c8565b82525050565b5f6020820190506135f55f8301846135d3565b92915050565b5f819050919050565b61360d816135fb565b8114613617575f5ffd5b50565b5f8135905061362881613604565b92915050565b5f6020828403121561364357613642613540565b5b5f6136508482850161361a565b91505092915050565b613662816135fb565b82525050565b5f67ffffffffffffffff82169050919050565b61368481613668565b82525050565b5f63ffffffff82169050919050565b6136a28161368a565b82525050565b5f60ff82169050919050565b6136bd816136a8565b82525050565b6136cc816135c8565b82525050565b60e082015f8201516136e65f850182613659565b5060208201516136f9602085018261367b565b50604082015161370c604085018261367b565b50606082015161371f6060850182613699565b50608082015161373260808501826136b4565b5060a082015161374560a08501826136b4565b5060c082015161375860c08501826136c3565b50505050565b5f60e0820190506137715f8301846136d2565b92915050565b5f5ffd5b5f60c082840312156137905761378f613777565b5b81905092915050565b5f60c082840312156137ae576137ad613540565b5b5f6137bb8482850161377b565b91505092915050565b5f819050919050565b6137d6816137c4565b81146137e0575f5ffd5b50565b5f813590506137f1816137cd565b92915050565b5f6020828403121561380c5761380b613540565b5b5f613819848285016137e3565b91505092915050565b61382b816137c4565b82525050565b5f6020820190506138445f830184613822565b92915050565b5f73ffffffffffffffffffffffffffffffffffffffff82169050919050565b5f6138738261384a565b9050919050565b61388381613869565b811461388d575f5ffd5b50565b5f8135905061389e8161387a565b92915050565b5f5f604083850312156138ba576138b9613540565b5b5f6138c7858286016137e3565b92505060206138d885828601613890565b9150509250929050565b5f6fffffffffffffffffffffffffffffffff82169050919050565b613906816138e2565b82525050565b5f60208201905061391f5f8301846138fd565b92915050565b5f5f6040838503121561393b5761393a613540565b5b5f6139488582860161361a565b92505060206139598582860161361a565b9150509250929050565b61396c81613668565b82525050565b61397b8161368a565b82525050565b61398a816136a8565b82525050565b5f6080820190506139a35f8301876138fd565b6139b06020830186613963565b6139bd6040830185613972565b6139ca6060830184613981565b95945050505050565b5f5ffd5b5f5ffd5b5f5ffd5b5f5f83601f8401126139f4576139f36139d3565b5b8235905067ffffffffffffffff811115613a1157613a106139d7565b5b602083019150836001820283011115613a2d57613a2c6139db565b5b9250929050565b5f5f5f60408486031215613a4b57613a4a613540565b5b5f613a588682870161361a565b935050602084013567ffffffffffffffff811115613a7957613a78613544565b5b613a85868287016139df565b92509250509250925092565b613a9a816135fb565b82525050565b5f60e082019050613ab35f83018a613a91565b613ac06020830189613963565b613acd6040830188613963565b613ada6060830187613972565b613ae76080830186613981565b613af460a0830185613981565b613b0160c08301846135d3565b98975050505050505050565b5f60208284031215613b2257613b21613540565b5b5f613b2f84828501613890565b91505092915050565b613b4181613869565b82525050565b613b50816138e2565b82525050565b60e082015f820151613b6a5f850182613b38565b506020820151613b7d602085018261367b565b506040820151613b906040850182613699565b506060820151613ba36060850182613b47565b506080820151613bb6608085018261367b565b5060a0820151613bc960a0850182613699565b5060c0820151613bdc60c08501826136c3565b50505050565b5f60e082019050613bf55f830184613b56565b92915050565b5f61ffff82169050919050565b613c1181613bfb565b82525050565b5f60c082019050613c2a5f830189613972565b613c376020830188613972565b613c446040830187613c08565b613c516060830186613c08565b613c5e6080830185613981565b613c6b60a08301846135d3565b979650505050505050565b5f81519050919050565b5f82825260208201905092915050565b5f819050602082019050919050565b5f81519050919050565b5f82825260208201905092915050565b8281835e5f83830152505050565b5f601f19601f8301169050919050565b5f613ce182613c9f565b613ceb8185613ca9565b9350613cfb818560208601613cb9565b613d0481613cc7565b840191505092915050565b5f613d1a8383613cd7565b905092915050565b5f602082019050919050565b5f613d3882613c76565b613d428185613c80565b935083602082028501613d5485613c90565b805f5b85811015613d8f5784840389528151613d708582613d0f565b9450613d7b83613d22565b925060208a01995050600181019050613d57565b50829750879550505050505092915050565b5f604082019050613db45f830185613972565b8181036020830152613dc68184613d2e565b90509392505050565b5f602082019050613de25f830184613a91565b92915050565b613df181613869565b82525050565b5f60e082019050613e0a5f83018a613de8565b613e176020830189613963565b613e246040830188613972565b613e3160608301876138fd565b613e3e6080830186613963565b613e4b60a0830185613972565b613e5860c08301846135d3565b98975050505050505050565b5f819050919050565b5f613e87613e82613e7d8461384a565b613e64565b61384a565b9050919050565b5f613e9882613e6d565b9050919050565b5f613ea982613e8e565b9050919050565b613eb981613e9f565b82525050565b5f602082019050613ed25f830184613eb0565b92915050565b5f5f60408385031215613eee57613eed613540565b5b5f613efb85828601613890565b9250506020613f0c8582860161361a565b9150509250929050565b5f60e082019050613f295f83018a613a91565b613f3660208301896138fd565b613f436040830188613963565b613f506060830187613972565b613f5d6080830186613c08565b613f6a60a0830185613981565b613f7760c08301846135d3565b98975050505050505050565b613f8c81613bfb565b82525050565b60e082015f820151613fa65f850182613659565b506020820151613fb96020850182613b47565b506040820151613fcc604085018261367b565b506060820151613fdf6060850182613699565b506080820151613ff26080850182613f83565b5060a082015161400560a08501826136b4565b5060c082015161401860c08501826136c3565b50505050565b5f60e0820190506140315f830184613f92565b92915050565b614040816136a8565b811461404a575f5ffd5b50565b5f8135905061405b81614037565b92915050565b5f6020828403121561407657614075613540565b5b5f6140838482850161404d565b91505092915050565b5f60208201905061409f5f830184613963565b92915050565b6140ae8161368a565b81146140b8575f5ffd5b50565b5f81356140c7816140a5565b80915050919050565b5f815f1b9050919050565b5f63ffffffff6140ea846140d0565b9350801983169250808416831791505092915050565b5f61411a6141156141108461368a565b613e64565b61368a565b9050919050565b5f819050919050565b61413382614100565b61414661413f82614121565b83546140db565b8255505050565b5f8160201b9050919050565b5f67ffffffff0000000061416c8461414d565b9350801983169250808416831791505092915050565b61418b82614100565b61419e61419782614121565b8354614159565b8255505050565b6141ae81613bfb565b81146141b8575f5ffd5b50565b5f81356141c7816141a5565b80915050919050565b5f8160401b9050919050565b5f69ffff00000000000000006141f1846141d0565b9350801983169250808416831791505092915050565b5f61422161421c61421784613bfb565b613e64565b613bfb565b9050919050565b5f819050919050565b61423a82614207565b61424d61424682614228565b83546141dc565b8255505050565b5f8160501b9050919050565b5f6bffff0000000000000000000061427784614254565b9350801983169250808416831791505092915050565b61429682614207565b6142a96142a282614228565b8354614260565b8255505050565b5f81356142bc81614037565b80915050919050565b5f8160601b9050919050565b5f6cff0000000000000000000000006142e9846142c5565b9350801983169250808416831791505092915050565b5f61431961431461430f846136a8565b613e64565b6136a8565b9050919050565b5f819050919050565b614332826142ff565b61434561433e82614320565b83546142d1565b8255505050565b614355816135c8565b811461435f575f5ffd5b50565b5f813561436e8161434c565b80915050919050565b5f8160681b9050919050565b5f6dff0000000000000000000000000061439c84614377565b9350801983169250808416831791505092915050565b5f6143bc826135c8565b9050919050565b5f819050919050565b6143d5826143b2565b6143e86143e1826143c3565b8354614383565b8255505050565b5f81015f8301806143ff816140bb565b905061440b818461412a565b5050505f8101602083018061441f816140bb565b905061442b8184614182565b5050505f8101604083018061443f816141bb565b905061444b8184614231565b5050505f8101606083018061445f816141bb565b905061446b818461428d565b5050505f8101608083018061447f816142b0565b905061448b8184614329565b5050505f810160a083018061449f81614362565b90506144ab81846143cc565b5050505050565b6144bc82826143ef565b5050565b5f82825260208201905092915050565b828183375f83830152505050565b5f6144e983856144c0565b93506144f68385846144d0565b6144ff83613cc7565b840190509392505050565b5f60408201905061451d5f830186613de8565b81810360208301526145308184866144de565b9050949350505050565b7f446574656374696f6e2064697361626c656400000000000000000000000000005f82015250565b5f61456e6012836144c0565b91506145798261453a565b602082019050919050565b5f6020820190508181035f83015261459b81614562565b9050919050565b5f815190506145b081613604565b92915050565b5f602082840312156145cb576145ca613540565b5b5f6145d8848285016145a2565b91505092915050565b7f4e487b71000000000000000000000000000000000000000000000000000000005f52604160045260245ffd5b7f4e487b71000000000000000000000000000000000000000000000000000000005f52601160045260245ffd5b5f6146458261368a565b91506146508361368a565b9250828201905063ffffffff81111561466c5761466b61460e565b5b92915050565b7f4e487b71000000000000000000000000000000000000000000000000000000005f52603260045260245ffd5b5f6146a9826135fb565b91507fffffffffffffffffffffffffffffffffffffffffffffffffffffffffffffffff82036146db576146da61460e565b5b600182019050919050565b6146ef816138e2565b81146146f9575f5ffd5b50565b5f8151905061470a816146e6565b92915050565b61471981613668565b8114614723575f5ffd5b50565b5f8151905061473481614710565b92915050565b5f81519050614748816140a5565b92915050565b5f6bffffffffffffffffffffffff82169050919050565b61476e8161474e565b8114614778575f5ffd5b50565b5f8151905061478981614765565b92915050565b5f8151905061479d8161387a565b92915050565b5f815190506147b181614037565b92915050565b5f5f5f5f5f5f60c087890312156147d1576147d0613540565b5b5f6147de89828a016146fc565b96505060206147ef89828a01614726565b955050604061480089828a0161473a565b945050606061481189828a0161477b565b935050608061482289828a0161478f565b92505060a061483389828a016147a3565b9150509295509295509295565b5f61484a82613c9f565b61485481856144c0565b9350614864818560208601613cb9565b61486d81613cc7565b840191505092915050565b5f61489261488d61488884613bfb565b613e64565b6135fb565b9050919050565b6148a281614878565b82525050565b5f6040820190508181035f8301526148c08185614840565b90506148cf6020830184614899565b9392505050565b5f6148e0826136a8565b91506148eb836136a8565b9250828203905060ff8111156149045761490361460e565b5b92915050565b5f614914826135fb565b915061491f836135fb565b92508282039050818111156149375761493661460e565b5b92915050565b7f4e487b71000000000000000000000000000000000000000000000000000000005f52601260045260245ffd5b5f614974826135fb565b915061497f836135fb565b92508261498f5761498e61493d565b5b828204905092915050565b5f6149a482613668565b91506149af83613668565b9250828201905067ffffffffffffffff8111156149cf576149ce61460e565b5b92915050565b5f6149df82613668565b91506149ea83613668565b9250828203905067ffffffffffffffff811115614a0a57614a0961460e565b5b92915050565b5f614a1a82613668565b9150614a2583613668565b9250828202614a3381613668565b9150808214614a4557614a4461460e565b5b5092915050565b5f614a66614a61614a5c8461368a565b613e64565b6135fb565b9050919050565b614a7681614a4c565b82525050565b5f602082019050614a8f5f830184614a6d565b92915050565b5f602082019050614aa85f830184613de8565b92915050565b5f6020820190508181035f830152614ac68184614840565b905092915050565b5f614ad8826135fb565b9150614ae3836135fb565b9250828201905080821115614afb57614afa61460e565b5b92915050565b7f4e487b71000000000000000000000000000000000000000000000000000000005f52603160045260245ffd5b5f614b38826138e2565b9150614b43836138e2565b925082820390506fffffffffffffffffffffffffffffffff811115614b6b57614b6a61460e565b5b92915050565b5f614b7b826135fb565b9150614b86836135fb565b9250828202614b94816135fb565b91508282048414831517614bab57614baa61460e565b5b5092915050565b5f614bbc826138e2565b9150614bc7836138e2565b9250828202614bd5816138e2565b9150808214614be757614be661460e565b5b5092915050565b5f614bf8826138e2565b9150614c03836138e2565b925082614c1357614c1261493d565b5b828204905092915050565b5f614c28826138e2565b9150614c33836138e2565b925082820190506fffffffffffffffffffffffffffffffff811115614c5b57614c5a61460e565b5b92915050565b5f614c6b8261368a565b915063ffffffff8203614c8157614c8061460e565b5b600182019050919050565b7f537573706963696f7573206163746976697479207061747465726e00000000005f82015250565b5f614cc0601b836144c0565b9150614ccb82614c8c565b602082019050919050565b5f604082019050614ce95f830184614a6d565b8181036020830152614cfa81614cb4565b905092915050565b5f604082019050614d155f830185613de8565b614d226020830184613822565b939250505056fe486973746f726963616c206672617564207061747465726e206465746563746564a26469706673582212200d4ea64be5dc0807055bb6f8f54a61ed6a1691b2194042520a568404eadffafe64736f6c634300081e0033","linkReferences":{}},"methodIdentifiers":{"AUTOMATED_DETECTOR_ROLE()":"b910c4bd","DEFAULT_ADMIN_ROLE()":"a217fddf","FRAUD_ANALYST_ROLE()":"f48e7f9b","actorTransactionHistory(address,uint256)":"b2d33e81","analyzePriceAnomaly(uint256)":"f21ed8e5","anomalyCounter()":"982a9fa6","comprehensiveFraudAnalysis(uint256)":"8c597dca","config()":"79502c55","detectedAnomalies(uint256)":"dafa2b17","fraudPatterns(address)":"9dd8cf3d","getAnomalyDetails(uint256)":"eb8d2e38","getFraudPattern(address)":"67b52a70","getRoleAdmin(bytes32)":"248a9ca3","getViolationDetails(uint256)":"0a86a399","grantRole(bytes32,address)":"2f2ff15d","hasRole(bytes32,address)":"91d14854","isActorBlacklisted(address)":"6c9ca1a1","pause()":"8456cb59","paused()":"5c975abb","priceHistories(uint256,uint256)":"4bd738c7","priceStandardDeviation(uint256)":"d92c0cf5","removeBlacklist(address)":"eb91e651","renounceRole(bytes32,address)":"36568abe","resolveAnomaly(uint256,string)":"83206f59","resolveViolation(uint256,string)":"59b3f905","revokeRole(bytes32,address)":"d547741f","rollingPriceAverage(uint256)":"49f04684","stageTimeExpectations(uint8)":"ffd6dd92","supplyChainContract()":"a269cc7a","supportsInterface(bytes4)":"01ffc9a7","timeViolations(uint256)":"6319c920","unpause()":"3f4ba83a","updateDetectionConfig((uint32,uint32,uint16,uint16,uint8,bool))":"0d8ab1d7","validateStageTimings(uint256)":"f9c06e01","violationCounter()":"e900aaba"},"id":9}