{"abi":[{"type":"constructor","inputs":[],"stateMutability":"nonpayable"},{"type":"function","name":"DEFAULT_ADMIN_ROLE","inputs":[],"outputs":[{"name":"","type":"bytes32","internalType":"bytes32"}],"stateMutability":"view"},{"type":"function","name":"bulkDeactivateQRCodes","inputs":[{"name":"qrHashes","type":"bytes32[]","internalType":"bytes32[]"}],"outputs":[],"stateMutability":"nonpayable"},{"type":"function","name":"deactivateQRCode","inputs":[{"name":"qrHash","type":"bytes32","internalType":"bytes32"}],"outputs":[],"stateMutability":"nonpayable"},{"type":"function","name":"getIPFSMetadata","inputs":[{"name":"qrHash","type":"bytes32","internalType":"bytes32"}],"outputs":[{"name":"","type":"string","internalType":"string"}],"stateMutability":"view"},{"type":"function","name":"getProductFromQR","inputs":[{"name":"qrHash","type":"bytes32","internalType":"bytes32"}],"outputs":[{"name":"","type":"uint256","internalType":"uint256"}],"stateMutability":"view"},{"type":"function","name":"getQRData","inputs":[{"name":"qrHash","type":"bytes32","internalType":"bytes32"}],"outputs":[{"name":"productId","type":"uint256","internalType":"uint256"},{"name":"creator","type":"address","internalType":"address"},{"name":"timestamp","type":"uint64","internalType":"uint64"},{"name":"active","type":"bool","internalType":"bool"},{"name":"ipfsHash","type":"string","internalType":"string"}],"stateMutability":"view"},{"type":"function","name":"getQRHashByProductId","inputs":[{"name":"productId","type":"uint256","internalType":"uint256"}],"outputs":[{"name":"","type":"bytes32","internalType":"bytes32"}],"stateMutability":"view"},{"type":"function","name":"getRoleAdmin","inputs":[{"name":"role","type":"bytes32","internalType":"bytes32"}],"outputs":[{"name":"","type":"bytes32","internalType":"bytes32"}],"stateMutability":"view"},{"type":"function","name":"getUserQRCodes","inputs":[{"name":"user","type":"address","internalType":"address"}],"outputs":[{"name":"","type":"bytes32[]","internalType":"bytes32[]"}],"stateMutability":"view"},{"type":"function","name":"grantRole","inputs":[{"name":"role","type":"bytes32","internalType":"bytes32"},{"name":"account","type":"address","internalType":"address"}],"outputs":[],"stateMutability":"nonpayable"},{"type":"function","name":"hasRole","inputs":[{"name":"role","type":"bytes32","internalType":"bytes32"},{"name":"account","type":"address","internalType":"address"}],"outputs":[{"name":"","type":"bool","internalType":"bool"}],"stateMutability":"view"},{"type":"function","name":"isQRCodeActive","inputs":[{"name":"qrHash","type":"bytes32","internalType":"bytes32"}],"outputs":[{"name":"","type":"bool","internalType":"bool"}],"stateMutability":"view"},{"type":"function","name":"productQRCodes","inputs":[{"name":"","type":"uint256","internalType":"uint256"}],"outputs":[{"name":"","type":"bytes32","internalType":"bytes32"}],"stateMutability":"view"},{"type":"function","name":"qrCodes","inputs":[{"name":"","type":"bytes32","internalType":"bytes32"}],"outputs":[{"name":"creator","type":"address","internalType":"address"},{"name":"timestamp","type":"uint64","internalType":"uint64"},{"name":"productId","type":"uint32","internalType":"uint32"},{"name":"active","type":"bool","internalType":"bool"}],"stateMutability":"view"},{"type":"function","name":"qrMetadataHashes","inputs":[{"name":"","type":"bytes32","internalType":"bytes32"}],"outputs":[{"name":"","type":"string","internalType":"string"}],"stateMutability":"view"},{"type":"function","name":"reactivateQRCode","inputs":[{"name":"qrHash","type":"bytes32","internalType":"bytes32"}],"outputs":[],"stateMutability":"nonpayable"},{"type":"function","name":"registerQRCode","inputs":[{"name":"qrHash","type":"bytes32","internalType":"bytes32"},{"name":"productId","type":"uint32","internalType":"uint32"},{"name":"ipfsMetadataHash","type":"string","internalType":"string"}],"outputs":[{"name":"","type":"bool","internalType":"bool"}],"stateMutability":"nonpayable"},{"type":"function","name":"renounceRole","inputs":[{"name":"role","type":"bytes32","internalType":"bytes32"},{"name":"callerConfirmation","type":"address","internalType":"address"}],"outputs":[],"stateMutability":"nonpayable"},{"type":"function","name":"revokeRole","inputs":[{"name":"role","type":"bytes32","internalType":"bytes32"},{"name":"account","type":"address","internalType":"address"}],"outputs":[],"stateMutability":"nonpayable"},{"type":"function","name":"supportsInterface","inputs":[{"name":"interfaceId","type":"bytes4","internalType":"bytes4"}],"outputs":[{"name":"","type":"bool","internalType":"bool"}],"stateMutability":"view"},{"type":"function","name":"totalQRCodes","inputs":[],"outputs":[{"name":"","type":"uint256","internalType":"uint256"}],"stateMutability":"view"},{"type":"function","name":"updateIPFSMetadata","inputs":[{"name":"qrHash","type":"bytes32","internalType":"bytes32"},{"name":"ipfsMetadataHash","type":"string","internalType":"string"}],"outputs":[],"stateMutability":"nonpayable"},{"type":"function","name":"userQRCodes","inputs":[{"name":"","type":"address","internalType":"address"},{"name":"","type":"uint256","internalType":"uint256"}],"outputs":[{"name":"","type":"bytes32","internalType":"bytes32"}],"stateMutability":"view"},{"type":"event","name":"QRCodeDeactivated","inputs":[{"name":"qrHash","type":"bytes32","indexed":true,"internalType":"bytes32"}],"anonymous":false},{"type":"event","name":"QRCodeReactivated","inputs":[{"name":"qrHash","type":"bytes32","indexed":true,"internalType":"bytes32"}],"anonymous":false},{"type":"event","name":"QRCodeRegistered","inputs":[{"name":"qrHash","type":"bytes32","indexed":true,"internalType":"bytes32"},{"name":"productId","type":"uint256","indexed":true,"internalType":"uint256"},{"name":"creator","type":"address","indexed":true,"internalType":"address"}],"anonymous":false},{"type":"event","name":"RoleAdminChanged","inputs":[{"name":"role","type":"bytes32","indexed":true,"internalType":"bytes32"},{"name":"previousAdminRole","type":"bytes32","indexed":true,"internalType":"bytes32"},{"name":"newAdminRole","type":"bytes32","indexed":true,"internalType":"bytes32"}],"anonymous":false},{"type":"event","name":"RoleGranted","inputs":[{"name":"role","type":"bytes32","indexed":true,"internalType":"bytes32"},{"name":"account","type":"address","indexed":true,"internalType":"address"},{"name":"sender","type":"address","indexed":true,"internalType":"address"}],"anonymous":false},{"type":"event","name":"RoleRevoked","inputs":[{"name":"role","type":"bytes32","indexed":true,"internalType":"bytes32"},{"name":"account","type":"address","indexed":true,"internalType":"address"},{"name":"sender","type":"address","indexed":true,"internalType":"address"}],"anonymous":false},{"type":"error","name":"AccessControlBadConfirmation","inputs":[]},{"type":"error","name":"AccessControlUnauthorizedAccount","inputs":[{"name":"account","type":"address","internalType":"address"},{"name":"neededRole","type":"bytes32","internalType":"bytes32"}]},{"type":"error","name":"InvalidProductId","inputs":[]},{"type":"error","name":"InvalidQRCodeHash","inputs":[]},{"type":"error","name":"QRCodeAlreadyRegistered","inputs":[]},{"type":"error","name":"QRCodeNotFound","inputs":[]},{"type":"error","name":"UnauthorizedDeactivation","inputs":[]}],"bytecode":{"object":"0x608060405234801561000f575f5ffd5b506100225f5f1b3361002860201b60201c565b50610187565b5f610039838361011d60201b60201c565b6101135760015f5f8581526020019081526020015f205f015f8473ffffffffffffffffffffffffffffffffffffffff1673ffffffffffffffffffffffffffffffffffffffff1681526020019081526020015f205f6101000a81548160ff0219169083151502179055506100b061018060201b60201c565b73ffffffffffffffffffffffffffffffffffffffff168273ffffffffffffffffffffffffffffffffffffffff16847f2f8788117e7eff1d82e926ec794901d17c78024a50270940304540a733656f0d60405160405180910390a460019050610117565b5f90505b92915050565b5f5f5f8481526020019081526020015f205f015f8373ffffffffffffffffffffffffffffffffffffffff1673ffffffffffffffffffffffffffffffffffffffff1681526020019081526020015f205f9054906101000a900460ff16905092915050565b5f33905090565b612714806101945f395ff3fe608060405234801561000f575f5ffd5b506004361061014b575f3560e01c806346256dac116100c15780639b7d37f11161007a5780639b7d37f114610422578063a217fddf14610452578063bf598b6214610470578063d547741f1461048e578063d96d37e4146104aa578063e93dbf0b146104da5761014b565b806346256dac146103165780635783fa111461034657806365caabac1461036257806366b62d911461039257806390b5e7b8146103c257806391d14854146103f25761014b565b8063248a9ca311610113578063248a9ca31461021a57806329ee735a1461024a5780632f2ff15d1461027e57806336568abe1461029a5780633a18378b146102b65780633db247c9146102e65761014b565b806301ffc9a71461014f5780630c4d90d21461017f578063105b47c91461019b57806312bcbc5a146101cb5780631f730499146101e7575b5f5ffd5b61016960048036038101906101649190611c60565b6104f6565b6040516101769190611ca5565b60405180910390f35b61019960048036038101906101949190611cf1565b61056f565b005b6101b560048036038101906101b09190611cf1565b61078c565b6040516101c29190611d34565b60405180910390f35b6101e560048036038101906101e09190611dae565b6108e0565b005b61020160048036038101906101fc9190611cf1565b610a8f565b6040516102119493929190611e8a565b60405180910390f35b610234600480360381019061022f9190611cf1565b610b08565b6040516102419190611edc565b60405180910390f35b610264600480360381019061025f9190611cf1565b610b24565b604051610275959493929190611f65565b60405180910390f35b61029860048036038101906102939190611fe7565b610d2c565b005b6102b460048036038101906102af9190611fe7565b610d4e565b005b6102d060048036038101906102cb9190611cf1565b610dc9565b6040516102dd9190612025565b60405180910390f35b61030060048036038101906102fb9190611cf1565b610f9c565b60405161030d9190612025565b60405180910390f35b610330600480360381019061032b919061206f565b611037565b60405161033d9190611edc565b60405180910390f35b610360600480360381019061035b9190612102565b611062565b005b61037c6004803603810190610377919061214d565b611196565b6040516103899190611edc565b60405180910390f35b6103ac60048036038101906103a79190612178565b6111ab565b6040516103b9919061225a565b60405180910390f35b6103dc60048036038101906103d791906122a4565b61123e565b6040516103e99190611ca5565b60405180910390f35b61040c60048036038101906104079190611fe7565b6115d1565b6040516104199190611ca5565b60405180910390f35b61043c60048036038101906104379190611cf1565b611634565b6040516104499190611ca5565b60405180910390f35b61045a6116f9565b6040516104679190611edc565b60405180910390f35b6104786116ff565b6040516104859190611d34565b60405180910390f35b6104a860048036038101906104a39190611fe7565b611705565b005b6104c460048036038101906104bf919061214d565b611727565b6040516104d19190611edc565b60405180910390f35b6104f460048036038101906104ef9190611cf1565b611741565b005b5f7f7965db0b000000000000000000000000000000000000000000000000000000007bffffffffffffffffffffffffffffffffffffffffffffffffffffffff1916827bffffffffffffffffffffffffffffffffffffffffffffffffffffffff1916148061056857506105678261195c565b5b9050919050565b805f5f1b81036105ab576040517fee10f93300000000000000000000000000000000000000000000000000000000815260040160405180910390fd5b815f73ffffffffffffffffffffffffffffffffffffffff1660015f8381526020019081526020015f205f015f9054906101000a900473ffffffffffffffffffffffffffffffffffffffff1673ffffffffffffffffffffffffffffffffffffffff1603610643576040517fb52b318e00000000000000000000000000000000000000000000000000000000815260040160405180910390fd5b5f60015f8581526020019081526020015f2090503373ffffffffffffffffffffffffffffffffffffffff16815f015f9054906101000a900473ffffffffffffffffffffffffffffffffffffffff1673ffffffffffffffffffffffffffffffffffffffff16141580156106be57506106bc5f5f1b336115d1565b155b156106f5576040517fbff790e800000000000000000000000000000000000000000000000000000000815260040160405180910390fd5b806001015f9054906101000a900460ff161561073d576040517fe3216b1700000000000000000000000000000000000000000000000000000000815260040160405180910390fd5b6001816001015f6101000a81548160ff021916908315150217905550837fee2d95c2cf7c608fdb29d0f52fdd2cc49a8c8385f6bdea13f86e4c4d3bab2a5460405160405180910390a250505050565b5f815f5f1b81036107c9576040517fee10f93300000000000000000000000000000000000000000000000000000000815260040160405180910390fd5b825f73ffffffffffffffffffffffffffffffffffffffff1660015f8381526020019081526020015f205f015f9054906101000a900473ffffffffffffffffffffffffffffffffffffffff1673ffffffffffffffffffffffffffffffffffffffff1603610861576040517fb52b318e00000000000000000000000000000000000000000000000000000000815260040160405180910390fd5b5f60015f8681526020019081526020015f209050806001015f9054906101000a900460ff166108bc576040517fb52b318e00000000000000000000000000000000000000000000000000000000815260040160405180910390fd5b805f01601c9054906101000a900463ffffffff1663ffffffff169350505050919050565b825f5f1b810361091c576040517fee10f93300000000000000000000000000000000000000000000000000000000815260040160405180910390fd5b835f73ffffffffffffffffffffffffffffffffffffffff1660015f8381526020019081526020015f205f015f9054906101000a900473ffffffffffffffffffffffffffffffffffffffff1673ffffffffffffffffffffffffffffffffffffffff16036109b4576040517fb52b318e00000000000000000000000000000000000000000000000000000000815260040160405180910390fd5b5f60015f8781526020019081526020015f2090503373ffffffffffffffffffffffffffffffffffffffff16815f015f9054906101000a900473ffffffffffffffffffffffffffffffffffffffff1673ffffffffffffffffffffffffffffffffffffffff1614158015610a2f5750610a2d5f5f1b336115d1565b155b15610a66576040517fbff790e800000000000000000000000000000000000000000000000000000000815260040160405180910390fd5b848460035f8981526020019081526020015f209182610a86929190612549565b50505050505050565b6001602052805f5260405f205f91509050805f015f9054906101000a900473ffffffffffffffffffffffffffffffffffffffff1690805f0160149054906101000a900467ffffffffffffffff1690805f01601c9054906101000a900463ffffffff1690806001015f9054906101000a900460ff16905084565b5f5f5f8381526020019081526020015f20600101549050919050565b5f5f5f5f6060855f5f1b8103610b66576040517fee10f93300000000000000000000000000000000000000000000000000000000815260040160405180910390fd5b865f73ffffffffffffffffffffffffffffffffffffffff1660015f8381526020019081526020015f205f015f9054906101000a900473ffffffffffffffffffffffffffffffffffffffff1673ffffffffffffffffffffffffffffffffffffffff1603610bfe576040517fb52b318e00000000000000000000000000000000000000000000000000000000815260040160405180910390fd5b5f60015f8a81526020019081526020015f209050805f01601c9054906101000a900463ffffffff16815f015f9054906101000a900473ffffffffffffffffffffffffffffffffffffffff16825f0160149054906101000a900467ffffffffffffffff16836001015f9054906101000a900460ff1660035f8e81526020019081526020015f208463ffffffff169450808054610c9890612379565b80601f0160208091040260200160405190810160405280929190818152602001828054610cc490612379565b8015610d0f5780601f10610ce657610100808354040283529160200191610d0f565b820191905f5260205f20905b815481529060010190602001808311610cf257829003601f168201915b505050505090509750975097509750975050505091939590929450565b610d3582610b08565b610d3e816119c5565b610d4883836119d9565b50505050565b610d56611ac2565b73ffffffffffffffffffffffffffffffffffffffff168173ffffffffffffffffffffffffffffffffffffffff1614610dba576040517f6697b23200000000000000000000000000000000000000000000000000000000815260040160405180910390fd5b610dc48282611ac9565b505050565b6060815f5f1b8103610e07576040517fee10f93300000000000000000000000000000000000000000000000000000000815260040160405180910390fd5b825f73ffffffffffffffffffffffffffffffffffffffff1660015f8381526020019081526020015f205f015f9054906101000a900473ffffffffffffffffffffffffffffffffffffffff1673ffffffffffffffffffffffffffffffffffffffff1603610e9f576040517fb52b318e00000000000000000000000000000000000000000000000000000000815260040160405180910390fd5b5f60015f8681526020019081526020015f209050806001015f9054906101000a900460ff16610efa576040517fb52b318e00000000000000000000000000000000000000000000000000000000815260040160405180910390fd5b60035f8681526020019081526020015f208054610f1690612379565b80601f0160208091040260200160405190810160405280929190818152602001828054610f4290612379565b8015610f8d5780601f10610f6457610100808354040283529160200191610f8d565b820191905f5260205f20905b815481529060010190602001808311610f7057829003601f168201915b50505050509350505050919050565b6003602052805f5260405f205f915090508054610fb890612379565b80601f0160208091040260200160405190810160405280929190818152602001828054610fe490612379565b801561102f5780601f106110065761010080835404028352916020019161102f565b820191905f5260205f20905b81548152906001019060200180831161101257829003601f168201915b505050505081565b6004602052815f5260405f208181548110611050575f80fd5b905f5260205f20015f91509150505481565b5f5f1b61106e816119c5565b5f5f90505b83839050811015611190575f84848381811061109257611091612616565b5b9050602002013590505f73ffffffffffffffffffffffffffffffffffffffff1660015f8381526020019081526020015f205f015f9054906101000a900473ffffffffffffffffffffffffffffffffffffffff1673ffffffffffffffffffffffffffffffffffffffff1614158015611126575060015f8281526020019081526020015f206001015f9054906101000a900460ff165b15611184575f60015f8381526020019081526020015f206001015f6101000a81548160ff021916908315150217905550807f3110a13720dd60d4dcd7147e2008a618d822571a7de64b803f84270ddd9c991760405160405180910390a25b50806001019050611073565b50505050565b6002602052805f5260405f205f915090505481565b606060045f8373ffffffffffffffffffffffffffffffffffffffff1673ffffffffffffffffffffffffffffffffffffffff1681526020019081526020015f2080548060200260200160405190810160405280929190818152602001828054801561123257602002820191905f5260205f20905b81548152602001906001019080831161121e575b50505050509050919050565b5f845f5f1b810361127b576040517fee10f93300000000000000000000000000000000000000000000000000000000815260040160405180910390fd5b5f73ffffffffffffffffffffffffffffffffffffffff1660015f8881526020019081526020015f205f015f9054906101000a900473ffffffffffffffffffffffffffffffffffffffff1673ffffffffffffffffffffffffffffffffffffffff1614611312576040517fe3216b1700000000000000000000000000000000000000000000000000000000815260040160405180910390fd5b5f8563ffffffff1603611351576040517f15393ee900000000000000000000000000000000000000000000000000000000815260040160405180910390fd5b5f5f1b60025f8763ffffffff1681526020019081526020015f2054146113a3576040517fe3216b1700000000000000000000000000000000000000000000000000000000815260040160405180910390fd5b60405180608001604052803373ffffffffffffffffffffffffffffffffffffffff1681526020014267ffffffffffffffff1681526020018663ffffffff1681526020016001151581525060015f8881526020019081526020015f205f820151815f015f6101000a81548173ffffffffffffffffffffffffffffffffffffffff021916908373ffffffffffffffffffffffffffffffffffffffff1602179055506020820151815f0160146101000a81548167ffffffffffffffff021916908367ffffffffffffffff1602179055506040820151815f01601c6101000a81548163ffffffff021916908363ffffffff1602179055506060820151816001015f6101000a81548160ff0219169083151502179055509050508560025f8763ffffffff1681526020019081526020015f208190555060045f3373ffffffffffffffffffffffffffffffffffffffff1673ffffffffffffffffffffffffffffffffffffffff1681526020019081526020015f2086908060018154018082558091505060019003905f5260205f20015f90919091909150555f84849050111561156257838360035f8981526020019081526020015f209182611560929190612549565b505b60055f81548092919061157490612670565b91905055503373ffffffffffffffffffffffffffffffffffffffff168563ffffffff16877fa27ac9b149304d02a2881e452553b6b9b2e1fc42bc0b1b0a9a811895bbd4c51f60405160405180910390a46001915050949350505050565b5f5f5f8481526020019081526020015f205f015f8373ffffffffffffffffffffffffffffffffffffffff1673ffffffffffffffffffffffffffffffffffffffff1681526020019081526020015f205f9054906101000a900460ff16905092915050565b5f815f5f1b8103611671576040517fee10f93300000000000000000000000000000000000000000000000000000000815260040160405180910390fd5b5f60015f8581526020019081526020015f2090505f73ffffffffffffffffffffffffffffffffffffffff16815f015f9054906101000a900473ffffffffffffffffffffffffffffffffffffffff1673ffffffffffffffffffffffffffffffffffffffff16141580156116f05750806001015f9054906101000a900460ff165b92505050919050565b5f5f1b81565b60055481565b61170e82610b08565b611717816119c5565b6117218383611ac9565b50505050565b5f60025f8381526020019081526020015f20549050919050565b805f5f1b810361177d576040517fee10f93300000000000000000000000000000000000000000000000000000000815260040160405180910390fd5b815f73ffffffffffffffffffffffffffffffffffffffff1660015f8381526020019081526020015f205f015f9054906101000a900473ffffffffffffffffffffffffffffffffffffffff1673ffffffffffffffffffffffffffffffffffffffff1603611815576040517fb52b318e00000000000000000000000000000000000000000000000000000000815260040160405180910390fd5b5f60015f8581526020019081526020015f2090503373ffffffffffffffffffffffffffffffffffffffff16815f015f9054906101000a900473ffffffffffffffffffffffffffffffffffffffff1673ffffffffffffffffffffffffffffffffffffffff1614158015611890575061188e5f5f1b336115d1565b155b156118c7576040517fbff790e800000000000000000000000000000000000000000000000000000000815260040160405180910390fd5b806001015f9054906101000a900460ff1661190e576040517fb52b318e00000000000000000000000000000000000000000000000000000000815260040160405180910390fd5b5f816001015f6101000a81548160ff021916908315150217905550837f3110a13720dd60d4dcd7147e2008a618d822571a7de64b803f84270ddd9c991760405160405180910390a250505050565b5f7f01ffc9a7000000000000000000000000000000000000000000000000000000007bffffffffffffffffffffffffffffffffffffffffffffffffffffffff1916827bffffffffffffffffffffffffffffffffffffffffffffffffffffffff1916149050919050565b6119d6816119d1611ac2565b611bb2565b50565b5f6119e483836115d1565b611ab85760015f5f8581526020019081526020015f205f015f8473ffffffffffffffffffffffffffffffffffffffff1673ffffffffffffffffffffffffffffffffffffffff1681526020019081526020015f205f6101000a81548160ff021916908315150217905550611a55611ac2565b73ffffffffffffffffffffffffffffffffffffffff168273ffffffffffffffffffffffffffffffffffffffff16847f2f8788117e7eff1d82e926ec794901d17c78024a50270940304540a733656f0d60405160405180910390a460019050611abc565b5f90505b92915050565b5f33905090565b5f611ad483836115d1565b15611ba8575f5f5f8581526020019081526020015f205f015f8473ffffffffffffffffffffffffffffffffffffffff1673ffffffffffffffffffffffffffffffffffffffff1681526020019081526020015f205f6101000a81548160ff021916908315150217905550611b45611ac2565b73ffffffffffffffffffffffffffffffffffffffff168273ffffffffffffffffffffffffffffffffffffffff16847ff6391f5c32d9c69d2a47ea670b442974b53935d1edc7fd64eb21e047a839171b60405160405180910390a460019050611bac565b5f90505b92915050565b611bbc82826115d1565b611bff5780826040517fe2517d3f000000000000000000000000000000000000000000000000000000008152600401611bf69291906126b7565b60405180910390fd5b5050565b5f5ffd5b5f5ffd5b5f7fffffffff0000000000000000000000000000000000000000000000000000000082169050919050565b611c3f81611c0b565b8114611c49575f5ffd5b50565b5f81359050611c5a81611c36565b92915050565b5f60208284031215611c7557611c74611c03565b5b5f611c8284828501611c4c565b91505092915050565b5f8115159050919050565b611c9f81611c8b565b82525050565b5f602082019050611cb85f830184611c96565b92915050565b5f819050919050565b611cd081611cbe565b8114611cda575f5ffd5b50565b5f81359050611ceb81611cc7565b92915050565b5f60208284031215611d0657611d05611c03565b5b5f611d1384828501611cdd565b91505092915050565b5f819050919050565b611d2e81611d1c565b82525050565b5f602082019050611d475f830184611d25565b92915050565b5f5ffd5b5f5ffd5b5f5ffd5b5f5f83601f840112611d6e57611d6d611d4d565b5b8235905067ffffffffffffffff811115611d8b57611d8a611d51565b5b602083019150836001820283011115611da757611da6611d55565b5b9250929050565b5f5f5f60408486031215611dc557611dc4611c03565b5b5f611dd286828701611cdd565b935050602084013567ffffffffffffffff811115611df357611df2611c07565b5b611dff86828701611d59565b92509250509250925092565b5f73ffffffffffffffffffffffffffffffffffffffff82169050919050565b5f611e3482611e0b565b9050919050565b611e4481611e2a565b82525050565b5f67ffffffffffffffff82169050919050565b611e6681611e4a565b82525050565b5f63ffffffff82169050919050565b611e8481611e6c565b82525050565b5f608082019050611e9d5f830187611e3b565b611eaa6020830186611e5d565b611eb76040830185611e7b565b611ec46060830184611c96565b95945050505050565b611ed681611cbe565b82525050565b5f602082019050611eef5f830184611ecd565b92915050565b5f81519050919050565b5f82825260208201905092915050565b8281835e5f83830152505050565b5f601f19601f8301169050919050565b5f611f3782611ef5565b611f418185611eff565b9350611f51818560208601611f0f565b611f5a81611f1d565b840191505092915050565b5f60a082019050611f785f830188611d25565b611f856020830187611e3b565b611f926040830186611e5d565b611f9f6060830185611c96565b8181036080830152611fb18184611f2d565b90509695505050505050565b611fc681611e2a565b8114611fd0575f5ffd5b50565b5f81359050611fe181611fbd565b92915050565b5f5f60408385031215611ffd57611ffc611c03565b5b5f61200a85828601611cdd565b925050602061201b85828601611fd3565b9150509250929050565b5f6020820190508181035f83015261203d8184611f2d565b905092915050565b61204e81611d1c565b8114612058575f5ffd5b50565b5f8135905061206981612045565b92915050565b5f5f6040838503121561208557612084611c03565b5b5f61209285828601611fd3565b92505060206120a38582860161205b565b9150509250929050565b5f5f83601f8401126120c2576120c1611d4d565b5b8235905067ffffffffffffffff8111156120df576120de611d51565b5b6020830191508360208202830111156120fb576120fa611d55565b5b9250929050565b5f5f6020838503121561211857612117611c03565b5b5f83013567ffffffffffffffff81111561213557612134611c07565b5b612141858286016120ad565b92509250509250929050565b5f6020828403121561216257612161611c03565b5b5f61216f8482850161205b565b91505092915050565b5f6020828403121561218d5761218c611c03565b5b5f61219a84828501611fd3565b91505092915050565b5f81519050919050565b5f82825260208201905092915050565b5f819050602082019050919050565b6121d581611cbe565b82525050565b5f6121e683836121cc565b60208301905092915050565b5f602082019050919050565b5f612208826121a3565b61221281856121ad565b935061221d836121bd565b805f5b8381101561224d57815161223488826121db565b975061223f836121f2565b925050600181019050612220565b5085935050505092915050565b5f6020820190508181035f83015261227281846121fe565b905092915050565b61228381611e6c565b811461228d575f5ffd5b50565b5f8135905061229e8161227a565b92915050565b5f5f5f5f606085870312156122bc576122bb611c03565b5b5f6122c987828801611cdd565b94505060206122da87828801612290565b935050604085013567ffffffffffffffff8111156122fb576122fa611c07565b5b61230787828801611d59565b925092505092959194509250565b5f82905092915050565b7f4e487b71000000000000000000000000000000000000000000000000000000005f52604160045260245ffd5b7f4e487b71000000000000000000000000000000000000000000000000000000005f52602260045260245ffd5b5f600282049050600182168061239057607f821691505b6020821081036123a3576123a261234c565b5b50919050565b5f819050815f5260205f209050919050565b5f6020601f8301049050919050565b5f82821b905092915050565b5f600883026124057fffffffffffffffffffffffffffffffffffffffffffffffffffffffffffffffff826123ca565b61240f86836123ca565b95508019841693508086168417925050509392505050565b5f819050919050565b5f61244a61244561244084611d1c565b612427565b611d1c565b9050919050565b5f819050919050565b61246383612430565b61247761246f82612451565b8484546123d6565b825550505050565b5f5f905090565b61248e61247f565b61249981848461245a565b505050565b5b818110156124bc576124b15f82612486565b60018101905061249f565b5050565b601f821115612501576124d2816123a9565b6124db846123bb565b810160208510156124ea578190505b6124fe6124f6856123bb565b83018261249e565b50505b505050565b5f82821c905092915050565b5f6125215f1984600802612506565b1980831691505092915050565b5f6125398383612512565b9150826002028217905092915050565b6125538383612315565b67ffffffffffffffff81111561256c5761256b61231f565b5b6125768254612379565b6125818282856124c0565b5f601f8311600181146125ae575f841561259c578287013590505b6125a6858261252e565b86555061260d565b601f1984166125bc866123a9565b5f5b828110156125e3578489013582556001820191506020850194506020810190506125be565b8683101561260057848901356125fc601f891682612512565b8355505b6001600288020188555050505b50505050505050565b7f4e487b71000000000000000000000000000000000000000000000000000000005f52603260045260245ffd5b7f4e487b71000000000000000000000000000000000000000000000000000000005f52601160045260245ffd5b5f61267a82611d1c565b91507fffffffffffffffffffffffffffffffffffffffffffffffffffffffffffffffff82036126ac576126ab612643565b5b600182019050919050565b5f6040820190506126ca5f830185611e3b565b6126d76020830184611ecd565b939250505056fea264697066735822122069474f16e44aad149c6346f6087f07cd054ea8d8ce50253b9253ed63c556fa2664736f6c634300081e0033","linkReferences":{}},"methodIdentifiers":{"DEFAULT_ADMIN_ROLE()":"a217fddf","bulkDeactivateQRCodes(bytes32[])":"5783fa11","deactivateQRCode(bytes32)":"e93dbf0b","getIPFSMetadata(bytes32)":"3a18378b","getProductFromQR(bytes32)":"105b47c9","getQRData(bytes32)":"29ee735a","getQRHashByProductId(uint256)":"d96d37e4","getRoleAdmin(bytes32)":"248a9ca3","getUserQRCodes(address)":"66b62d91","grantRole(bytes32,address)":"2f2ff15d","hasRole(bytes32,address)":"91d14854","isQRCodeActive(bytes32)":"9b7d37f1","productQRCodes(uint256)":"65caabac","qrCodes(bytes32)":"1f730499","qrMetadataHashes(bytes32)":"3db247c9","reactivateQRCode(bytes32)":"0c4d90d2","registerQRCode(bytes32,uint32,string)":"90b5e7b8","renounceRole(bytes32,address)":"36568abe","revokeRole(bytes32,address)":"d547741f","supportsInterface(bytes4)":"01ffc9a7","totalQRCodes()":"bf598b62","updateIPFSMetadata(bytes32,string)":"12bcbc5a","userQRCodes(address,uint256)":"46256dac"},"id":30}