{"abi":[{"type":"constructor","inputs":[],"stateMutability":"nonpayable"},{"type":"function","name":"DEFAULT_ADMIN_ROLE","inputs":[],"outputs":[{"name":"","type":"bytes32","internalType":"bytes32"}],"stateMutability":"view"},{"type":"function","name":"DISTRIBUTOR_ROLE","inputs":[],"outputs":[{"name":"","type":"bytes32","internalType":"bytes32"}],"stateMutability":"view"},{"type":"function","name":"FARMER_ROLE","inputs":[],"outputs":[{"name":"","type":"bytes32","internalType":"bytes32"}],"stateMutability":"view"},{"type":"function","name":"MAX_IPFS_HASHES","inputs":[],"outputs":[{"name":"","type":"uint256","internalType":"uint256"}],"stateMutability":"view"},{"type":"function","name":"REGULATOR_ROLE","inputs":[],"outputs":[{"name":"","type":"bytes32","internalType":"bytes32"}],"stateMutability":"view"},{"type":"function","name":"RETAILER_ROLE","inputs":[],"outputs":[{"name":"","type":"bytes32","internalType":"bytes32"}],"stateMutability":"view"},{"type":"function","name":"addProductIPFSHash","inputs":[{"name":"productId","type":"uint256","internalType":"uint256"},{"name":"ipfsHash","type":"string","internalType":"string"}],"outputs":[],"stateMutability":"nonpayable"},{"type":"function","name":"addQualityData","inputs":[{"name":"productId","type":"uint256","internalType":"uint256"},{"name":"temperature","type":"uint32","internalType":"uint32"},{"name":"humidity","type":"uint32","internalType":"uint32"},{"name":"qualityScore","type":"uint16","internalType":"uint16"},{"name":"certificationHash","type":"bytes32","internalType":"bytes32"},{"name":"ipfsHash","type":"string","internalType":"string"}],"outputs":[],"stateMutability":"nonpayable"},{"type":"function","name":"createProduct","inputs":[{"name":"quantity","type":"uint32","internalType":"uint32"},{"name":"price","type":"uint96","internalType":"uint96"},{"name":"locationHash","type":"bytes32","internalType":"bytes32"},{"name":"ipfsHashes","type":"string[]","internalType":"string[]"}],"outputs":[{"name":"","type":"uint256","internalType":"uint256"}],"stateMutability":"nonpayable"},{"type":"function","name":"getProduct","inputs":[{"name":"productId","type":"uint256","internalType":"uint256"}],"outputs":[{"name":"id","type":"uint128","internalType":"uint128"},{"name":"timestamp","type":"uint64","internalType":"uint64"},{"name":"quantity","type":"uint32","internalType":"uint32"},{"name":"price","type":"uint96","internalType":"uint96"},{"name":"owner","type":"address","internalType":"address"},{"name":"stage","type":"uint8","internalType":"enum AgricultureSupplyChain.ProductStage"}],"stateMutability":"view"},{"type":"function","name":"getProductIPFSHashes","inputs":[{"name":"productId","type":"uint256","internalType":"uint256"}],"outputs":[{"name":"","type":"string[]","internalType":"string[]"}],"stateMutability":"view"},{"type":"function","name":"getQualityHistory","inputs":[{"name":"productId","type":"uint256","internalType":"uint256"}],"outputs":[{"name":"qualities","type":"tuple[]","internalType":"struct AgricultureSupplyChain.QualityData[]","components":[{"name":"timestamp","type":"uint64","internalType":"uint64"},{"name":"temperature","type":"uint32","internalType":"uint32"},{"name":"humidity","type":"uint32","internalType":"uint32"},{"name":"qualityScore","type":"uint16","internalType":"uint16"},{"name":"certificationHash","type":"bytes32","internalType":"bytes32"}]},{"name":"ipfsHashes","type":"string[]","internalType":"string[]"}],"stateMutability":"view"},{"type":"function","name":"getQualityIPFSHashes","inputs":[{"name":"productId","type":"uint256","internalType":"uint256"}],"outputs":[{"name":"","type":"string[]","internalType":"string[]"}],"stateMutability":"view"},{"type":"function","name":"getRoleAdmin","inputs":[{"name":"role","type":"bytes32","internalType":"bytes32"}],"outputs":[{"name":"","type":"bytes32","internalType":"bytes32"}],"stateMutability":"view"},{"type":"function","name":"grantDistributorRole","inputs":[{"name":"account","type":"address","internalType":"address"}],"outputs":[],"stateMutability":"nonpayable"},{"type":"function","name":"grantFarmerRole","inputs":[{"name":"account","type":"address","internalType":"address"}],"outputs":[],"stateMutability":"nonpayable"},{"type":"function","name":"grantRetailerRole","inputs":[{"name":"account","type":"address","internalType":"address"}],"outputs":[],"stateMutability":"nonpayable"},{"type":"function","name":"grantRole","inputs":[{"name":"role","type":"bytes32","internalType":"bytes32"},{"name":"account","type":"address","internalType":"address"}],"outputs":[],"stateMutability":"nonpayable"},{"type":"function","name":"hasRole","inputs":[{"name":"role","type":"bytes32","internalType":"bytes32"},{"name":"account","type":"address","internalType":"address"}],"outputs":[{"name":"","type":"bool","internalType":"bool"}],"stateMutability":"view"},{"type":"function","name":"ownerProducts","inputs":[{"name":"","type":"address","internalType":"address"},{"name":"","type":"uint256","internalType":"uint256"}],"outputs":[{"name":"","type":"uint256","internalType":"uint256"}],"stateMutability":"view"},{"type":"function","name":"pause","inputs":[],"outputs":[],"stateMutability":"nonpayable"},{"type":"function","name":"paused","inputs":[],"outputs":[{"name":"","type":"bool","internalType":"bool"}],"stateMutability":"view"},{"type":"function","name":"productIPFSHashes","inputs":[{"name":"","type":"uint256","internalType":"uint256"},{"name":"","type":"uint256","internalType":"uint256"}],"outputs":[{"name":"","type":"string","internalType":"string"}],"stateMutability":"view"},{"type":"function","name":"productQuality","inputs":[{"name":"","type":"uint256","internalType":"uint256"},{"name":"","type":"uint256","internalType":"uint256"}],"outputs":[{"name":"timestamp","type":"uint64","internalType":"uint64"},{"name":"temperature","type":"uint32","internalType":"uint32"},{"name":"humidity","type":"uint32","internalType":"uint32"},{"name":"qualityScore","type":"uint16","internalType":"uint16"},{"name":"certificationHash","type":"bytes32","internalType":"bytes32"}],"stateMutability":"view"},{"type":"function","name":"products","inputs":[{"name":"","type":"uint256","internalType":"uint256"}],"outputs":[{"name":"owner","type":"address","internalType":"address"},{"name":"price","type":"uint96","internalType":"uint96"},{"name":"productId","type":"uint128","internalType":"uint128"},{"name":"timestamp","type":"uint64","internalType":"uint64"},{"name":"quantity","type":"uint32","internalType":"uint32"},{"name":"stage","type":"uint8","internalType":"uint8"},{"name":"locationHash","type":"bytes32","internalType":"bytes32"}],"stateMutability":"view"},{"type":"function","name":"qualityIPFSHashes","inputs":[{"name":"","type":"uint256","internalType":"uint256"},{"name":"","type":"uint256","internalType":"uint256"}],"outputs":[{"name":"","type":"string","internalType":"string"}],"stateMutability":"view"},{"type":"function","name":"removeProduct","inputs":[{"name":"productId","type":"uint256","internalType":"uint256"}],"outputs":[],"stateMutability":"nonpayable"},{"type":"function","name":"renounceRole","inputs":[{"name":"role","type":"bytes32","internalType":"bytes32"},{"name":"callerConfirmation","type":"address","internalType":"address"}],"outputs":[],"stateMutability":"nonpayable"},{"type":"function","name":"revokeRole","inputs":[{"name":"role","type":"bytes32","internalType":"bytes32"},{"name":"account","type":"address","internalType":"address"}],"outputs":[],"stateMutability":"nonpayable"},{"type":"function","name":"supportsInterface","inputs":[{"name":"interfaceId","type":"bytes4","internalType":"bytes4"}],"outputs":[{"name":"","type":"bool","internalType":"bool"}],"stateMutability":"view"},{"type":"function","name":"transferOwnership","inputs":[{"name":"productId","type":"uint256","internalType":"uint256"},{"name":"newOwner","type":"address","internalType":"address"},{"name":"newPrice","type":"uint96","internalType":"uint96"}],"outputs":[],"stateMutability":"nonpayable"},{"type":"function","name":"unpause","inputs":[],"outputs":[],"stateMutability":"nonpayable"},{"type":"function","name":"updateProductStage","inputs":[{"name":"productId","type":"uint256","internalType":"uint256"},{"name":"newStage","type":"uint8","internalType":"enum AgricultureSupplyChain.ProductStage"}],"outputs":[],"stateMutability":"nonpayable"},{"type":"event","name":"OwnershipTransferred","inputs":[{"name":"productId","type":"uint256","indexed":true,"internalType":"uint256"},{"name":"from","type":"address","indexed":true,"internalType":"address"},{"name":"to","type":"address","indexed":true,"internalType":"address"}],"anonymous":false},{"type":"event","name":"Paused","inputs":[{"name":"account","type":"address","indexed":false,"internalType":"address"}],"anonymous":false},{"type":"event","name":"ProductCreated","inputs":[{"name":"productId","type":"uint256","indexed":true,"internalType":"uint256"},{"name":"farmer","type":"address","indexed":true,"internalType":"address"},{"name":"quantity","type":"uint256","indexed":false,"internalType":"uint256"}],"anonymous":false},{"type":"event","name":"ProductIPFSHashAdded","inputs":[{"name":"productId","type":"uint256","indexed":true,"internalType":"uint256"},{"name":"ipfsHash","type":"string","indexed":false,"internalType":"string"}],"anonymous":false},{"type":"event","name":"ProductUpdated","inputs":[{"name":"productId","type":"uint256","indexed":true,"internalType":"uint256"},{"name":"newStage","type":"uint8","indexed":false,"internalType":"enum AgricultureSupplyChain.ProductStage"},{"name":"updatedBy","type":"address","indexed":false,"internalType":"address"}],"anonymous":false},{"type":"event","name":"QualityDataAdded","inputs":[{"name":"productId","type":"uint256","indexed":true,"internalType":"uint256"},{"name":"qualityScore","type":"uint256","indexed":false,"internalType":"uint256"}],"anonymous":false},{"type":"event","name":"QualityDataIPFSHashAdded","inputs":[{"name":"productId","type":"uint256","indexed":true,"internalType":"uint256"},{"name":"ipfsHash","type":"string","indexed":false,"internalType":"string"}],"anonymous":false},{"type":"event","name":"RoleAdminChanged","inputs":[{"name":"role","type":"bytes32","indexed":true,"internalType":"bytes32"},{"name":"previousAdminRole","type":"bytes32","indexed":true,"internalType":"bytes32"},{"name":"newAdminRole","type":"bytes32","indexed":true,"internalType":"bytes32"}],"anonymous":false},{"type":"event","name":"RoleGranted","inputs":[{"name":"role","type":"bytes32","indexed":true,"internalType":"bytes32"},{"name":"account","type":"address","indexed":true,"internalType":"address"},{"name":"sender","type":"address","indexed":true,"internalType":"address"}],"anonymous":false},{"type":"event","name":"RoleRevoked","inputs":[{"name":"role","type":"bytes32","indexed":true,"internalType":"bytes32"},{"name":"account","type":"address","indexed":true,"internalType":"address"},{"name":"sender","type":"address","indexed":true,"internalType":"address"}],"anonymous":false},{"type":"event","name":"Unpaused","inputs":[{"name":"account","type":"address","indexed":false,"internalType":"address"}],"anonymous":false},{"type":"error","name":"AccessControlBadConfirmation","inputs":[]},{"type":"error","name":"AccessControlUnauthorizedAccount","inputs":[{"name":"account","type":"address","internalType":"address"},{"name":"neededRole","type":"bytes32","internalType":"bytes32"}]},{"type":"error","name":"EnforcedPause","inputs":[]},{"type":"error","name":"ExceedsMaxIPFSHashes","inputs":[]},{"type":"error","name":"ExpectedPause","inputs":[]},{"type":"error","name":"InvalidPrice","inputs":[]},{"type":"error","name":"InvalidQuantity","inputs":[]},{"type":"error","name":"ProductNotFound","inputs":[]},{"type":"error","name":"ReentrancyGuardReentrantCall","inputs":[]},{"type":"error","name":"UnauthorizedAccess","inputs":[]}],"bytecode":{"object":"0x608060405234801561000f575f5ffd5b50600180819055506100295f5f1b3361006060201b60201c565b5061005a7f20b5f7ac978e5d6199de06401411960dfa81d2f762655f6206bdc61d46fc19e63361006060201b60201c565b506101bf565b5f610071838361015560201b60201c565b61014b5760015f5f8581526020019081526020015f205f015f8473ffffffffffffffffffffffffffffffffffffffff1673ffffffffffffffffffffffffffffffffffffffff1681526020019081526020015f205f6101000a81548160ff0219169083151502179055506100e86101b860201b60201c565b73ffffffffffffffffffffffffffffffffffffffff168273ffffffffffffffffffffffffffffffffffffffff16847f2f8788117e7eff1d82e926ec794901d17c78024a50270940304540a733656f0d60405160405180910390a46001905061014f565b5f90505b92915050565b5f5f5f8481526020019081526020015f205f015f8373ffffffffffffffffffffffffffffffffffffffff1673ffffffffffffffffffffffffffffffffffffffff1681526020019081526020015f205f9054906101000a900460ff16905092915050565b5f33905090565b613c8d806101cc5f395ff3fe608060405234801561000f575f5ffd5b50600436106101f9575f3560e01c80638456cb5911610118578063ab1c158f116100ab578063ed8e8b111161007a578063ed8e8b11146105de578063f0bd87cc1461060e578063f39439701461062c578063f7ba0af11461064a578063f9f806e11461067b576101f9565b8063ab1c158f14610555578063ac40888c14610571578063b9db15b41461058d578063d547741f146105c2576101f9565b8063a15012b2116100e7578063a15012b2146104cd578063a217fddf146104e9578063a6629c9514610507578063a780016414610525576101f9565b80638456cb59146104435780638bba2a0a1461044d57806391d14854146104695780639c4687c914610499576101f9565b80633f4ba83a116101905780636a13931d1161015f5780636a13931d146103a55780637acc0b20146103c15780637b5cafe4146103f7578063843ff99914610413576101f9565b80633f4ba83a14610331578063524dd1a71461033b5780635c975abb1461036b5780635ee95cae14610389576101f9565b8063248a9ca3116101cc578063248a9ca3146102995780632f2ff15d146102c9578063361d6388146102e557806336568abe14610315576101f9565b806301ffc9a7146101fd57806308e950831461022d578063144bf5891461025d5780632115e7bf1461027b575b5f5ffd5b61021760048036038101906102129190612b41565b610697565b6040516102249190612b86565b60405180910390f35b61024760048036038101906102429190612bd2565b610710565b6040516102549190612d28565b60405180910390f35b610265610871565b6040516102729190612d60565b60405180910390f35b610283610895565b6040516102909190612d60565b60405180910390f35b6102b360048036038101906102ae9190612da3565b6108b9565b6040516102c09190612d60565b60405180910390f35b6102e360048036038101906102de9190612e28565b6108d5565b005b6102ff60048036038101906102fa9190612e66565b6108f7565b60405161030c9190612eec565b60405180910390f35b61032f600480360381019061032a9190612e28565b6109a8565b005b610339610a23565b005b61035560048036038101906103509190612fe7565b610a3a565b604051610362919061307a565b60405180910390f35b610373610ef0565b6040516103809190612b86565b60405180910390f35b6103a3600480360381019061039e9190612bd2565b610f05565b005b6103bf60048036038101906103ba91906130b6565b6110c9565b005b6103db60048036038101906103d69190612bd2565b61124a565b6040516103ee9796959493929190613188565b60405180910390f35b610411600480360381019061040c91906131f5565b61130a565b005b61042d60048036038101906104289190612e66565b61166b565b60405161043a9190612eec565b60405180910390f35b61044b61171c565b005b61046760048036038101906104629190613245565b611733565b005b610483600480360381019061047e9190612e28565b61176d565b6040516104909190612b86565b60405180910390f35b6104b360048036038101906104ae9190612e66565b6117d0565b6040516104c495949392919061328c565b60405180910390f35b6104e760048036038101906104e29190613332565b61185a565b005b6104f16119d8565b6040516104fe9190612d60565b60405180910390f35b61050f6119de565b60405161051c919061307a565b60405180910390f35b61053f600480360381019061053a919061338f565b6119e3565b60405161054c919061307a565b60405180910390f35b61056f600480360381019061056a9190613245565b611a0e565b005b61058b600480360381019061058691906133f7565b611a48565b005b6105a760048036038101906105a29190612bd2565b611d0d565b6040516105b996959493929190613514565b60405180910390f35b6105dc60048036038101906105d79190612e28565b611f4f565b005b6105f860048036038101906105f39190612bd2565b611f71565b6040516106059190612d28565b60405180910390f35b6106166120d2565b6040516106239190612d60565b60405180910390f35b6106346120f6565b6040516106419190612d60565b60405180910390f35b610664600480360381019061065f9190612bd2565b61211a565b6040516106729291906136bd565b60405180910390f35b61069560048036038101906106909190613245565b61238b565b005b5f7f7965db0b000000000000000000000000000000000000000000000000000000007bffffffffffffffffffffffffffffffffffffffffffffffffffffffff1916827bffffffffffffffffffffffffffffffffffffffffffffffffffffffff191614806107095750610708826123c5565b5b9050919050565b6060815f60035f8381526020019081526020015f206001015f9054906101000a90046fffffffffffffffffffffffffffffffff166fffffffffffffffffffffffffffffffff160361078d576040517f79de4af500000000000000000000000000000000000000000000000000000000815260040160405180910390fd5b60065f8481526020019081526020015f20805480602002602001604051908101604052809291908181526020015f905b82821015610865578382905f5260205f200180546107da9061371f565b80601f01602080910402602001604051908101604052809291908181526020018280546108069061371f565b80156108515780601f1061082857610100808354040283529160200191610851565b820191905f5260205f20905b81548152906001019060200180831161083457829003601f168201915b5050505050815260200190600101906107bd565b50505050915050919050565b7f20b5f7ac978e5d6199de06401411960dfa81d2f762655f6206bdc61d46fc19e681565b7f2a5f906c256a5d799494fcd066e1f6c077689de1cdb65052a1624de4bace99bf81565b5f5f5f8381526020019081526020015f20600101549050919050565b6108de826108b9565b6108e78161242e565b6108f18383612442565b50505050565b6005602052815f5260405f208181548110610910575f80fd5b905f5260205f20015f915091505080546109299061371f565b80601f01602080910402602001604051908101604052809291908181526020018280546109559061371f565b80156109a05780601f10610977576101008083540402835291602001916109a0565b820191905f5260205f20905b81548152906001019060200180831161098357829003601f168201915b505050505081565b6109b061252b565b73ffffffffffffffffffffffffffffffffffffffff168173ffffffffffffffffffffffffffffffffffffffff1614610a14576040517f6697b23200000000000000000000000000000000000000000000000000000000815260040160405180910390fd5b610a1e8282612532565b505050565b5f5f1b610a2f8161242e565b610a3761261b565b50565b5f7f7c6181838a71a779e445600d4c6ecbe16bacf2b3c5bda69c29fada66d1b645d1610a658161242e565b610a6d61267c565b610a756126bd565b86865f8263ffffffff1603610ab6576040517f524f409b00000000000000000000000000000000000000000000000000000000815260040160405180910390fd5b5f816bffffffffffffffffffffffff1603610afc576040517ebfc92100000000000000000000000000000000000000000000000000000000815260040160405180910390fd5b6032868690501115610b3a576040517f16cf19df00000000000000000000000000000000000000000000000000000000815260040160405180910390fd5b5f60085f8154610b499061377c565b91905081905590505f6040518060e001604052803373ffffffffffffffffffffffffffffffffffffffff1681526020018b6bffffffffffffffffffffffff168152602001836fffffffffffffffffffffffffffffffff1681526020014267ffffffffffffffff1681526020018c63ffffffff1681526020015f6008811115610bd457610bd36134a1565b5b60ff1681526020018a81525090508060035f8481526020019081526020015f205f820151815f015f6101000a81548173ffffffffffffffffffffffffffffffffffffffff021916908373ffffffffffffffffffffffffffffffffffffffff1602179055506020820151815f0160146101000a8154816bffffffffffffffffffffffff02191690836bffffffffffffffffffffffff1602179055506040820151816001015f6101000a8154816fffffffffffffffffffffffffffffffff02191690836fffffffffffffffffffffffffffffffff16021790555060608201518160010160106101000a81548167ffffffffffffffff021916908367ffffffffffffffff16021790555060808201518160010160186101000a81548163ffffffff021916908363ffffffff16021790555060a082015181600101601c6101000a81548160ff021916908360ff16021790555060c082015181600201559050505f888890501115610e27575f60055f8481526020019081526020015f2090505f5f90505b89899050811015610e2457818a8a83818110610d7357610d726137c3565b5b9050602002810190610d8591906137fc565b90918060018154018082558091505060019003905f5260205f20015f909192909192909192909192509182610dbb929190613a35565b50837ff36a7c2f056d67f98219c71c0e7d052ac1f4b41663058996f8a55c79ab3f68348b8b84818110610df157610df06137c3565b5b9050602002810190610e0391906137fc565b604051610e11929190613b3c565b60405180910390a2806001019050610d54565b50505b60075f3373ffffffffffffffffffffffffffffffffffffffff1673ffffffffffffffffffffffffffffffffffffffff1681526020019081526020015f2082908060018154018082558091505060019003905f5260205f20015f90919091909150553373ffffffffffffffffffffffffffffffffffffffff16827f8c12a1cab846dfcbaa7bbfb31067eef6959a29d7729252d0489ba1b9f631abc48d604051610ecf9190613b8e565b60405180910390a381955050505050610ee6612703565b5095945050505050565b5f60025f9054906101000a900460ff16905090565b7f20b5f7ac978e5d6199de06401411960dfa81d2f762655f6206bdc61d46fc19e6610f2f8161242e565b815f60035f8381526020019081526020015f206001015f9054906101000a90046fffffffffffffffffffffffffffffffff166fffffffffffffffffffffffffffffffff1603610faa576040517f79de4af500000000000000000000000000000000000000000000000000000000815260040160405180910390fd5b60035f8481526020019081526020015f205f5f82015f6101000a81549073ffffffffffffffffffffffffffffffffffffffff02191690555f820160146101000a8154906bffffffffffffffffffffffff0219169055600182015f6101000a8154906fffffffffffffffffffffffffffffffff02191690556001820160106101000a81549067ffffffffffffffff02191690556001820160186101000a81549063ffffffff021916905560018201601c6101000a81549060ff0219169055600282015f9055505060045f8481526020019081526020015f205f61108c91906129b3565b60055f8481526020019081526020015f205f6110a891906129d4565b60065f8481526020019081526020015f205f6110c491906129d4565b505050565b6110d161267c565b6110d96126bd565b815f60035f8381526020019081526020015f206001015f9054906101000a90046fffffffffffffffffffffffffffffffff166fffffffffffffffffffffffffffffffff1603611154576040517f79de4af500000000000000000000000000000000000000000000000000000000815260040160405180910390fd5b61115e338361270c565b611194576040517f344fd58600000000000000000000000000000000000000000000000000000000815260040160405180910390fd5b5f60035f8581526020019081526020015f2090508260088111156111bb576111ba6134a1565b5b81600101601c6101000a81548160ff021916908360ff160217905550428160010160106101000a81548167ffffffffffffffff021916908367ffffffffffffffff160217905550837ff7bec10e54f06191c6c98fb3befefe7ea823737e59568ca74f78cfcfb70296568433604051611234929190613ba7565b60405180910390a25050611246612703565b5050565b6003602052805f5260405f205f91509050805f015f9054906101000a900473ffffffffffffffffffffffffffffffffffffffff1690805f0160149054906101000a90046bffffffffffffffffffffffff1690806001015f9054906101000a90046fffffffffffffffffffffffffffffffff16908060010160109054906101000a900467ffffffffffffffff16908060010160189054906101000a900463ffffffff169080600101601c9054906101000a900460ff16908060020154905087565b61131261267c565b61131a6126bd565b825f60035f8381526020019081526020015f206001015f9054906101000a90046fffffffffffffffffffffffffffffffff166fffffffffffffffffffffffffffffffff1603611395576040517f79de4af500000000000000000000000000000000000000000000000000000000815260040160405180910390fd5b5f60035f8681526020019081526020015f2090503373ffffffffffffffffffffffffffffffffffffffff16815f015f9054906101000a900473ffffffffffffffffffffffffffffffffffffffff1673ffffffffffffffffffffffffffffffffffffffff1614611430576040517f344fd58600000000000000000000000000000000000000000000000000000000815260040160405180910390fd5b5f73ffffffffffffffffffffffffffffffffffffffff168473ffffffffffffffffffffffffffffffffffffffff1603611495576040517f344fd58600000000000000000000000000000000000000000000000000000000815260040160405180910390fd5b5f836bffffffffffffffffffffffff16036114db576040517ebfc92100000000000000000000000000000000000000000000000000000000815260040160405180910390fd5b5f815f015f9054906101000a900473ffffffffffffffffffffffffffffffffffffffff16905084825f015f6101000a81548173ffffffffffffffffffffffffffffffffffffffff021916908373ffffffffffffffffffffffffffffffffffffffff16021790555083825f0160146101000a8154816bffffffffffffffffffffffff02191690836bffffffffffffffffffffffff160217905550428260010160106101000a81548167ffffffffffffffff021916908367ffffffffffffffff16021790555060075f8673ffffffffffffffffffffffffffffffffffffffff1673ffffffffffffffffffffffffffffffffffffffff1681526020019081526020015f2086908060018154018082558091505060019003905f5260205f20015f90919091909150558473ffffffffffffffffffffffffffffffffffffffff168173ffffffffffffffffffffffffffffffffffffffff16877f16b85f49bf01212961345d3016c9a531894accf62eb7680f2045d79185cc0ec060405160405180910390a4505050611666612703565b505050565b6006602052815f5260405f208181548110611684575f80fd5b905f5260205f20015f9150915050805461169d9061371f565b80601f01602080910402602001604051908101604052809291908181526020018280546116c99061371f565b80156117145780601f106116eb57610100808354040283529160200191611714565b820191905f5260205f20905b8154815290600101906020018083116116f757829003601f168201915b505050505081565b5f5f1b6117288161242e565b6117306128c0565b50565b5f5f1b61173f8161242e565b6117697ffbd454f36a7e1a388bd6fc3ab10d434aa4578f811acbbcf33afb1c697486313c836108d5565b5050565b5f5f5f8481526020019081526020015f205f015f8373ffffffffffffffffffffffffffffffffffffffff1673ffffffffffffffffffffffffffffffffffffffff1681526020019081526020015f205f9054906101000a900460ff16905092915050565b6004602052815f5260405f2081815481106117e9575f80fd5b905f5260205f2090600202015f9150915050805f015f9054906101000a900467ffffffffffffffff1690805f0160089054906101000a900463ffffffff1690805f01600c9054906101000a900463ffffffff1690805f0160109054906101000a900461ffff16908060010154905085565b7f7c6181838a71a779e445600d4c6ecbe16bacf2b3c5bda69c29fada66d1b645d16118848161242e565b835f60035f8381526020019081526020015f206001015f9054906101000a90046fffffffffffffffffffffffffffffffff166fffffffffffffffffffffffffffffffff16036118ff576040517f79de4af500000000000000000000000000000000000000000000000000000000815260040160405180910390fd5b603260055f8781526020019081526020015f20805490501061194d576040517f16cf19df00000000000000000000000000000000000000000000000000000000815260040160405180910390fd5b60055f8681526020019081526020015f20848490918060018154018082558091505060019003905f5260205f20015f909192909192909192909192509182611996929190613a35565b50847ff36a7c2f056d67f98219c71c0e7d052ac1f4b41663058996f8a55c79ab3f683485856040516119c9929190613b3c565b60405180910390a25050505050565b5f5f1b81565b603281565b6007602052815f5260405f2081815481106119fc575f80fd5b905f5260205f20015f91509150505481565b5f5f1b611a1a8161242e565b611a447f7c6181838a71a779e445600d4c6ecbe16bacf2b3c5bda69c29fada66d1b645d1836108d5565b5050565b611a5061267c565b611a586126bd565b865f60035f8381526020019081526020015f206001015f9054906101000a90046fffffffffffffffffffffffffffffffff166fffffffffffffffffffffffffffffffff1603611ad3576040517f79de4af500000000000000000000000000000000000000000000000000000000815260040160405180910390fd5b603260065f8a81526020019081526020015f208054905010611b21576040517f16cf19df00000000000000000000000000000000000000000000000000000000815260040160405180910390fd5b60045f8981526020019081526020015f206040518060a001604052804267ffffffffffffffff1681526020018963ffffffff1681526020018863ffffffff1681526020018761ffff16815260200186815250908060018154018082558091505060019003905f5260205f2090600202015f909190919091505f820151815f015f6101000a81548167ffffffffffffffff021916908367ffffffffffffffff1602179055506020820151815f0160086101000a81548163ffffffff021916908363ffffffff1602179055506040820151815f01600c6101000a81548163ffffffff021916908363ffffffff1602179055506060820151815f0160106101000a81548161ffff021916908361ffff16021790555060808201518160010155505060065f8981526020019081526020015f20838390918060018154018082558091505060019003905f5260205f20015f909192909192909192909192509182611c88929190613a35565b50877f0aeeb37908d9ae386b52cf3c3bf8d266087b95ed936b1de1401ac6807b2e610f86604051611cb99190613bfe565b60405180910390a2877f5d6f62ec2bd413ff4d03bce703962b505fc1eb93efe556ac71e7f6db92856c9c8484604051611cf3929190613b3c565b60405180910390a250611d04612703565b50505050505050565b5f5f5f5f5f5f865f60035f8381526020019081526020015f206001015f9054906101000a90046fffffffffffffffffffffffffffffffff166fffffffffffffffffffffffffffffffff1603611d8e576040517f79de4af500000000000000000000000000000000000000000000000000000000815260040160405180910390fd5b5f60035f8a81526020019081526020015f206040518060e00160405290815f82015f9054906101000a900473ffffffffffffffffffffffffffffffffffffffff1673ffffffffffffffffffffffffffffffffffffffff1673ffffffffffffffffffffffffffffffffffffffff1681526020015f820160149054906101000a90046bffffffffffffffffffffffff166bffffffffffffffffffffffff166bffffffffffffffffffffffff168152602001600182015f9054906101000a90046fffffffffffffffffffffffffffffffff166fffffffffffffffffffffffffffffffff166fffffffffffffffffffffffffffffffff1681526020016001820160109054906101000a900467ffffffffffffffff1667ffffffffffffffff1667ffffffffffffffff1681526020016001820160189054906101000a900463ffffffff1663ffffffff1663ffffffff16815260200160018201601c9054906101000a900460ff1660ff1660ff16815260200160028201548152505090508060400151816060015182608001518360200151845f01518560a0015160ff166008811115611f3857611f376134a1565b5b975097509750975097509750505091939550919395565b611f58826108b9565b611f618161242e565b611f6b8383612532565b50505050565b6060815f60035f8381526020019081526020015f206001015f9054906101000a90046fffffffffffffffffffffffffffffffff166fffffffffffffffffffffffffffffffff1603611fee576040517f79de4af500000000000000000000000000000000000000000000000000000000815260040160405180910390fd5b60055f8481526020019081526020015f20805480602002602001604051908101604052809291908181526020015f905b828210156120c6578382905f5260205f2001805461203b9061371f565b80601f01602080910402602001604051908101604052809291908181526020018280546120679061371f565b80156120b25780601f10612089576101008083540402835291602001916120b2565b820191905f5260205f20905b81548152906001019060200180831161209557829003601f168201915b50505050508152602001906001019061201e565b50505050915050919050565b7ffbd454f36a7e1a388bd6fc3ab10d434aa4578f811acbbcf33afb1c697486313c81565b7f7c6181838a71a779e445600d4c6ecbe16bacf2b3c5bda69c29fada66d1b645d181565b606080825f60035f8381526020019081526020015f206001015f9054906101000a90046fffffffffffffffffffffffffffffffff166fffffffffffffffffffffffffffffffff1603612198576040517f79de4af500000000000000000000000000000000000000000000000000000000815260040160405180910390fd5b60045f8581526020019081526020015f2060065f8681526020019081526020015f2081805480602002602001604051908101604052809291908181526020015f905b828210156122ad578382905f5260205f2090600202016040518060a00160405290815f82015f9054906101000a900467ffffffffffffffff1667ffffffffffffffff1667ffffffffffffffff1681526020015f820160089054906101000a900463ffffffff1663ffffffff1663ffffffff1681526020015f8201600c9054906101000a900463ffffffff1663ffffffff1663ffffffff1681526020015f820160109054906101000a900461ffff1661ffff1661ffff168152602001600182015481525050815260200190600101906121da565b50505050915080805480602002602001604051908101604052809291908181526020015f905b8282101561237b578382905f5260205f200180546122f09061371f565b80601f016020809104026020016040519081016040528092919081815260200182805461231c9061371f565b80156123675780601f1061233e57610100808354040283529160200191612367565b820191905f5260205f20905b81548152906001019060200180831161234a57829003601f168201915b5050505050815260200190600101906122d3565b5050505090509250925050915091565b5f5f1b6123978161242e565b6123c17f2a5f906c256a5d799494fcd066e1f6c077689de1cdb65052a1624de4bace99bf836108d5565b5050565b5f7f01ffc9a7000000000000000000000000000000000000000000000000000000007bffffffffffffffffffffffffffffffffffffffffffffffffffffffff1916827bffffffffffffffffffffffffffffffffffffffffffffffffffffffff1916149050919050565b61243f8161243a61252b565b612922565b50565b5f61244d838361176d565b6125215760015f5f8581526020019081526020015f205f015f8473ffffffffffffffffffffffffffffffffffffffff1673ffffffffffffffffffffffffffffffffffffffff1681526020019081526020015f205f6101000a81548160ff0219169083151502179055506124be61252b565b73ffffffffffffffffffffffffffffffffffffffff168273ffffffffffffffffffffffffffffffffffffffff16847f2f8788117e7eff1d82e926ec794901d17c78024a50270940304540a733656f0d60405160405180910390a460019050612525565b5f90505b92915050565b5f33905090565b5f61253d838361176d565b15612611575f5f5f8581526020019081526020015f205f015f8473ffffffffffffffffffffffffffffffffffffffff1673ffffffffffffffffffffffffffffffffffffffff1681526020019081526020015f205f6101000a81548160ff0219169083151502179055506125ae61252b565b73ffffffffffffffffffffffffffffffffffffffff168273ffffffffffffffffffffffffffffffffffffffff16847ff6391f5c32d9c69d2a47ea670b442974b53935d1edc7fd64eb21e047a839171b60405160405180910390a460019050612615565b5f90505b92915050565b612623612973565b5f60025f6101000a81548160ff0219169083151502179055507f5db9ee0a495bf2e6ff9c91a7834c1ba4fdd244a5e8aa4e537bd38aeae4b073aa61266561252b565b6040516126729190613c17565b60405180910390a1565b612684610ef0565b156126bb576040517fd93c066500000000000000000000000000000000000000000000000000000000815260040160405180910390fd5b565b6002600154036126f9576040517f3ee5aeb500000000000000000000000000000000000000000000000000000000815260040160405180910390fd5b6002600181905550565b60018081905550565b5f6127377f20b5f7ac978e5d6199de06401411960dfa81d2f762655f6206bdc61d46fc19e68461176d565b1561274557600190506128ba565b60026008811115612759576127586134a1565b5b82600881111561276c5761276b6134a1565b5b116127a25761279b7f7c6181838a71a779e445600d4c6ecbe16bacf2b3c5bda69c29fada66d1b645d18461176d565b90506128ba565b600460088111156127b6576127b56134a1565b5b8260088111156127c9576127c86134a1565b5b11612830576127f87f7c6181838a71a779e445600d4c6ecbe16bacf2b3c5bda69c29fada66d1b645d18461176d565b8061282957506128287ffbd454f36a7e1a388bd6fc3ab10d434aa4578f811acbbcf33afb1c697486313c8461176d565b5b90506128ba565b60066008811115612844576128436134a1565b5b826008811115612857576128566134a1565b5b1161288d576128867ffbd454f36a7e1a388bd6fc3ab10d434aa4578f811acbbcf33afb1c697486313c8461176d565b90506128ba565b6128b77f2a5f906c256a5d799494fcd066e1f6c077689de1cdb65052a1624de4bace99bf8461176d565b90505b92915050565b6128c861267c565b600160025f6101000a81548160ff0219169083151502179055507f62e78cea01bee320cd4e420270b5ea74000d11b0c9f74754ebdbfc544b05a25861290b61252b565b6040516129189190613c17565b60405180910390a1565b61292c828261176d565b61296f5780826040517fe2517d3f000000000000000000000000000000000000000000000000000000008152600401612966929190613c30565b60405180910390fd5b5050565b61297b610ef0565b6129b1576040517f8dfc202b00000000000000000000000000000000000000000000000000000000815260040160405180910390fd5b565b5080545f8255600202905f5260205f20908101906129d191906129f2565b50565b5080545f8255905f5260205f20908101906129ef9190612a69565b50565b5b80821115612a65575f5f82015f6101000a81549067ffffffffffffffff02191690555f820160086101000a81549063ffffffff02191690555f8201600c6101000a81549063ffffffff02191690555f820160106101000a81549061ffff0219169055600182015f9055506002016129f3565b5090565b5b80821115612a88575f8181612a7f9190612a8c565b50600101612a6a565b5090565b508054612a989061371f565b5f825580601f10612aa95750612ac6565b601f0160209004905f5260205f2090810190612ac59190612ac9565b5b50565b5b80821115612ae0575f815f905550600101612aca565b5090565b5f5ffd5b5f5ffd5b5f7fffffffff0000000000000000000000000000000000000000000000000000000082169050919050565b612b2081612aec565b8114612b2a575f5ffd5b50565b5f81359050612b3b81612b17565b92915050565b5f60208284031215612b5657612b55612ae4565b5b5f612b6384828501612b2d565b91505092915050565b5f8115159050919050565b612b8081612b6c565b82525050565b5f602082019050612b995f830184612b77565b92915050565b5f819050919050565b612bb181612b9f565b8114612bbb575f5ffd5b50565b5f81359050612bcc81612ba8565b92915050565b5f60208284031215612be757612be6612ae4565b5b5f612bf484828501612bbe565b91505092915050565b5f81519050919050565b5f82825260208201905092915050565b5f819050602082019050919050565b5f81519050919050565b5f82825260208201905092915050565b8281835e5f83830152505050565b5f601f19601f8301169050919050565b5f612c6882612c26565b612c728185612c30565b9350612c82818560208601612c40565b612c8b81612c4e565b840191505092915050565b5f612ca18383612c5e565b905092915050565b5f602082019050919050565b5f612cbf82612bfd565b612cc98185612c07565b935083602082028501612cdb85612c17565b805f5b85811015612d165784840389528151612cf78582612c96565b9450612d0283612ca9565b925060208a01995050600181019050612cde565b50829750879550505050505092915050565b5f6020820190508181035f830152612d408184612cb5565b905092915050565b5f819050919050565b612d5a81612d48565b82525050565b5f602082019050612d735f830184612d51565b92915050565b612d8281612d48565b8114612d8c575f5ffd5b50565b5f81359050612d9d81612d79565b92915050565b5f60208284031215612db857612db7612ae4565b5b5f612dc584828501612d8f565b91505092915050565b5f73ffffffffffffffffffffffffffffffffffffffff82169050919050565b5f612df782612dce565b9050919050565b612e0781612ded565b8114612e11575f5ffd5b50565b5f81359050612e2281612dfe565b92915050565b5f5f60408385031215612e3e57612e3d612ae4565b5b5f612e4b85828601612d8f565b9250506020612e5c85828601612e14565b9150509250929050565b5f5f60408385031215612e7c57612e7b612ae4565b5b5f612e8985828601612bbe565b9250506020612e9a85828601612bbe565b9150509250929050565b5f82825260208201905092915050565b5f612ebe82612c26565b612ec88185612ea4565b9350612ed8818560208601612c40565b612ee181612c4e565b840191505092915050565b5f6020820190508181035f830152612f048184612eb4565b905092915050565b5f63ffffffff82169050919050565b612f2481612f0c565b8114612f2e575f5ffd5b50565b5f81359050612f3f81612f1b565b92915050565b5f6bffffffffffffffffffffffff82169050919050565b612f6581612f45565b8114612f6f575f5ffd5b50565b5f81359050612f8081612f5c565b92915050565b5f5ffd5b5f5ffd5b5f5ffd5b5f5f83601f840112612fa757612fa6612f86565b5b8235905067ffffffffffffffff811115612fc457612fc3612f8a565b5b602083019150836020820283011115612fe057612fdf612f8e565b5b9250929050565b5f5f5f5f5f6080868803121561300057612fff612ae4565b5b5f61300d88828901612f31565b955050602061301e88828901612f72565b945050604061302f88828901612d8f565b935050606086013567ffffffffffffffff8111156130505761304f612ae8565b5b61305c88828901612f92565b92509250509295509295909350565b61307481612b9f565b82525050565b5f60208201905061308d5f83018461306b565b92915050565b6009811061309f575f5ffd5b50565b5f813590506130b081613093565b92915050565b5f5f604083850312156130cc576130cb612ae4565b5b5f6130d985828601612bbe565b92505060206130ea858286016130a2565b9150509250929050565b6130fd81612ded565b82525050565b61310c81612f45565b82525050565b5f6fffffffffffffffffffffffffffffffff82169050919050565b61313681613112565b82525050565b5f67ffffffffffffffff82169050919050565b6131588161313c565b82525050565b61316781612f0c565b82525050565b5f60ff82169050919050565b6131828161316d565b82525050565b5f60e08201905061319b5f83018a6130f4565b6131a86020830189613103565b6131b5604083018861312d565b6131c2606083018761314f565b6131cf608083018661315e565b6131dc60a0830185613179565b6131e960c0830184612d51565b98975050505050505050565b5f5f5f6060848603121561320c5761320b612ae4565b5b5f61321986828701612bbe565b935050602061322a86828701612e14565b925050604061323b86828701612f72565b9150509250925092565b5f6020828403121561325a57613259612ae4565b5b5f61326784828501612e14565b91505092915050565b5f61ffff82169050919050565b61328681613270565b82525050565b5f60a08201905061329f5f83018861314f565b6132ac602083018761315e565b6132b9604083018661315e565b6132c6606083018561327d565b6132d36080830184612d51565b9695505050505050565b5f5f83601f8401126132f2576132f1612f86565b5b8235905067ffffffffffffffff81111561330f5761330e612f8a565b5b60208301915083600182028301111561332b5761332a612f8e565b5b9250929050565b5f5f5f6040848603121561334957613348612ae4565b5b5f61335686828701612bbe565b935050602084013567ffffffffffffffff81111561337757613376612ae8565b5b613383868287016132dd565b92509250509250925092565b5f5f604083850312156133a5576133a4612ae4565b5b5f6133b285828601612e14565b92505060206133c385828601612bbe565b9150509250929050565b6133d681613270565b81146133e0575f5ffd5b50565b5f813590506133f1816133cd565b92915050565b5f5f5f5f5f5f5f60c0888a03121561341257613411612ae4565b5b5f61341f8a828b01612bbe565b97505060206134308a828b01612f31565b96505060406134418a828b01612f31565b95505060606134528a828b016133e3565b94505060806134638a828b01612d8f565b93505060a088013567ffffffffffffffff81111561348457613483612ae8565b5b6134908a828b016132dd565b925092505092959891949750929550565b7f4e487b71000000000000000000000000000000000000000000000000000000005f52602160045260245ffd5b600981106134df576134de6134a1565b5b50565b5f8190506134ef826134ce565b919050565b5f6134fe826134e2565b9050919050565b61350e816134f4565b82525050565b5f60c0820190506135275f83018961312d565b613534602083018861314f565b613541604083018761315e565b61354e6060830186613103565b61355b60808301856130f4565b61356860a0830184613505565b979650505050505050565b5f81519050919050565b5f82825260208201905092915050565b5f819050602082019050919050565b6135a58161313c565b82525050565b6135b481612f0c565b82525050565b6135c381613270565b82525050565b6135d281612d48565b82525050565b60a082015f8201516135ec5f85018261359c565b5060208201516135ff60208501826135ab565b50604082015161361260408501826135ab565b50606082015161362560608501826135ba565b50608082015161363860808501826135c9565b50505050565b5f61364983836135d8565b60a08301905092915050565b5f602082019050919050565b5f61366b82613573565b613675818561357d565b93506136808361358d565b805f5b838110156136b0578151613697888261363e565b97506136a283613655565b925050600181019050613683565b5085935050505092915050565b5f6040820190508181035f8301526136d58185613661565b905081810360208301526136e98184612cb5565b90509392505050565b7f4e487b71000000000000000000000000000000000000000000000000000000005f52602260045260245ffd5b5f600282049050600182168061373657607f821691505b602082108103613749576137486136f2565b5b50919050565b7f4e487b71000000000000000000000000000000000000000000000000000000005f52601160045260245ffd5b5f61378682612b9f565b91507fffffffffffffffffffffffffffffffffffffffffffffffffffffffffffffffff82036137b8576137b761374f565b5b600182019050919050565b7f4e487b71000000000000000000000000000000000000000000000000000000005f52603260045260245ffd5b5f5ffd5b5f5ffd5b5f5ffd5b5f5f83356001602003843603038112613818576138176137f0565b5b80840192508235915067ffffffffffffffff82111561383a576138396137f4565b5b602083019250600182023603831315613856576138556137f8565b5b509250929050565b5f82905092915050565b7f4e487b71000000000000000000000000000000000000000000000000000000005f52604160045260245ffd5b5f819050815f5260205f209050919050565b5f6020601f8301049050919050565b5f82821b905092915050565b5f600883026138f17fffffffffffffffffffffffffffffffffffffffffffffffffffffffffffffffff826138b6565b6138fb86836138b6565b95508019841693508086168417925050509392505050565b5f819050919050565b5f61393661393161392c84612b9f565b613913565b612b9f565b9050919050565b5f819050919050565b61394f8361391c565b61396361395b8261393d565b8484546138c2565b825550505050565b5f5f905090565b61397a61396b565b613985818484613946565b505050565b5b818110156139a85761399d5f82613972565b60018101905061398b565b5050565b601f8211156139ed576139be81613895565b6139c7846138a7565b810160208510156139d6578190505b6139ea6139e2856138a7565b83018261398a565b50505b505050565b5f82821c905092915050565b5f613a0d5f19846008026139f2565b1980831691505092915050565b5f613a2583836139fe565b9150826002028217905092915050565b613a3f838361385e565b67ffffffffffffffff811115613a5857613a57613868565b5b613a62825461371f565b613a6d8282856139ac565b5f601f831160018114613a9a575f8415613a88578287013590505b613a928582613a1a565b865550613af9565b601f198416613aa886613895565b5f5b82811015613acf57848901358255600182019150602085019450602081019050613aaa565b86831015613aec5784890135613ae8601f8916826139fe565b8355505b6001600288020188555050505b50505050505050565b828183375f83830152505050565b5f613b1b8385612ea4565b9350613b28838584613b02565b613b3183612c4e565b840190509392505050565b5f6020820190508181035f830152613b55818486613b10565b90509392505050565b5f613b78613b73613b6e84612f0c565b613913565b612b9f565b9050919050565b613b8881613b5e565b82525050565b5f602082019050613ba15f830184613b7f565b92915050565b5f604082019050613bba5f830185613505565b613bc760208301846130f4565b9392505050565b5f613be8613be3613bde84613270565b613913565b612b9f565b9050919050565b613bf881613bce565b82525050565b5f602082019050613c115f830184613bef565b92915050565b5f602082019050613c2a5f8301846130f4565b92915050565b5f604082019050613c435f8301856130f4565b613c506020830184612d51565b939250505056fea264697066735822122057ed744de1ee7b4b029497ee4e87f77b9fb79f44eccda38aa0aeedd0c79f376b64736f6c634300081e0033","linkReferences":{}},"methodIdentifiers":{"DEFAULT_ADMIN_ROLE()":"a217fddf","DISTRIBUTOR_ROLE()":"f0bd87cc","FARMER_ROLE()":"f3943970","MAX_IPFS_HASHES()":"a6629c95","REGULATOR_ROLE()":"144bf589","RETAILER_ROLE()":"2115e7bf","addProductIPFSHash(uint256,string)":"a15012b2","addQualityData(uint256,uint32,uint32,uint16,bytes32,string)":"ac40888c","createProduct(uint32,uint96,bytes32,string[])":"524dd1a7","getProduct(uint256)":"b9db15b4","getProductIPFSHashes(uint256)":"ed8e8b11","getQualityHistory(uint256)":"f7ba0af1","getQualityIPFSHashes(uint256)":"08e95083","getRoleAdmin(bytes32)":"248a9ca3","grantDistributorRole(address)":"8bba2a0a","grantFarmerRole(address)":"ab1c158f","grantRetailerRole(address)":"f9f806e1","grantRole(bytes32,address)":"2f2ff15d","hasRole(bytes32,address)":"91d14854","ownerProducts(address,uint256)":"a7800164","pause()":"8456cb59","paused()":"5c975abb","productIPFSHashes(uint256,uint256)":"361d6388","productQuality(uint256,uint256)":"9c4687c9","products(uint256)":"7acc0b20","qualityIPFSHashes(uint256,uint256)":"843ff999","removeProduct(uint256)":"5ee95cae","renounceRole(bytes32,address)":"36568abe","revokeRole(bytes32,address)":"d547741f","supportsInterface(bytes4)":"01ffc9a7","transferOwnership(uint256,address,uint96)":"7b5cafe4","unpause()":"3f4ba83a","updateProductStage(uint256,uint8)":"6a13931d"},"id":28}