{"abi":[{"type":"constructor","inputs":[],"stateMutability":"nonpayable"},{"type":"function","name":"DEFAULT_ADMIN_ROLE","inputs":[],"outputs":[{"name":"","type":"bytes32","internalType":"bytes32"}],"stateMutability":"view"},{"type":"function","name":"cancelPayment","inputs":[{"name":"paymentId","type":"uint256","internalType":"uint256"}],"outputs":[],"stateMutability":"nonpayable"},{"type":"function","name":"createPayment","inputs":[{"name":"amount","type":"uint96","internalType":"uint96"},{"name":"payee","type":"address","internalType":"address"},{"name":"dueDate","type":"uint64","internalType":"uint64"},{"name":"conditionsHash","type":"bytes32","internalType":"bytes32"}],"outputs":[{"name":"","type":"uint256","internalType":"uint256"}],"stateMutability":"payable"},{"type":"function","name":"depositFunds","inputs":[],"outputs":[],"stateMutability":"payable"},{"type":"function","name":"emergencyWithdraw","inputs":[],"outputs":[],"stateMutability":"nonpayable"},{"type":"function","name":"escrowBalances","inputs":[{"name":"","type":"address","internalType":"address"}],"outputs":[{"name":"","type":"uint256","internalType":"uint256"}],"stateMutability":"view"},{"type":"function","name":"executePayment","inputs":[{"name":"paymentId","type":"uint256","internalType":"uint256"}],"outputs":[],"stateMutability":"nonpayable"},{"type":"function","name":"getAvailableBalance","inputs":[{"name":"account","type":"address","internalType":"address"}],"outputs":[{"name":"","type":"uint256","internalType":"uint256"}],"stateMutability":"view"},{"type":"function","name":"getPaymentStatus","inputs":[{"name":"paymentId","type":"uint256","internalType":"uint256"}],"outputs":[{"name":"","type":"string","internalType":"string"}],"stateMutability":"view"},{"type":"function","name":"getRoleAdmin","inputs":[{"name":"role","type":"bytes32","internalType":"bytes32"}],"outputs":[{"name":"","type":"bytes32","internalType":"bytes32"}],"stateMutability":"view"},{"type":"function","name":"grantRole","inputs":[{"name":"role","type":"bytes32","internalType":"bytes32"},{"name":"account","type":"address","internalType":"address"}],"outputs":[],"stateMutability":"nonpayable"},{"type":"function","name":"hasRole","inputs":[{"name":"role","type":"bytes32","internalType":"bytes32"},{"name":"account","type":"address","internalType":"address"}],"outputs":[{"name":"","type":"bool","internalType":"bool"}],"stateMutability":"view"},{"type":"function","name":"isPaymentExpired","inputs":[{"name":"paymentId","type":"uint256","internalType":"uint256"}],"outputs":[{"name":"","type":"bool","internalType":"bool"}],"stateMutability":"view"},{"type":"function","name":"pause","inputs":[],"outputs":[],"stateMutability":"nonpayable"},{"type":"function","name":"paused","inputs":[],"outputs":[{"name":"","type":"bool","internalType":"bool"}],"stateMutability":"view"},{"type":"function","name":"payments","inputs":[{"name":"","type":"uint256","internalType":"uint256"}],"outputs":[{"name":"payee","type":"address","internalType":"address"},{"name":"amount","type":"uint96","internalType":"uint96"},{"name":"payer","type":"address","internalType":"address"},{"name":"dueDate","type":"uint64","internalType":"uint64"},{"name":"status","type":"uint8","internalType":"uint8"},{"name":"conditionsHash","type":"bytes32","internalType":"bytes32"}],"stateMutability":"view"},{"type":"function","name":"renounceRole","inputs":[{"name":"role","type":"bytes32","internalType":"bytes32"},{"name":"callerConfirmation","type":"address","internalType":"address"}],"outputs":[],"stateMutability":"nonpayable"},{"type":"function","name":"revokeRole","inputs":[{"name":"role","type":"bytes32","internalType":"bytes32"},{"name":"account","type":"address","internalType":"address"}],"outputs":[],"stateMutability":"nonpayable"},{"type":"function","name":"supportsInterface","inputs":[{"name":"interfaceId","type":"bytes4","internalType":"bytes4"}],"outputs":[{"name":"","type":"bool","internalType":"bool"}],"stateMutability":"view"},{"type":"function","name":"unpause","inputs":[],"outputs":[],"stateMutability":"nonpayable"},{"type":"function","name":"withdrawFunds","inputs":[{"name":"amount","type":"uint256","internalType":"uint256"}],"outputs":[],"stateMutability":"nonpayable"},{"type":"event","name":"FundsDeposited","inputs":[{"name":"depositor","type":"address","indexed":true,"internalType":"address"},{"name":"amount","type":"uint256","indexed":false,"internalType":"uint256"}],"anonymous":false},{"type":"event","name":"FundsWithdrawn","inputs":[{"name":"withdrawer","type":"address","indexed":true,"internalType":"address"},{"name":"amount","type":"uint256","indexed":false,"internalType":"uint256"}],"anonymous":false},{"type":"event","name":"Paused","inputs":[{"name":"account","type":"address","indexed":false,"internalType":"address"}],"anonymous":false},{"type":"event","name":"PaymentCancelled","inputs":[{"name":"paymentId","type":"uint256","indexed":true,"internalType":"uint256"},{"name":"amount","type":"uint256","indexed":false,"internalType":"uint256"}],"anonymous":false},{"type":"event","name":"PaymentCreated","inputs":[{"name":"paymentId","type":"uint256","indexed":true,"internalType":"uint256"},{"name":"payer","type":"address","indexed":true,"internalType":"address"},{"name":"payee","type":"address","indexed":true,"internalType":"address"},{"name":"amount","type":"uint256","indexed":false,"internalType":"uint256"}],"anonymous":false},{"type":"event","name":"PaymentExecuted","inputs":[{"name":"paymentId","type":"uint256","indexed":true,"internalType":"uint256"},{"name":"amount","type":"uint256","indexed":false,"internalType":"uint256"}],"anonymous":false},{"type":"event","name":"RoleAdminChanged","inputs":[{"name":"role","type":"bytes32","indexed":true,"internalType":"bytes32"},{"name":"previousAdminRole","type":"bytes32","indexed":true,"internalType":"bytes32"},{"name":"newAdminRole","type":"bytes32","indexed":true,"internalType":"bytes32"}],"anonymous":false},{"type":"event","name":"RoleGranted","inputs":[{"name":"role","type":"bytes32","indexed":true,"internalType":"bytes32"},{"name":"account","type":"address","indexed":true,"internalType":"address"},{"name":"sender","type":"address","indexed":true,"internalType":"address"}],"anonymous":false},{"type":"event","name":"RoleRevoked","inputs":[{"name":"role","type":"bytes32","indexed":true,"internalType":"bytes32"},{"name":"account","type":"address","indexed":true,"internalType":"address"},{"name":"sender","type":"address","indexed":true,"internalType":"address"}],"anonymous":false},{"type":"event","name":"Unpaused","inputs":[{"name":"account","type":"address","indexed":false,"internalType":"address"}],"anonymous":false},{"type":"error","name":"AccessControlBadConfirmation","inputs":[]},{"type":"error","name":"AccessControlUnauthorizedAccount","inputs":[{"name":"account","type":"address","internalType":"address"},{"name":"neededRole","type":"bytes32","internalType":"bytes32"}]},{"type":"error","name":"EnforcedPause","inputs":[]},{"type":"error","name":"ExpectedPause","inputs":[]},{"type":"error","name":"InsufficientFunds","inputs":[]},{"type":"error","name":"InvalidPaymentTerms","inputs":[]},{"type":"error","name":"PaymentAlreadyExecuted","inputs":[]},{"type":"error","name":"PaymentExpired","inputs":[]},{"type":"error","name":"PaymentNotExpired","inputs":[]},{"type":"error","name":"ReentrancyGuardReentrantCall","inputs":[]},{"type":"error","name":"UnauthorizedCancellation","inputs":[]}],"bytecode":{"object":"0x608060405234801561000f575f5ffd5b50600180819055506100295f5f1b3361002f60201b60201c565b5061018e565b5f610040838361012460201b60201c565b61011a5760015f5f8581526020019081526020015f205f015f8473ffffffffffffffffffffffffffffffffffffffff1673ffffffffffffffffffffffffffffffffffffffff1681526020019081526020015f205f6101000a81548160ff0219169083151502179055506100b761018760201b60201c565b73ffffffffffffffffffffffffffffffffffffffff168273ffffffffffffffffffffffffffffffffffffffff16847f2f8788117e7eff1d82e926ec794901d17c78024a50270940304540a733656f0d60405160405180910390a46001905061011e565b5f90505b92915050565b5f5f5f8481526020019081526020015f205f015f8373ffffffffffffffffffffffffffffffffffffffff1673ffffffffffffffffffffffffffffffffffffffff1681526020019081526020015f205f9054906101000a900460ff16905092915050565b5f33905090565b6125828061019b5f395ff3fe608060405260043610610129575f3560e01c80638422927d116100aa578063a16500431161006e578063a1650043146103e8578063a217fddf14610424578063d547741f1461044e578063db2e21bc14610476578063e2a6ee481461048c578063e2c41dbc146104c857610129565b80638422927d146102f15780638456cb591461031957806387d817891461032f57806391d14854146103705780639672ba57146103ac57610129565b806336568abe116100f157806336568abe1461021d5780633f4ba83a146102455780635c975abb1461025b5780636c24a76f14610285578063763c8d31146102c157610129565b806301ffc9a71461012d578063155dd5ee14610169578063162a0cf814610191578063248a9ca3146101b95780632f2ff15d146101f5575b5f5ffd5b348015610138575f5ffd5b50610153600480360381019061014e9190611e21565b6104d2565b6040516101609190611e66565b60405180910390f35b348015610174575f5ffd5b5061018f600480360381019061018a9190611eb2565b61054b565b005b34801561019c575f5ffd5b506101b760048036038101906101b29190611eb2565b61075d565b005b3480156101c4575f5ffd5b506101df60048036038101906101da9190611f10565b610c83565b6040516101ec9190611f4a565b60405180910390f35b348015610200575f5ffd5b5061021b60048036038101906102169190611fbd565b610c9f565b005b348015610228575f5ffd5b50610243600480360381019061023e9190611fbd565b610cc1565b005b348015610250575f5ffd5b50610259610d3c565b005b348015610266575f5ffd5b5061026f610d53565b60405161027c9190611e66565b60405180910390f35b348015610290575f5ffd5b506102ab60048036038101906102a69190611ffb565b610d68565b6040516102b89190612035565b60405180910390f35b6102db60048036038101906102d691906120cc565b610dae565b6040516102e89190612035565b60405180910390f35b3480156102fc575f5ffd5b5061031760048036038101906103129190611eb2565b611193565b005b348015610324575f5ffd5b5061032d6113d6565b005b34801561033a575f5ffd5b5061035560048036038101906103509190611eb2565b6113ed565b60405161036796959493929190612178565b60405180910390f35b34801561037b575f5ffd5b5061039660048036038101906103919190611fbd565b61149b565b6040516103a39190611e66565b60405180910390f35b3480156103b7575f5ffd5b506103d260048036038101906103cd9190611ffb565b6114fe565b6040516103df9190612035565b60405180910390f35b3480156103f3575f5ffd5b5061040e60048036038101906104099190611eb2565b611513565b60405161041b9190612247565b60405180910390f35b34801561042f575f5ffd5b506104386116f6565b6040516104459190611f4a565b60405180910390f35b348015610459575f5ffd5b50610474600480360381019061046f9190611fbd565b6116fc565b005b348015610481575f5ffd5b5061048a61171e565b005b348015610497575f5ffd5b506104b260048036038101906104ad9190611eb2565b6117db565b6040516104bf9190611e66565b60405180910390f35b6104d06118b2565b005b5f7f7965db0b000000000000000000000000000000000000000000000000000000007bffffffffffffffffffffffffffffffffffffffffffffffffffffffff1916827bffffffffffffffffffffffffffffffffffffffffffffffffffffffff1916148061054457506105438261198e565b5b9050919050565b6105536119f7565b5f810361058c576040517f45d65d6900000000000000000000000000000000000000000000000000000000815260040160405180910390fd5b8060045f3373ffffffffffffffffffffffffffffffffffffffff1673ffffffffffffffffffffffffffffffffffffffff1681526020019081526020015f20541015610603576040517f356680b700000000000000000000000000000000000000000000000000000000815260040160405180910390fd5b8060045f3373ffffffffffffffffffffffffffffffffffffffff1673ffffffffffffffffffffffffffffffffffffffff1681526020019081526020015f205f82825461064f9190612294565b925050819055505f3373ffffffffffffffffffffffffffffffffffffffff16826108fc9060405161067f906122f4565b5f60405180830381858888f193505050503d805f81146106ba576040519150601f19603f3d011682016040523d82523d5f602084013e6106bf565b606091505b5050905080610703576040517f08c379a00000000000000000000000000000000000000000000000000000000081526004016106fa90612352565b60405180910390fd5b3373ffffffffffffffffffffffffffffffffffffffff167feaff4b37086828766ad3268786972c0cd24259d4c87a80f9d3963a3c3d999b0d836040516107499190612035565b60405180910390a25061075a611a3d565b50565b610765611a46565b61076d6119f7565b805f73ffffffffffffffffffffffffffffffffffffffff1660035f8381526020019081526020015f206001015f9054906101000a900473ffffffffffffffffffffffffffffffffffffffff1673ffffffffffffffffffffffffffffffffffffffff1603610806576040517f45d65d6900000000000000000000000000000000000000000000000000000000815260040160405180910390fd5b5f60035f8481526020019081526020015f2090505f60ff1681600101601c9054906101000a900460ff1660ff161461086a576040517ff04c7e5400000000000000000000000000000000000000000000000000000000815260040160405180910390fd5b8060010160149054906101000a900467ffffffffffffffff1667ffffffffffffffff164211156108c6576040517f664b28b000000000000000000000000000000000000000000000000000000000815260040160405180910390fd5b805f0160149054906101000a90046bffffffffffffffffffffffff166bffffffffffffffffffffffff1660045f836001015f9054906101000a900473ffffffffffffffffffffffffffffffffffffffff1673ffffffffffffffffffffffffffffffffffffffff1673ffffffffffffffffffffffffffffffffffffffff1681526020019081526020015f20541015610989576040517f356680b700000000000000000000000000000000000000000000000000000000815260040160405180910390fd5b806001015f9054906101000a900473ffffffffffffffffffffffffffffffffffffffff1673ffffffffffffffffffffffffffffffffffffffff163373ffffffffffffffffffffffffffffffffffffffff1614158015610a365750805f015f9054906101000a900473ffffffffffffffffffffffffffffffffffffffff1673ffffffffffffffffffffffffffffffffffffffff163373ffffffffffffffffffffffffffffffffffffffff1614155b15610a6d576040517f45d65d6900000000000000000000000000000000000000000000000000000000815260040160405180910390fd5b600181600101601c6101000a81548160ff021916908360ff160217905550805f0160149054906101000a90046bffffffffffffffffffffffff166bffffffffffffffffffffffff1660045f836001015f9054906101000a900473ffffffffffffffffffffffffffffffffffffffff1673ffffffffffffffffffffffffffffffffffffffff1673ffffffffffffffffffffffffffffffffffffffff1681526020019081526020015f205f828254610b239190612294565b925050819055505f815f015f9054906101000a900473ffffffffffffffffffffffffffffffffffffffff1673ffffffffffffffffffffffffffffffffffffffff16825f0160149054906101000a90046bffffffffffffffffffffffff166bffffffffffffffffffffffff166108fc90604051610b9e906122f4565b5f60405180830381858888f193505050503d805f8114610bd9576040519150601f19603f3d011682016040523d82523d5f602084013e610bde565b606091505b5050905080610c22576040517f08c379a0000000000000000000000000000000000000000000000000000000008152600401610c19906123ba565b60405180910390fd5b837f5838e0e9882ba51d885397e944dc4e853ca3ac94353d8c3e7c38c7e1fcf85f5e835f0160149054906101000a90046bffffffffffffffffffffffff16604051610c6d9190612411565b60405180910390a2505050610c80611a3d565b50565b5f5f5f8381526020019081526020015f20600101549050919050565b610ca882610c83565b610cb181611a87565b610cbb8383611a9b565b50505050565b610cc9611b84565b73ffffffffffffffffffffffffffffffffffffffff168173ffffffffffffffffffffffffffffffffffffffff1614610d2d576040517f6697b23200000000000000000000000000000000000000000000000000000000815260040160405180910390fd5b610d378282611b8b565b505050565b5f5f1b610d4881611a87565b610d50611c74565b50565b5f60025f9054906101000a900460ff16905090565b5f60045f8373ffffffffffffffffffffffffffffffffffffffff1673ffffffffffffffffffffffffffffffffffffffff1681526020019081526020015f20549050919050565b5f610db7611a46565b610dbf6119f7565b5f856bffffffffffffffffffffffff161480610e0657505f73ffffffffffffffffffffffffffffffffffffffff168473ffffffffffffffffffffffffffffffffffffffff16145b80610e3c57503373ffffffffffffffffffffffffffffffffffffffff168473ffffffffffffffffffffffffffffffffffffffff16145b15610e73576040517f45d65d6900000000000000000000000000000000000000000000000000000000815260040160405180910390fd5b428367ffffffffffffffff1611610eb6576040517f45d65d6900000000000000000000000000000000000000000000000000000000815260040160405180910390fd5b5f60055f8154610ec59061242a565b91905081905590506040518060c001604052808673ffffffffffffffffffffffffffffffffffffffff168152602001876bffffffffffffffffffffffff1681526020013373ffffffffffffffffffffffffffffffffffffffff1681526020018567ffffffffffffffff1681526020015f60ff1681526020018481525060035f8381526020019081526020015f205f820151815f015f6101000a81548173ffffffffffffffffffffffffffffffffffffffff021916908373ffffffffffffffffffffffffffffffffffffffff1602179055506020820151815f0160146101000a8154816bffffffffffffffffffffffff02191690836bffffffffffffffffffffffff1602179055506040820151816001015f6101000a81548173ffffffffffffffffffffffffffffffffffffffff021916908373ffffffffffffffffffffffffffffffffffffffff16021790555060608201518160010160146101000a81548167ffffffffffffffff021916908367ffffffffffffffff160217905550608082015181600101601c6101000a81548160ff021916908360ff16021790555060a082015181600201559050505f341115611119573460045f3373ffffffffffffffffffffffffffffffffffffffff1673ffffffffffffffffffffffffffffffffffffffff1681526020019081526020015f205f8282546110c39190612471565b925050819055503373ffffffffffffffffffffffffffffffffffffffff167f543ba50a5eec5e6178218e364b1d0f396157b3c8fa278522c2cb7fd99407d474346040516111109190612035565b60405180910390a25b8473ffffffffffffffffffffffffffffffffffffffff163373ffffffffffffffffffffffffffffffffffffffff16827fbca8aeacf1f38658b18930496eecdc82575bb54ced59ae5ddea3c2a221bc19aa896040516111779190612411565b60405180910390a48091505061118b611a3d565b949350505050565b61119b611a46565b6111a36119f7565b805f73ffffffffffffffffffffffffffffffffffffffff1660035f8381526020019081526020015f206001015f9054906101000a900473ffffffffffffffffffffffffffffffffffffffff1673ffffffffffffffffffffffffffffffffffffffff160361123c576040517f45d65d6900000000000000000000000000000000000000000000000000000000815260040160405180910390fd5b5f60035f8481526020019081526020015f2090505f60ff1681600101601c9054906101000a900460ff1660ff16146112a0576040517ff04c7e5400000000000000000000000000000000000000000000000000000000815260040160405180910390fd5b8060010160149054906101000a900467ffffffffffffffff1667ffffffffffffffff1642111580156113215750806001015f9054906101000a900473ffffffffffffffffffffffffffffffffffffffff1673ffffffffffffffffffffffffffffffffffffffff163373ffffffffffffffffffffffffffffffffffffffff1614155b15611358576040517fe3dfba4600000000000000000000000000000000000000000000000000000000815260040160405180910390fd5b600281600101601c6101000a81548160ff021916908360ff160217905550827f502ce3551b814ea7ee6ae28be466328ff4ac13e81262b9b426406a431c59cfb4825f0160149054906101000a90046bffffffffffffffffffffffff166040516113c19190612411565b60405180910390a250506113d3611a3d565b50565b5f5f1b6113e281611a87565b6113ea611cd5565b50565b6003602052805f5260405f205f91509050805f015f9054906101000a900473ffffffffffffffffffffffffffffffffffffffff1690805f0160149054906101000a90046bffffffffffffffffffffffff1690806001015f9054906101000a900473ffffffffffffffffffffffffffffffffffffffff16908060010160149054906101000a900467ffffffffffffffff169080600101601c9054906101000a900460ff16908060020154905086565b5f5f5f8481526020019081526020015f205f015f8373ffffffffffffffffffffffffffffffffffffffff1673ffffffffffffffffffffffffffffffffffffffff1681526020019081526020015f205f9054906101000a900460ff16905092915050565b6004602052805f5260405f205f915090505481565b6060815f73ffffffffffffffffffffffffffffffffffffffff1660035f8381526020019081526020015f206001015f9054906101000a900473ffffffffffffffffffffffffffffffffffffffff1673ffffffffffffffffffffffffffffffffffffffff16036115ae576040517f45d65d6900000000000000000000000000000000000000000000000000000000815260040160405180910390fd5b5f60035f8581526020019081526020015f20600101601c9054906101000a900460ff1690505f60ff168160ff160361161e576040518060400160405280600781526020017f50656e64696e67000000000000000000000000000000000000000000000000008152509250506116f0565b600160ff168160ff160361166a576040518060400160405280600881526020017f45786563757465640000000000000000000000000000000000000000000000008152509250506116f0565b600260ff168160ff16036116b6576040518060400160405280600981526020017f43616e63656c6c656400000000000000000000000000000000000000000000008152509250506116f0565b6040518060400160405280600781526020017f556e6b6e6f776e000000000000000000000000000000000000000000000000008152509250505b50919050565b5f5f1b81565b61170582610c83565b61170e81611a87565b6117188383611b8b565b50505050565b5f5f1b61172a81611a87565b5f4790505f3373ffffffffffffffffffffffffffffffffffffffff1682604051611753906122f4565b5f6040518083038185875af1925050503d805f811461178d576040519150601f19603f3d011682016040523d82523d5f602084013e611792565b606091505b50509050806117d6576040517f08c379a00000000000000000000000000000000000000000000000000000000081526004016117cd906124ee565b60405180910390fd5b505050565b5f815f73ffffffffffffffffffffffffffffffffffffffff1660035f8381526020019081526020015f206001015f9054906101000a900473ffffffffffffffffffffffffffffffffffffffff1673ffffffffffffffffffffffffffffffffffffffff1603611875576040517f45d65d6900000000000000000000000000000000000000000000000000000000815260040160405180910390fd5b60035f8481526020019081526020015f2060010160149054906101000a900467ffffffffffffffff1667ffffffffffffffff164211915050919050565b5f34036118eb576040517f45d65d6900000000000000000000000000000000000000000000000000000000815260040160405180910390fd5b3460045f3373ffffffffffffffffffffffffffffffffffffffff1673ffffffffffffffffffffffffffffffffffffffff1681526020019081526020015f205f8282546119379190612471565b925050819055503373ffffffffffffffffffffffffffffffffffffffff167f543ba50a5eec5e6178218e364b1d0f396157b3c8fa278522c2cb7fd99407d474346040516119849190612035565b60405180910390a2565b5f7f01ffc9a7000000000000000000000000000000000000000000000000000000007bffffffffffffffffffffffffffffffffffffffffffffffffffffffff1916827bffffffffffffffffffffffffffffffffffffffffffffffffffffffff1916149050919050565b600260015403611a33576040517f3ee5aeb500000000000000000000000000000000000000000000000000000000815260040160405180910390fd5b6002600181905550565b60018081905550565b611a4e610d53565b15611a85576040517fd93c066500000000000000000000000000000000000000000000000000000000815260040160405180910390fd5b565b611a9881611a93611b84565b611d37565b50565b5f611aa6838361149b565b611b7a5760015f5f8581526020019081526020015f205f015f8473ffffffffffffffffffffffffffffffffffffffff1673ffffffffffffffffffffffffffffffffffffffff1681526020019081526020015f205f6101000a81548160ff021916908315150217905550611b17611b84565b73ffffffffffffffffffffffffffffffffffffffff168273ffffffffffffffffffffffffffffffffffffffff16847f2f8788117e7eff1d82e926ec794901d17c78024a50270940304540a733656f0d60405160405180910390a460019050611b7e565b5f90505b92915050565b5f33905090565b5f611b96838361149b565b15611c6a575f5f5f8581526020019081526020015f205f015f8473ffffffffffffffffffffffffffffffffffffffff1673ffffffffffffffffffffffffffffffffffffffff1681526020019081526020015f205f6101000a81548160ff021916908315150217905550611c07611b84565b73ffffffffffffffffffffffffffffffffffffffff168273ffffffffffffffffffffffffffffffffffffffff16847ff6391f5c32d9c69d2a47ea670b442974b53935d1edc7fd64eb21e047a839171b60405160405180910390a460019050611c6e565b5f90505b92915050565b611c7c611d88565b5f60025f6101000a81548160ff0219169083151502179055507f5db9ee0a495bf2e6ff9c91a7834c1ba4fdd244a5e8aa4e537bd38aeae4b073aa611cbe611b84565b604051611ccb919061250c565b60405180910390a1565b611cdd611a46565b600160025f6101000a81548160ff0219169083151502179055507f62e78cea01bee320cd4e420270b5ea74000d11b0c9f74754ebdbfc544b05a258611d20611b84565b604051611d2d919061250c565b60405180910390a1565b611d41828261149b565b611d845780826040517fe2517d3f000000000000000000000000000000000000000000000000000000008152600401611d7b929190612525565b60405180910390fd5b5050565b611d90610d53565b611dc6576040517f8dfc202b00000000000000000000000000000000000000000000000000000000815260040160405180910390fd5b565b5f5ffd5b5f7fffffffff0000000000000000000000000000000000000000000000000000000082169050919050565b611e0081611dcc565b8114611e0a575f5ffd5b50565b5f81359050611e1b81611df7565b92915050565b5f60208284031215611e3657611e35611dc8565b5b5f611e4384828501611e0d565b91505092915050565b5f8115159050919050565b611e6081611e4c565b82525050565b5f602082019050611e795f830184611e57565b92915050565b5f819050919050565b611e9181611e7f565b8114611e9b575f5ffd5b50565b5f81359050611eac81611e88565b92915050565b5f60208284031215611ec757611ec6611dc8565b5b5f611ed484828501611e9e565b91505092915050565b5f819050919050565b611eef81611edd565b8114611ef9575f5ffd5b50565b5f81359050611f0a81611ee6565b92915050565b5f60208284031215611f2557611f24611dc8565b5b5f611f3284828501611efc565b91505092915050565b611f4481611edd565b82525050565b5f602082019050611f5d5f830184611f3b565b92915050565b5f73ffffffffffffffffffffffffffffffffffffffff82169050919050565b5f611f8c82611f63565b9050919050565b611f9c81611f82565b8114611fa6575f5ffd5b50565b5f81359050611fb781611f93565b92915050565b5f5f60408385031215611fd357611fd2611dc8565b5b5f611fe085828601611efc565b9250506020611ff185828601611fa9565b9150509250929050565b5f602082840312156120105761200f611dc8565b5b5f61201d84828501611fa9565b91505092915050565b61202f81611e7f565b82525050565b5f6020820190506120485f830184612026565b92915050565b5f6bffffffffffffffffffffffff82169050919050565b61206e8161204e565b8114612078575f5ffd5b50565b5f8135905061208981612065565b92915050565b5f67ffffffffffffffff82169050919050565b6120ab8161208f565b81146120b5575f5ffd5b50565b5f813590506120c6816120a2565b92915050565b5f5f5f5f608085870312156120e4576120e3611dc8565b5b5f6120f18782880161207b565b945050602061210287828801611fa9565b9350506040612113878288016120b8565b925050606061212487828801611efc565b91505092959194509250565b61213981611f82565b82525050565b6121488161204e565b82525050565b6121578161208f565b82525050565b5f60ff82169050919050565b6121728161215d565b82525050565b5f60c08201905061218b5f830189612130565b612198602083018861213f565b6121a56040830187612130565b6121b2606083018661214e565b6121bf6080830185612169565b6121cc60a0830184611f3b565b979650505050505050565b5f81519050919050565b5f82825260208201905092915050565b8281835e5f83830152505050565b5f601f19601f8301169050919050565b5f612219826121d7565b61222381856121e1565b93506122338185602086016121f1565b61223c816121ff565b840191505092915050565b5f6020820190508181035f83015261225f818461220f565b905092915050565b7f4e487b71000000000000000000000000000000000000000000000000000000005f52601160045260245ffd5b5f61229e82611e7f565b91506122a983611e7f565b92508282039050818111156122c1576122c0612267565b5b92915050565b5f81905092915050565b50565b5f6122df5f836122c7565b91506122ea826122d1565b5f82019050919050565b5f6122fe826122d4565b9150819050919050565b7f5769746864726177616c206661696c65640000000000000000000000000000005f82015250565b5f61233c6011836121e1565b915061234782612308565b602082019050919050565b5f6020820190508181035f83015261236981612330565b9050919050565b7f5061796d656e74207472616e73666572206661696c65640000000000000000005f82015250565b5f6123a46017836121e1565b91506123af82612370565b602082019050919050565b5f6020820190508181035f8301526123d181612398565b9050919050565b5f819050919050565b5f6123fb6123f66123f18461204e565b6123d8565b611e7f565b9050919050565b61240b816123e1565b82525050565b5f6020820190506124245f830184612402565b92915050565b5f61243482611e7f565b91507fffffffffffffffffffffffffffffffffffffffffffffffffffffffffffffffff820361246657612465612267565b5b600182019050919050565b5f61247b82611e7f565b915061248683611e7f565b925082820190508082111561249e5761249d612267565b5b92915050565b7f456d657267656e6379207769746864726177616c206661696c656400000000005f82015250565b5f6124d8601b836121e1565b91506124e3826124a4565b602082019050919050565b5f6020820190508181035f830152612505816124cc565b9050919050565b5f60208201905061251f5f830184612130565b92915050565b5f6040820190506125385f830185612130565b6125456020830184611f3b565b939250505056fea2646970667358221220527f3c0b85a96c27fd70ef164a7363f5dc1867857b5767cc838455737635642764736f6c634300081e0033","linkReferences":{}},"methodIdentifiers":{"DEFAULT_ADMIN_ROLE()":"a217fddf","cancelPayment(uint256)":"8422927d","createPayment(uint96,address,uint64,bytes32)":"763c8d31","depositFunds()":"e2c41dbc","emergencyWithdraw()":"db2e21bc","escrowBalances(address)":"9672ba57","executePayment(uint256)":"162a0cf8","getAvailableBalance(address)":"6c24a76f","getPaymentStatus(uint256)":"a1650043","getRoleAdmin(bytes32)":"248a9ca3","grantRole(bytes32,address)":"2f2ff15d","hasRole(bytes32,address)":"91d14854","isPaymentExpired(uint256)":"e2a6ee48","pause()":"8456cb59","paused()":"5c975abb","payments(uint256)":"87d81789","renounceRole(bytes32,address)":"36568abe","revokeRole(bytes32,address)":"d547741f","supportsInterface(bytes4)":"01ffc9a7","unpause()":"3f4ba83a","withdrawFunds(uint256)":"155dd5ee"},"id":29}