{"abi":[{"type":"constructor","inputs":[],"stateMutability":"nonpayable"},{"type":"function","name":"DEFAULT_ADMIN_ROLE","inputs":[],"outputs":[{"name":"","type":"bytes32","internalType":"bytes32"}],"stateMutability":"view"},{"type":"function","name":"addProductCertification","inputs":[{"name":"productId","type":"uint256","internalType":"uint256"},{"name":"certification","type":"string","internalType":"string"}],"outputs":[],"stateMutability":"nonpayable"},{"type":"function","name":"batchVerifyProducts","inputs":[{"name":"productIds","type":"uint256[]","internalType":"uint256[]"}],"outputs":[{"name":"summaries","type":"tuple[]","internalType":"struct ConsumerInterface.ProductSummary[]","components":[{"name":"productId","type":"uint256","internalType":"uint256"},{"name":"farmer","type":"address","internalType":"address"},{"name":"currentPrice","type":"uint96","internalType":"uint96"},{"name":"harvestTime","type":"uint64","internalType":"uint64"},{"name":"quantity","type":"uint32","internalType":"uint32"},{"name":"qualityScore","type":"uint16","internalType":"uint16"},{"name":"currentStage","type":"uint8","internalType":"uint8"},{"name":"isAuthentic","type":"bool","internalType":"bool"}]}],"stateMutability":"view"},{"type":"function","name":"configureContracts","inputs":[{"name":"_supplyChainContract","type":"address","internalType":"address"},{"name":"_qrCodeRegistry","type":"address","internalType":"address"},{"name":"_pricingContract","type":"address","internalType":"address"}],"outputs":[],"stateMutability":"nonpayable"},{"type":"function","name":"consumerHistory","inputs":[{"name":"","type":"address","internalType":"address"},{"name":"","type":"uint256","internalType":"uint256"}],"outputs":[{"name":"","type":"uint256","internalType":"uint256"}],"stateMutability":"view"},{"type":"function","name":"farmerNames","inputs":[{"name":"","type":"address","internalType":"address"}],"outputs":[{"name":"","type":"string","internalType":"string"}],"stateMutability":"view"},{"type":"function","name":"getConsumerHistory","inputs":[{"name":"consumer","type":"address","internalType":"address"}],"outputs":[{"name":"productIds","type":"uint256[]","internalType":"uint256[]"}],"stateMutability":"view"},{"type":"function","name":"getFarmerReputation","inputs":[{"name":"farmer","type":"address","internalType":"address"}],"outputs":[{"name":"reputation","type":"tuple","internalType":"struct ConsumerInterface.FarmerReputation","components":[{"name":"farmerAddress","type":"address","internalType":"address"},{"name":"registrationDate","type":"uint64","internalType":"uint64"},{"name":"totalSales","type":"uint32","internalType":"uint32"},{"name":"trustScore","type":"uint16","internalType":"uint16"},{"name":"isVerified","type":"bool","internalType":"bool"}]}],"stateMutability":"view"},{"type":"function","name":"getProductJourney","inputs":[{"name":"productId","type":"uint256","internalType":"uint256"}],"outputs":[{"name":"stages","type":"string[]","internalType":"string[]"},{"name":"timestamps","type":"uint256[]","internalType":"uint256[]"},{"name":"qualityScores","type":"uint256[]","internalType":"uint256[]"}],"stateMutability":"view"},{"type":"function","name":"getProductMetrics","inputs":[{"name":"productId","type":"uint256","internalType":"uint256"}],"outputs":[{"name":"views","type":"uint256","internalType":"uint256"},{"name":"certifications","type":"string[]","internalType":"string[]"}],"stateMutability":"view"},{"type":"function","name":"getRoleAdmin","inputs":[{"name":"role","type":"bytes32","internalType":"bytes32"}],"outputs":[{"name":"","type":"bytes32","internalType":"bytes32"}],"stateMutability":"view"},{"type":"function","name":"grantRole","inputs":[{"name":"role","type":"bytes32","internalType":"bytes32"},{"name":"account","type":"address","internalType":"address"}],"outputs":[],"stateMutability":"nonpayable"},{"type":"function","name":"hasRole","inputs":[{"name":"role","type":"bytes32","internalType":"bytes32"},{"name":"account","type":"address","internalType":"address"}],"outputs":[{"name":"","type":"bool","internalType":"bool"}],"stateMutability":"view"},{"type":"function","name":"pricingContract","inputs":[],"outputs":[{"name":"","type":"address","internalType":"contract IFairPricingContract"}],"stateMutability":"view"},{"type":"function","name":"productCertifications","inputs":[{"name":"","type":"uint256","internalType":"uint256"},{"name":"","type":"uint256","internalType":"uint256"}],"outputs":[{"name":"","type":"string","internalType":"string"}],"stateMutability":"view"},{"type":"function","name":"productNames","inputs":[{"name":"","type":"uint256","internalType":"uint256"}],"outputs":[{"name":"","type":"string","internalType":"string"}],"stateMutability":"view"},{"type":"function","name":"productViews","inputs":[{"name":"","type":"uint256","internalType":"uint256"}],"outputs":[{"name":"","type":"uint256","internalType":"uint256"}],"stateMutability":"view"},{"type":"function","name":"qrCodeRegistry","inputs":[],"outputs":[{"name":"","type":"address","internalType":"contract IQRCodeRegistry"}],"stateMutability":"view"},{"type":"function","name":"renounceRole","inputs":[{"name":"role","type":"bytes32","internalType":"bytes32"},{"name":"callerConfirmation","type":"address","internalType":"address"}],"outputs":[],"stateMutability":"nonpayable"},{"type":"function","name":"revokeRole","inputs":[{"name":"role","type":"bytes32","internalType":"bytes32"},{"name":"account","type":"address","internalType":"address"}],"outputs":[],"stateMutability":"nonpayable"},{"type":"function","name":"setFarmerName","inputs":[{"name":"farmer","type":"address","internalType":"address"},{"name":"name","type":"string","internalType":"string"}],"outputs":[],"stateMutability":"nonpayable"},{"type":"function","name":"setProductName","inputs":[{"name":"productId","type":"uint256","internalType":"uint256"},{"name":"name","type":"string","internalType":"string"}],"outputs":[],"stateMutability":"nonpayable"},{"type":"function","name":"supplyChainContract","inputs":[],"outputs":[{"name":"","type":"address","internalType":"contract IAgricultureSupplyChain"}],"stateMutability":"view"},{"type":"function","name":"supportsInterface","inputs":[{"name":"interfaceId","type":"bytes4","internalType":"bytes4"}],"outputs":[{"name":"","type":"bool","internalType":"bool"}],"stateMutability":"view"},{"type":"function","name":"totalVerifications","inputs":[],"outputs":[{"name":"","type":"uint256","internalType":"uint256"}],"stateMutability":"view"},{"type":"function","name":"verifyByQRCode","inputs":[{"name":"qrHash","type":"bytes32","internalType":"bytes32"}],"outputs":[{"name":"result","type":"tuple","internalType":"struct ConsumerInterface.VerificationResult","components":[{"name":"isValid","type":"bool","internalType":"bool"},{"name":"status","type":"string","internalType":"string"},{"name":"productId","type":"uint256","internalType":"uint256"},{"name":"farmerName","type":"string","internalType":"string"},{"name":"rating","type":"uint256","internalType":"uint256"}]}],"stateMutability":"nonpayable"},{"type":"function","name":"verifyProduct","inputs":[{"name":"productId","type":"uint256","internalType":"uint256"}],"outputs":[{"name":"summary","type":"tuple","internalType":"struct ConsumerInterface.ProductSummary","components":[{"name":"productId","type":"uint256","internalType":"uint256"},{"name":"farmer","type":"address","internalType":"address"},{"name":"currentPrice","type":"uint96","internalType":"uint96"},{"name":"harvestTime","type":"uint64","internalType":"uint64"},{"name":"quantity","type":"uint32","internalType":"uint32"},{"name":"qualityScore","type":"uint16","internalType":"uint16"},{"name":"currentStage","type":"uint8","internalType":"uint8"},{"name":"isAuthentic","type":"bool","internalType":"bool"}]}],"stateMutability":"nonpayable"},{"type":"event","name":"ConsumerEducated","inputs":[{"name":"consumer","type":"address","indexed":true,"internalType":"address"},{"name":"productId","type":"uint256","indexed":false,"internalType":"uint256"},{"name":"educationTopic","type":"string","indexed":false,"internalType":"string"}],"anonymous":false},{"type":"event","name":"ProductVerified","inputs":[{"name":"productId","type":"uint256","indexed":true,"internalType":"uint256"},{"name":"consumer","type":"address","indexed":true,"internalType":"address"},{"name":"timestamp","type":"uint256","indexed":false,"internalType":"uint256"}],"anonymous":false},{"type":"event","name":"QRCodeScanned","inputs":[{"name":"qrHash","type":"bytes32","indexed":true,"internalType":"bytes32"},{"name":"consumer","type":"address","indexed":true,"internalType":"address"},{"name":"isValid","type":"bool","indexed":false,"internalType":"bool"}],"anonymous":false},{"type":"event","name":"RoleAdminChanged","inputs":[{"name":"role","type":"bytes32","indexed":true,"internalType":"bytes32"},{"name":"previousAdminRole","type":"bytes32","indexed":true,"internalType":"bytes32"},{"name":"newAdminRole","type":"bytes32","indexed":true,"internalType":"bytes32"}],"anonymous":false},{"type":"event","name":"RoleGranted","inputs":[{"name":"role","type":"bytes32","indexed":true,"internalType":"bytes32"},{"name":"account","type":"address","indexed":true,"internalType":"address"},{"name":"sender","type":"address","indexed":true,"internalType":"address"}],"anonymous":false},{"type":"event","name":"RoleRevoked","inputs":[{"name":"role","type":"bytes32","indexed":true,"internalType":"bytes32"},{"name":"account","type":"address","indexed":true,"internalType":"address"},{"name":"sender","type":"address","indexed":true,"internalType":"address"}],"anonymous":false},{"type":"error","name":"AccessControlBadConfirmation","inputs":[]},{"type":"error","name":"AccessControlUnauthorizedAccount","inputs":[{"name":"account","type":"address","internalType":"address"},{"name":"neededRole","type":"bytes32","internalType":"bytes32"}]},{"type":"error","name":"ContractNotConfigured","inputs":[]},{"type":"error","name":"InvalidQRCode","inputs":[]},{"type":"error","name":"ProductNotFound","inputs":[]},{"type":"error","name":"ReentrancyGuardReentrantCall","inputs":[]}],"bytecode":{"object":"0x608060405234801561000f575f5ffd5b50600180819055506100295f5f1b3361002f60201b60201c565b5061018e565b5f610040838361012460201b60201c565b61011a5760015f5f8581526020019081526020015f205f015f8473ffffffffffffffffffffffffffffffffffffffff1673ffffffffffffffffffffffffffffffffffffffff1681526020019081526020015f205f6101000a81548160ff0219169083151502179055506100b761018760201b60201c565b73ffffffffffffffffffffffffffffffffffffffff168273ffffffffffffffffffffffffffffffffffffffff16847f2f8788117e7eff1d82e926ec794901d17c78024a50270940304540a733656f0d60405160405180910390a46001905061011e565b5f90505b92915050565b5f5f5f8481526020019081526020015f205f015f8373ffffffffffffffffffffffffffffffffffffffff1673ffffffffffffffffffffffffffffffffffffffff1681526020019081526020015f205f9054906101000a900460ff16905092915050565b5f33905090565b6141338061019b5f395ff3fe608060405234801561000f575f5ffd5b50600436106101a7575f3560e01c80635f777689116100f7578063ac90c14011610095578063d547741f1161006f578063d547741f1461052a578063d8305fd414610546578063e595028214610578578063fbdebe97146105a8576101a7565b8063ac90c140146104ab578063bf009230146104c9578063ceba6d6f146104f9576101a7565b80639c35c87b116100d15780639c35c87b1461040f5780639fa3a5701461043f578063a217fddf1461046f578063a269cc7a1461048d576101a7565b80635f777689146103935780638d112341146103af57806391d14854146103df576101a7565b80632f2ff15d11610164578063437b21851161013e578063437b2185146102fb5780634d973e5b14610317578063524e8462146103475780635afce8f214610377576101a7565b80632f2ff15d146102a557806336568abe146102c1578063372ee0f4146102dd576101a7565b806301ffc9a7146101ab578063076cf75e146101db578063129ff9771461020b578063146c24f71461023b57806314a8eb4014610259578063248a9ca314610275575b5f5ffd5b6101c560048036038101906101c091906128c3565b6105d8565b6040516101d29190612908565b60405180910390f35b6101f560048036038101906101f09190612954565b610651565b604051610202919061298e565b60405180910390f35b610225600480360381019061022091906129a7565b610666565b6040516102329190612a55565b60405180910390f35b610243610717565b6040516102509190612aef565b60405180910390f35b610273600480360381019061026e9190612b69565b61073c565b005b61028f600480360381019061028a9190612bf9565b610798565b60405161029c9190612c33565b60405180910390f35b6102bf60048036038101906102ba9190612c87565b6107b4565b005b6102db60048036038101906102d69190612c87565b6107d6565b005b6102e5610851565b6040516102f29190612ce5565b60405180910390f35b61031560048036038101906103109190612b69565b610876565b005b610331600480360381019061032c9190612cfe565b6108a9565b60405161033e9190612a55565b60405180910390f35b610361600480360381019061035c9190612954565b610944565b60405161036e9190612e93565b60405180910390f35b610391600480360381019061038c9190612ead565b610d06565b005b6103ad60048036038101906103a89190612efd565b610dd8565b005b6103c960048036038101906103c49190612cfe565b610e37565b6040516103d69190612fc0565b60405180910390f35b6103f960048036038101906103f49190612c87565b611078565b6040516104069190612908565b60405180910390f35b61042960048036038101906104249190612bf9565b6110db565b604051610436919061309b565b60405180910390f35b61045960048036038101906104549190612cfe565b6116c8565b6040516104669190613163565b60405180910390f35b61047761175b565b6040516104849190612c33565b60405180910390f35b610495611761565b6040516104a291906131a3565b60405180910390f35b6104b3611786565b6040516104c0919061298e565b60405180910390f35b6104e360048036038101906104de91906131bc565b61178c565b6040516104f0919061298e565b60405180910390f35b610513600480360381019061050e9190612954565b6117b7565b6040516105219291906132b5565b60405180910390f35b610544600480360381019061053f9190612c87565b6118b4565b005b610560600480360381019061055b9190612954565b6118d6565b60405161056f939291906132e3565b60405180910390f35b610592600480360381019061058d9190612954565b611cc7565b60405161059f9190612a55565b60405180910390f35b6105c260048036038101906105bd9190613382565b611d62565b6040516105cf9190613516565b60405180910390f35b5f7f7965db0b000000000000000000000000000000000000000000000000000000007bffffffffffffffffffffffffffffffffffffffffffffffffffffffff1916827bffffffffffffffffffffffffffffffffffffffffffffffffffffffff1916148061064a5750610649826120b9565b5b9050919050565b6007602052805f5260405f205f915090505481565b6008602052815f5260405f20818154811061067f575f80fd5b905f5260205f20015f9150915050805461069890613563565b80601f01602080910402602001604051908101604052809291908181526020018280546106c490613563565b801561070f5780601f106106e65761010080835404028352916020019161070f565b820191905f5260205f20905b8154815290600101906020018083116106f257829003601f168201915b505050505081565b60035f9054906101000a900473ffffffffffffffffffffffffffffffffffffffff1681565b5f5f1b61074881612122565b60085f8581526020019081526020015f20838390918060018154018082558091505060019003905f5260205f20015f909192909192909192909192509182610791929190613761565b5050505050565b5f5f5f8381526020019081526020015f20600101549050919050565b6107bd82610798565b6107c681612122565b6107d08383612136565b50505050565b6107de61221f565b73ffffffffffffffffffffffffffffffffffffffff168173ffffffffffffffffffffffffffffffffffffffff1614610842576040517f6697b23200000000000000000000000000000000000000000000000000000000815260040160405180910390fd5b61084c8282612226565b505050565b60045f9054906101000a900473ffffffffffffffffffffffffffffffffffffffff1681565b5f5f1b61088281612122565b828260055f8781526020019081526020015f2091826108a2929190613761565b5050505050565b6006602052805f5260405f205f9150905080546108c590613563565b80601f01602080910402602001604051908101604052809291908181526020018280546108f190613563565b801561093c5780601f106109135761010080835404028352916020019161093c565b820191905f5260205f20905b81548152906001019060200180831161091f57829003601f168201915b505050505081565b61094c61275f565b61095461230f565b5f73ffffffffffffffffffffffffffffffffffffffff1660025f9054906101000a900473ffffffffffffffffffffffffffffffffffffffff1673ffffffffffffffffffffffffffffffffffffffff1614806109fb57505f73ffffffffffffffffffffffffffffffffffffffff1660035f9054906101000a900473ffffffffffffffffffffffffffffffffffffffff1673ffffffffffffffffffffffffffffffffffffffff16145b80610a5257505f73ffffffffffffffffffffffffffffffffffffffff1660045f9054906101000a900473ffffffffffffffffffffffffffffffffffffffff1673ffffffffffffffffffffffffffffffffffffffff16145b15610a89576040517f16e0e48000000000000000000000000000000000000000000000000000000000815260040160405180910390fd5b5f5f5f5f5f5f60025f9054906101000a900473ffffffffffffffffffffffffffffffffffffffff1673ffffffffffffffffffffffffffffffffffffffff1663b9db15b4896040518263ffffffff1660e01b8152600401610ae9919061298e565b60c060405180830381865afa158015610b04573d5f5f3e3d5ffd5b505050506040513d601f19601f82011682018060405250810190610b28919061392f565b9550955095509550955095505f866fffffffffffffffffffffffffffffffff1603610b7f576040517f79de4af500000000000000000000000000000000000000000000000000000000815260040160405180910390fd5b5f610b8989612355565b90506040518061010001604052808a81526020018473ffffffffffffffffffffffffffffffffffffffff168152602001856bffffffffffffffffffffffff1681526020018767ffffffffffffffff1681526020018663ffffffff1681526020018261ffff1681526020018360ff16815260200160011515815250975060095f3373ffffffffffffffffffffffffffffffffffffffff1673ffffffffffffffffffffffffffffffffffffffff1681526020019081526020015f2089908060018154018082558091505060019003905f5260205f20015f909190919091505560075f8a81526020019081526020015f205f815480929190610c87906139e5565b9190505550600a5f815480929190610c9e906139e5565b91905055503373ffffffffffffffffffffffffffffffffffffffff16897fa913def5e0a2f15c60fa63fe23979256a1ff8d6d893238336fa0683b9951266d42604051610cea919061298e565b60405180910390a350505050505050610d0161243e565b919050565b5f5f1b610d1281612122565b8360025f6101000a81548173ffffffffffffffffffffffffffffffffffffffff021916908373ffffffffffffffffffffffffffffffffffffffff1602179055508260035f6101000a81548173ffffffffffffffffffffffffffffffffffffffff021916908373ffffffffffffffffffffffffffffffffffffffff1602179055508160045f6101000a81548173ffffffffffffffffffffffffffffffffffffffff021916908373ffffffffffffffffffffffffffffffffffffffff16021790555050505050565b5f5f1b610de481612122565b828260065f8773ffffffffffffffffffffffffffffffffffffffff1673ffffffffffffffffffffffffffffffffffffffff1681526020019081526020015f209182610e30929190613761565b5050505050565b610e3f6127d9565b5f73ffffffffffffffffffffffffffffffffffffffff1660025f9054906101000a900473ffffffffffffffffffffffffffffffffffffffff1673ffffffffffffffffffffffffffffffffffffffff161480610ee657505f73ffffffffffffffffffffffffffffffffffffffff1660035f9054906101000a900473ffffffffffffffffffffffffffffffffffffffff1673ffffffffffffffffffffffffffffffffffffffff16145b80610f3d57505f73ffffffffffffffffffffffffffffffffffffffff1660045f9054906101000a900473ffffffffffffffffffffffffffffffffffffffff1673ffffffffffffffffffffffffffffffffffffffff16145b15610f74576040517f16e0e48000000000000000000000000000000000000000000000000000000000815260040160405180910390fd5b5f5f5f5f60045f9054906101000a900473ffffffffffffffffffffffffffffffffffffffff1673ffffffffffffffffffffffffffffffffffffffff16634410b6b6876040518263ffffffff1660e01b8152600401610fd29190613a3b565b60a060405180830381865afa158015610fed573d5f5f3e3d5ffd5b505050506040513d601f19601f820116820180604052508101906110119190613aa8565b9450945050935093506040518060a001604052808773ffffffffffffffffffffffffffffffffffffffff1681526020018267ffffffffffffffff1681526020018463ffffffff1681526020018561ffff168152602001831515815250945050505050919050565b5f5f5f8481526020019081526020015f205f015f8373ffffffffffffffffffffffffffffffffffffffff1673ffffffffffffffffffffffffffffffffffffffff1681526020019081526020015f205f9054906101000a900460ff16905092915050565b6110e361282f565b6110eb61230f565b5f73ffffffffffffffffffffffffffffffffffffffff1660025f9054906101000a900473ffffffffffffffffffffffffffffffffffffffff1673ffffffffffffffffffffffffffffffffffffffff16148061119257505f73ffffffffffffffffffffffffffffffffffffffff1660035f9054906101000a900473ffffffffffffffffffffffffffffffffffffffff1673ffffffffffffffffffffffffffffffffffffffff16145b806111e957505f73ffffffffffffffffffffffffffffffffffffffff1660045f9054906101000a900473ffffffffffffffffffffffffffffffffffffffff1673ffffffffffffffffffffffffffffffffffffffff16145b15611220576040517f16e0e48000000000000000000000000000000000000000000000000000000000815260040160405180910390fd5b60035f9054906101000a900473ffffffffffffffffffffffffffffffffffffffff1673ffffffffffffffffffffffffffffffffffffffff16639b7d37f1836040518263ffffffff1660e01b815260040161127a9190612c33565b602060405180830381865afa158015611295573d5f5f3e3d5ffd5b505050506040513d601f19601f820116820180604052508101906112b99190613b1f565b61137f573373ffffffffffffffffffffffffffffffffffffffff16827fff06513460e07e5fa7fca8906763eb7eaeb9bf7501e3cd77d696a18f331b83225f6040516113049190612908565b60405180910390a36040518060a001604052805f151581526020016040518060400160405280601b81526020017f496e76616c6964206f7220696e61637469766520515220636f6465000000000081525081526020015f815260200160405180602001604052805f81525081526020015f81525090506116bb565b5f60035f9054906101000a900473ffffffffffffffffffffffffffffffffffffffff1673ffffffffffffffffffffffffffffffffffffffff1663105b47c9846040518263ffffffff1660e01b81526004016113da9190612c33565b602060405180830381865afa1580156113f5573d5f5f3e3d5ffd5b505050506040513d601f19601f820116820180604052508101906114199190613b5e565b90505f3073ffffffffffffffffffffffffffffffffffffffff1663524e8462836040518263ffffffff1660e01b8152600401611455919061298e565b610100604051808303815f875af1158015611472573d5f5f3e3d5ffd5b505050506040513d601f19601f820116820180604052508101906114969190613c9f565b90505f5f60045f9054906101000a900473ffffffffffffffffffffffffffffffffffffffff1673ffffffffffffffffffffffffffffffffffffffff16634410b6b684602001516040518263ffffffff1660e01b81526004016114f89190613a3b565b60a060405180830381865afa158015611513573d5f5f3e3d5ffd5b505050506040513d601f19601f820116820180604052508101906115379190613aa8565b509350505091506040518060a0016040528060011515815260200161155f8560c00151612447565b815260200185815260200160065f866020015173ffffffffffffffffffffffffffffffffffffffff1673ffffffffffffffffffffffffffffffffffffffff1681526020019081526020015f2080546115b690613563565b80601f01602080910402602001604051908101604052809291908181526020018280546115e290613563565b801561162d5780601f106116045761010080835404028352916020019161162d565b820191905f5260205f20905b81548152906001019060200180831161161057829003601f168201915b5050505050815260200182611642575f61165d565b6113886064856116529190613ccb565b61165c9190613d34565b5b61ffff1681525094503373ffffffffffffffffffffffffffffffffffffffff16867fff06513460e07e5fa7fca8906763eb7eaeb9bf7501e3cd77d696a18f331b832260016040516116ae9190612908565b60405180910390a3505050505b6116c361243e565b919050565b606060095f8373ffffffffffffffffffffffffffffffffffffffff1673ffffffffffffffffffffffffffffffffffffffff1681526020019081526020015f2080548060200260200160405190810160405280929190818152602001828054801561174f57602002820191905f5260205f20905b81548152602001906001019080831161173b575b50505050509050919050565b5f5f1b81565b60025f9054906101000a900473ffffffffffffffffffffffffffffffffffffffff1681565b600a5481565b6009602052815f5260405f2081815481106117a5575f80fd5b905f5260205f20015f91509150505481565b5f606060075f8481526020019081526020015f205460085f8581526020019081526020015f2080805480602002602001604051908101604052809291908181526020015f905b828210156118a5578382905f5260205f2001805461181a90613563565b80601f016020809104026020016040519081016040528092919081815260200182805461184690613563565b80156118915780601f1061186857610100808354040283529160200191611891565b820191905f5260205f20905b81548152906001019060200180831161187457829003601f168201915b5050505050815260200190600101906117fd565b50505050905091509150915091565b6118bd82610798565b6118c681612122565b6118d08383612226565b50505050565b60608060605f73ffffffffffffffffffffffffffffffffffffffff1660025f9054906101000a900473ffffffffffffffffffffffffffffffffffffffff1673ffffffffffffffffffffffffffffffffffffffff16148061198257505f73ffffffffffffffffffffffffffffffffffffffff1660035f9054906101000a900473ffffffffffffffffffffffffffffffffffffffff1673ffffffffffffffffffffffffffffffffffffffff16145b806119d957505f73ffffffffffffffffffffffffffffffffffffffff1660045f9054906101000a900473ffffffffffffffffffffffffffffffffffffffff1673ffffffffffffffffffffffffffffffffffffffff16145b15611a10576040517f16e0e48000000000000000000000000000000000000000000000000000000000815260040160405180910390fd5b5f5f5f5f5f60025f9054906101000a900473ffffffffffffffffffffffffffffffffffffffff1673ffffffffffffffffffffffffffffffffffffffff1663b9db15b48a6040518263ffffffff1660e01b8152600401611a6f919061298e565b60c060405180830381865afa158015611a8a573d5f5f3e3d5ffd5b505050506040513d601f19601f82011682018060405250810190611aae919061392f565b95509550955095509550505f8567ffffffffffffffff1603611afc576040517f79de4af500000000000000000000000000000000000000000000000000000000815260040160405180910390fd5b600181611b099190613d64565b60ff1667ffffffffffffffff811115611b2557611b2461359d565b5b604051908082528060200260200182016040528015611b5857816020015b6060815260200190600190039081611b435790505b509750600181611b689190613d64565b60ff1667ffffffffffffffff811115611b8457611b8361359d565b5b604051908082528060200260200182016040528015611bb25781602001602082028036833780820191505090505b509650600181611bc29190613d64565b60ff1667ffffffffffffffff811115611bde57611bdd61359d565b5b604051908082528060200260200182016040528015611c0c5781602001602082028036833780820191505090505b5095505f5f90505b8160ff168160ff1611611cba57611c2a81612447565b898260ff1681518110611c4057611c3f613d98565b5b60200260200101819052508567ffffffffffffffff16888260ff1681518110611c6c57611c6b613d98565b5b602002602001018181525050611c818a612355565b61ffff16878260ff1681518110611c9b57611c9a613d98565b5b6020026020010181815250508080611cb290613dc5565b915050611c14565b5050505050509193909250565b6005602052805f5260405f205f915090508054611ce390613563565b80601f0160208091040260200160405190810160405280929190818152602001828054611d0f90613563565b8015611d5a5780601f10611d3157610100808354040283529160200191611d5a565b820191905f5260205f20905b815481529060010190602001808311611d3d57829003601f168201915b505050505081565b60605f73ffffffffffffffffffffffffffffffffffffffff1660025f9054906101000a900473ffffffffffffffffffffffffffffffffffffffff1673ffffffffffffffffffffffffffffffffffffffff161480611e0b57505f73ffffffffffffffffffffffffffffffffffffffff1660035f9054906101000a900473ffffffffffffffffffffffffffffffffffffffff1673ffffffffffffffffffffffffffffffffffffffff16145b80611e6257505f73ffffffffffffffffffffffffffffffffffffffff1660045f9054906101000a900473ffffffffffffffffffffffffffffffffffffffff1673ffffffffffffffffffffffffffffffffffffffff16145b15611e99576040517f16e0e48000000000000000000000000000000000000000000000000000000000815260040160405180910390fd5b8282905067ffffffffffffffff811115611eb657611eb561359d565b5b604051908082528060200260200182016040528015611eef57816020015b611edc61275f565b815260200190600190039081611ed45790505b5090505f5f90505b838390508110156120b25760025f9054906101000a900473ffffffffffffffffffffffffffffffffffffffff1673ffffffffffffffffffffffffffffffffffffffff1663b9db15b4858584818110611f5257611f51613d98565b5b905060200201356040518263ffffffff1660e01b8152600401611f75919061298e565b60c060405180830381865afa925050508015611faf57506040513d601f19601f82011682018060405250810190611fac919061392f565b60015b156120a5575f866fffffffffffffffffffffffffffffffff161461209e576040518061010001604052808b8b8a818110611fec57611feb613d98565b5b9050602002013581526020018373ffffffffffffffffffffffffffffffffffffffff168152602001846bffffffffffffffffffffffff1681526020018667ffffffffffffffff1681526020018563ffffffff1681526020016120668c8c8b81811061205a57612059613d98565b5b90506020020135612355565b61ffff1681526020018260ff1681526020016001151581525088888151811061209257612091613d98565b5b60200260200101819052505b5050505050505b8080600101915050611ef7565b5092915050565b5f7f01ffc9a7000000000000000000000000000000000000000000000000000000007bffffffffffffffffffffffffffffffffffffffffffffffffffffffff1916827bffffffffffffffffffffffffffffffffffffffffffffffffffffffff1916149050919050565b6121338161212e61221f565b61270e565b50565b5f6121418383611078565b6122155760015f5f8581526020019081526020015f205f015f8473ffffffffffffffffffffffffffffffffffffffff1673ffffffffffffffffffffffffffffffffffffffff1681526020019081526020015f205f6101000a81548160ff0219169083151502179055506121b261221f565b73ffffffffffffffffffffffffffffffffffffffff168273ffffffffffffffffffffffffffffffffffffffff16847f2f8788117e7eff1d82e926ec794901d17c78024a50270940304540a733656f0d60405160405180910390a460019050612219565b5f90505b92915050565b5f33905090565b5f6122318383611078565b15612305575f5f5f8581526020019081526020015f205f015f8473ffffffffffffffffffffffffffffffffffffffff1673ffffffffffffffffffffffffffffffffffffffff1681526020019081526020015f205f6101000a81548160ff0219169083151502179055506122a261221f565b73ffffffffffffffffffffffffffffffffffffffff168273ffffffffffffffffffffffffffffffffffffffff16847ff6391f5c32d9c69d2a47ea670b442974b53935d1edc7fd64eb21e047a839171b60405160405180910390a460019050612309565b5f90505b92915050565b60026001540361234b576040517f3ee5aeb500000000000000000000000000000000000000000000000000000000815260040160405180910390fd5b6002600181905550565b5f60025f9054906101000a900473ffffffffffffffffffffffffffffffffffffffff1673ffffffffffffffffffffffffffffffffffffffff1663f7ba0af1836040518263ffffffff1660e01b81526004016123b0919061298e565b5f60405180830381865afa9250505080156123ed57506040513d5f823e3d601f19601f820116820180604052508101906123ea919061402d565b60015b6123f9575f9050612439565b5f8251111561243357816001835161241191906140a3565b8151811061242257612421613d98565b5b602002602001015192505050612439565b50505f90505b919050565b60018081905550565b60605f8260ff1603612490576040518060400160405280600781526020017f506c616e746564000000000000000000000000000000000000000000000000008152509050612709565b60018260ff16036124d8576040518060400160405280600781526020017f47726f77696e67000000000000000000000000000000000000000000000000008152509050612709565b60028260ff1603612520576040518060400160405280600981526020017f48617276657374656400000000000000000000000000000000000000000000008152509050612709565b60038260ff1603612568576040518060400160405280600981526020017f50726f63657373656400000000000000000000000000000000000000000000008152509050612709565b60048260ff16036125b0576040518060400160405280600881526020017f5061636b616765640000000000000000000000000000000000000000000000008152509050612709565b60058260ff16036125f8576040518060400160405280600a81526020017f496e205472616e736974000000000000000000000000000000000000000000008152509050612709565b60068260ff1603612640576040518060400160405280600b81526020017f44697374726962757465640000000000000000000000000000000000000000008152509050612709565b60078260ff1603612688576040518060400160405280600981526020017f41742052657461696c00000000000000000000000000000000000000000000008152509050612709565b60088260ff16036126d0576040518060400160405280600481526020017f536f6c64000000000000000000000000000000000000000000000000000000008152509050612709565b6040518060400160405280600781526020017f556e6b6e6f776e0000000000000000000000000000000000000000000000000081525090505b919050565b6127188282611078565b61275b5780826040517fe2517d3f0000000000000000000000000000000000000000000000000000000081526004016127529291906140d6565b60405180910390fd5b5050565b6040518061010001604052805f81526020015f73ffffffffffffffffffffffffffffffffffffffff1681526020015f6bffffffffffffffffffffffff1681526020015f67ffffffffffffffff1681526020015f63ffffffff1681526020015f61ffff1681526020015f60ff1681526020015f151581525090565b6040518060a001604052805f73ffffffffffffffffffffffffffffffffffffffff1681526020015f67ffffffffffffffff1681526020015f63ffffffff1681526020015f61ffff1681526020015f151581525090565b6040518060a001604052805f15158152602001606081526020015f8152602001606081526020015f81525090565b5f604051905090565b5f5ffd5b5f5ffd5b5f7fffffffff0000000000000000000000000000000000000000000000000000000082169050919050565b6128a28161286e565b81146128ac575f5ffd5b50565b5f813590506128bd81612899565b92915050565b5f602082840312156128d8576128d7612866565b5b5f6128e5848285016128af565b91505092915050565b5f8115159050919050565b612902816128ee565b82525050565b5f60208201905061291b5f8301846128f9565b92915050565b5f819050919050565b61293381612921565b811461293d575f5ffd5b50565b5f8135905061294e8161292a565b92915050565b5f6020828403121561296957612968612866565b5b5f61297684828501612940565b91505092915050565b61298881612921565b82525050565b5f6020820190506129a15f83018461297f565b92915050565b5f5f604083850312156129bd576129bc612866565b5b5f6129ca85828601612940565b92505060206129db85828601612940565b9150509250929050565b5f81519050919050565b5f82825260208201905092915050565b8281835e5f83830152505050565b5f601f19601f8301169050919050565b5f612a27826129e5565b612a3181856129ef565b9350612a418185602086016129ff565b612a4a81612a0d565b840191505092915050565b5f6020820190508181035f830152612a6d8184612a1d565b905092915050565b5f73ffffffffffffffffffffffffffffffffffffffff82169050919050565b5f819050919050565b5f612ab7612ab2612aad84612a75565b612a94565b612a75565b9050919050565b5f612ac882612a9d565b9050919050565b5f612ad982612abe565b9050919050565b612ae981612acf565b82525050565b5f602082019050612b025f830184612ae0565b92915050565b5f5ffd5b5f5ffd5b5f5ffd5b5f5f83601f840112612b2957612b28612b08565b5b8235905067ffffffffffffffff811115612b4657612b45612b0c565b5b602083019150836001820283011115612b6257612b61612b10565b5b9250929050565b5f5f5f60408486031215612b8057612b7f612866565b5b5f612b8d86828701612940565b935050602084013567ffffffffffffffff811115612bae57612bad61286a565b5b612bba86828701612b14565b92509250509250925092565b5f819050919050565b612bd881612bc6565b8114612be2575f5ffd5b50565b5f81359050612bf381612bcf565b92915050565b5f60208284031215612c0e57612c0d612866565b5b5f612c1b84828501612be5565b91505092915050565b612c2d81612bc6565b82525050565b5f602082019050612c465f830184612c24565b92915050565b5f612c5682612a75565b9050919050565b612c6681612c4c565b8114612c70575f5ffd5b50565b5f81359050612c8181612c5d565b92915050565b5f5f60408385031215612c9d57612c9c612866565b5b5f612caa85828601612be5565b9250506020612cbb85828601612c73565b9150509250929050565b5f612ccf82612abe565b9050919050565b612cdf81612cc5565b82525050565b5f602082019050612cf85f830184612cd6565b92915050565b5f60208284031215612d1357612d12612866565b5b5f612d2084828501612c73565b91505092915050565b612d3281612921565b82525050565b612d4181612c4c565b82525050565b5f6bffffffffffffffffffffffff82169050919050565b612d6781612d47565b82525050565b5f67ffffffffffffffff82169050919050565b612d8981612d6d565b82525050565b5f63ffffffff82169050919050565b612da781612d8f565b82525050565b5f61ffff82169050919050565b612dc381612dad565b82525050565b5f60ff82169050919050565b612dde81612dc9565b82525050565b612ded816128ee565b82525050565b61010082015f820151612e085f850182612d29565b506020820151612e1b6020850182612d38565b506040820151612e2e6040850182612d5e565b506060820151612e416060850182612d80565b506080820151612e546080850182612d9e565b5060a0820151612e6760a0850182612dba565b5060c0820151612e7a60c0850182612dd5565b5060e0820151612e8d60e0850182612de4565b50505050565b5f61010082019050612ea75f830184612df3565b92915050565b5f5f5f60608486031215612ec457612ec3612866565b5b5f612ed186828701612c73565b9350506020612ee286828701612c73565b9250506040612ef386828701612c73565b9150509250925092565b5f5f5f60408486031215612f1457612f13612866565b5b5f612f2186828701612c73565b935050602084013567ffffffffffffffff811115612f4257612f4161286a565b5b612f4e86828701612b14565b92509250509250925092565b60a082015f820151612f6e5f850182612d38565b506020820151612f816020850182612d80565b506040820151612f946040850182612d9e565b506060820151612fa76060850182612dba565b506080820151612fba6080850182612de4565b50505050565b5f60a082019050612fd35f830184612f5a565b92915050565b5f82825260208201905092915050565b5f612ff3826129e5565b612ffd8185612fd9565b935061300d8185602086016129ff565b61301681612a0d565b840191505092915050565b5f60a083015f8301516130365f860182612de4565b506020830151848203602086015261304e8282612fe9565b91505060408301516130636040860182612d29565b506060830151848203606086015261307b8282612fe9565b91505060808301516130906080860182612d29565b508091505092915050565b5f6020820190508181035f8301526130b38184613021565b905092915050565b5f81519050919050565b5f82825260208201905092915050565b5f819050602082019050919050565b5f6130ef8383612d29565b60208301905092915050565b5f602082019050919050565b5f613111826130bb565b61311b81856130c5565b9350613126836130d5565b805f5b8381101561315657815161313d88826130e4565b9750613148836130fb565b925050600181019050613129565b5085935050505092915050565b5f6020820190508181035f83015261317b8184613107565b905092915050565b5f61318d82612abe565b9050919050565b61319d81613183565b82525050565b5f6020820190506131b65f830184613194565b92915050565b5f5f604083850312156131d2576131d1612866565b5b5f6131df85828601612c73565b92505060206131f085828601612940565b9150509250929050565b5f81519050919050565b5f82825260208201905092915050565b5f819050602082019050919050565b5f61322e8383612fe9565b905092915050565b5f602082019050919050565b5f61324c826131fa565b6132568185613204565b93508360208202850161326885613214565b805f5b858110156132a357848403895281516132848582613223565b945061328f83613236565b925060208a0199505060018101905061326b565b50829750879550505050505092915050565b5f6040820190506132c85f83018561297f565b81810360208301526132da8184613242565b90509392505050565b5f6060820190508181035f8301526132fb8186613242565b9050818103602083015261330f8185613107565b905081810360408301526133238184613107565b9050949350505050565b5f5f83601f84011261334257613341612b08565b5b8235905067ffffffffffffffff81111561335f5761335e612b0c565b5b60208301915083602082028301111561337b5761337a612b10565b5b9250929050565b5f5f6020838503121561339857613397612866565b5b5f83013567ffffffffffffffff8111156133b5576133b461286a565b5b6133c18582860161332d565b92509250509250929050565b5f81519050919050565b5f82825260208201905092915050565b5f819050602082019050919050565b61010082015f82015161340b5f850182612d29565b50602082015161341e6020850182612d38565b5060408201516134316040850182612d5e565b5060608201516134446060850182612d80565b5060808201516134576080850182612d9e565b5060a082015161346a60a0850182612dba565b5060c082015161347d60c0850182612dd5565b5060e082015161349060e0850182612de4565b50505050565b5f6134a183836133f6565b6101008301905092915050565b5f602082019050919050565b5f6134c4826133cd565b6134ce81856133d7565b93506134d9836133e7565b805f5b838110156135095781516134f08882613496565b97506134fb836134ae565b9250506001810190506134dc565b5085935050505092915050565b5f6020820190508181035f83015261352e81846134ba565b905092915050565b7f4e487b71000000000000000000000000000000000000000000000000000000005f52602260045260245ffd5b5f600282049050600182168061357a57607f821691505b60208210810361358d5761358c613536565b5b50919050565b5f82905092915050565b7f4e487b71000000000000000000000000000000000000000000000000000000005f52604160045260245ffd5b5f819050815f5260205f209050919050565b5f6020601f8301049050919050565b5f82821b905092915050565b5f600883026136267fffffffffffffffffffffffffffffffffffffffffffffffffffffffffffffffff826135eb565b61363086836135eb565b95508019841693508086168417925050509392505050565b5f61366261365d61365884612921565b612a94565b612921565b9050919050565b5f819050919050565b61367b83613648565b61368f61368782613669565b8484546135f7565b825550505050565b5f5f905090565b6136a6613697565b6136b1818484613672565b505050565b5b818110156136d4576136c95f8261369e565b6001810190506136b7565b5050565b601f821115613719576136ea816135ca565b6136f3846135dc565b81016020851015613702578190505b61371661370e856135dc565b8301826136b6565b50505b505050565b5f82821c905092915050565b5f6137395f198460080261371e565b1980831691505092915050565b5f613751838361372a565b9150826002028217905092915050565b61376b8383613593565b67ffffffffffffffff8111156137845761378361359d565b5b61378e8254613563565b6137998282856136d8565b5f601f8311600181146137c6575f84156137b4578287013590505b6137be8582613746565b865550613825565b601f1984166137d4866135ca565b5f5b828110156137fb578489013582556001820191506020850194506020810190506137d6565b868310156138185784890135613814601f89168261372a565b8355505b6001600288020188555050505b50505050505050565b5f6fffffffffffffffffffffffffffffffff82169050919050565b6138528161382e565b811461385c575f5ffd5b50565b5f8151905061386d81613849565b92915050565b61387c81612d6d565b8114613886575f5ffd5b50565b5f8151905061389781613873565b92915050565b6138a681612d8f565b81146138b0575f5ffd5b50565b5f815190506138c18161389d565b92915050565b6138d081612d47565b81146138da575f5ffd5b50565b5f815190506138eb816138c7565b92915050565b5f815190506138ff81612c5d565b92915050565b61390e81612dc9565b8114613918575f5ffd5b50565b5f8151905061392981613905565b92915050565b5f5f5f5f5f5f60c0878903121561394957613948612866565b5b5f61395689828a0161385f565b965050602061396789828a01613889565b955050604061397889828a016138b3565b945050606061398989828a016138dd565b935050608061399a89828a016138f1565b92505060a06139ab89828a0161391b565b9150509295509295509295565b7f4e487b71000000000000000000000000000000000000000000000000000000005f52601160045260245ffd5b5f6139ef82612921565b91507fffffffffffffffffffffffffffffffffffffffffffffffffffffffffffffffff8203613a2157613a206139b8565b5b600182019050919050565b613a3581612c4c565b82525050565b5f602082019050613a4e5f830184613a2c565b92915050565b613a5d81612dad565b8114613a67575f5ffd5b50565b5f81519050613a7881613a54565b92915050565b613a87816128ee565b8114613a91575f5ffd5b50565b5f81519050613aa281613a7e565b92915050565b5f5f5f5f5f60a08688031215613ac157613ac0612866565b5b5f613ace88828901613a6a565b9550506020613adf888289016138b3565b9450506040613af0888289016138b3565b9350506060613b0188828901613a94565b9250506080613b1288828901613889565b9150509295509295909350565b5f60208284031215613b3457613b33612866565b5b5f613b4184828501613a94565b91505092915050565b5f81519050613b588161292a565b92915050565b5f60208284031215613b7357613b72612866565b5b5f613b8084828501613b4a565b91505092915050565b5f5ffd5b613b9682612a0d565b810181811067ffffffffffffffff82111715613bb557613bb461359d565b5b80604052505050565b5f613bc761285d565b9050613bd38282613b8d565b919050565b5f6101008284031215613bee57613bed613b89565b5b613bf9610100613bbe565b90505f613c0884828501613b4a565b5f830152506020613c1b848285016138f1565b6020830152506040613c2f848285016138dd565b6040830152506060613c4384828501613889565b6060830152506080613c57848285016138b3565b60808301525060a0613c6b84828501613a6a565b60a08301525060c0613c7f8482850161391b565b60c08301525060e0613c9384828501613a94565b60e08301525092915050565b5f6101008284031215613cb557613cb4612866565b5b5f613cc284828501613bd8565b91505092915050565b5f613cd582612dad565b9150613ce083612dad565b9250828202613cee81612dad565b9150808214613d0057613cff6139b8565b5b5092915050565b7f4e487b71000000000000000000000000000000000000000000000000000000005f52601260045260245ffd5b5f613d3e82612dad565b9150613d4983612dad565b925082613d5957613d58613d07565b5b828204905092915050565b5f613d6e82612dc9565b9150613d7983612dc9565b9250828201905060ff811115613d9257613d916139b8565b5b92915050565b7f4e487b71000000000000000000000000000000000000000000000000000000005f52603260045260245ffd5b5f613dcf82612dc9565b915060ff8203613de257613de16139b8565b5b600182019050919050565b5f67ffffffffffffffff821115613e0757613e0661359d565b5b602082029050602081019050919050565b5f613e2a613e2584613ded565b613bbe565b90508083825260208201905060208402830185811115613e4d57613e4c612b10565b5b835b81811015613e765780613e628882613b4a565b845260208401935050602081019050613e4f565b5050509392505050565b5f82601f830112613e9457613e93612b08565b5b8151613ea4848260208601613e18565b91505092915050565b5f67ffffffffffffffff821115613ec757613ec661359d565b5b602082029050602081019050919050565b5f5ffd5b5f67ffffffffffffffff821115613ef657613ef561359d565b5b613eff82612a0d565b9050602081019050919050565b5f613f1e613f1984613edc565b613bbe565b905082815260208101848484011115613f3a57613f39613ed8565b5b613f458482856129ff565b509392505050565b5f82601f830112613f6157613f60612b08565b5b8151613f71848260208601613f0c565b91505092915050565b5f613f8c613f8784613ead565b613bbe565b90508083825260208201905060208402830185811115613faf57613fae612b10565b5b835b81811015613ff657805167ffffffffffffffff811115613fd457613fd3612b08565b5b808601613fe18982613f4d565b85526020850194505050602081019050613fb1565b5050509392505050565b5f82601f83011261401457614013612b08565b5b8151614024848260208601613f7a565b91505092915050565b5f5f6040838503121561404357614042612866565b5b5f83015167ffffffffffffffff8111156140605761405f61286a565b5b61406c85828601613e80565b925050602083015167ffffffffffffffff81111561408d5761408c61286a565b5b61409985828601614000565b9150509250929050565b5f6140ad82612921565b91506140b883612921565b92508282039050818111156140d0576140cf6139b8565b5b92915050565b5f6040820190506140e95f830185613a2c565b6140f66020830184612c24565b939250505056fea2646970667358221220537956f5202eac6c7b8b017f9a437395264e989011f0addc6ff8329b28cdf62964736f6c634300081e0033","linkReferences":{}},"methodIdentifiers":{"DEFAULT_ADMIN_ROLE()":"a217fddf","addProductCertification(uint256,string)":"14a8eb40","batchVerifyProducts(uint256[])":"fbdebe97","configureContracts(address,address,address)":"5afce8f2","consumerHistory(address,uint256)":"bf009230","farmerNames(address)":"4d973e5b","getConsumerHistory(address)":"9fa3a570","getFarmerReputation(address)":"8d112341","getProductJourney(uint256)":"d8305fd4","getProductMetrics(uint256)":"ceba6d6f","getRoleAdmin(bytes32)":"248a9ca3","grantRole(bytes32,address)":"2f2ff15d","hasRole(bytes32,address)":"91d14854","pricingContract()":"372ee0f4","productCertifications(uint256,uint256)":"129ff977","productNames(uint256)":"e5950282","productViews(uint256)":"076cf75e","qrCodeRegistry()":"146c24f7","renounceRole(bytes32,address)":"36568abe","revokeRole(bytes32,address)":"d547741f","setFarmerName(address,string)":"5f777689","setProductName(uint256,string)":"437b2185","supplyChainContract()":"a269cc7a","supportsInterface(bytes4)":"01ffc9a7","totalVerifications()":"ac90c140","verifyByQRCode(bytes32)":"9c35c87b","verifyProduct(uint256)":"524e8462"},"id":7}