{"abi":[{"type":"constructor","inputs":[{"name":"_supplyChainContract","type":"address","internalType":"address"},{"name":"_paymentContract","type":"address","internalType":"address"},{"name":"_priceOracle","type":"address","internalType":"address"}],"stateMutability":"nonpayable"},{"type":"function","name":"DEFAULT_ADMIN_ROLE","inputs":[],"outputs":[{"name":"","type":"bytes32","internalType":"bytes32"}],"stateMutability":"view"},{"type":"function","name":"FARMER_PROTECTION_ROLE","inputs":[],"outputs":[{"name":"","type":"bytes32","internalType":"bytes32"}],"stateMutability":"view"},{"type":"function","name":"MAX_RATING","inputs":[],"outputs":[{"name":"","type":"uint16","internalType":"uint16"}],"stateMutability":"view"},{"type":"function","name":"PRICE_ORACLE_ROLE","inputs":[],"outputs":[{"name":"","type":"bytes32","internalType":"bytes32"}],"stateMutability":"view"},{"type":"function","name":"farmerProfiles","inputs":[{"name":"","type":"address","internalType":"address"}],"outputs":[{"name":"farmerAddress","type":"address","internalType":"address"},{"name":"registrationTime","type":"uint64","internalType":"uint64"},{"name":"totalTransactions","type":"uint32","internalType":"uint32"},{"name":"cumulativeRating","type":"uint128","internalType":"uint128"},{"name":"lastActivityTime","type":"uint64","internalType":"uint64"},{"name":"penaltyCount","type":"uint32","internalType":"uint32"},{"name":"currentRating","type":"uint16","internalType":"uint16"},{"name":"isActive","type":"bool","internalType":"bool"}],"stateMutability":"view"},{"type":"function","name":"farmerTransactions","inputs":[{"name":"","type":"address","internalType":"address"},{"name":"","type":"uint256","internalType":"uint256"}],"outputs":[{"name":"","type":"uint256","internalType":"uint256"}],"stateMutability":"view"},{"type":"function","name":"getFarmerProfile","inputs":[{"name":"farmer","type":"address","internalType":"address"}],"outputs":[{"name":"currentRating","type":"uint16","internalType":"uint16"},{"name":"totalTransactions","type":"uint32","internalType":"uint32"},{"name":"penaltyCount","type":"uint32","internalType":"uint32"},{"name":"isActive","type":"bool","internalType":"bool"},{"name":"lastActivity","type":"uint64","internalType":"uint64"}],"stateMutability":"view"},{"type":"function","name":"getRoleAdmin","inputs":[{"name":"role","type":"bytes32","internalType":"bytes32"}],"outputs":[{"name":"","type":"bytes32","internalType":"bytes32"}],"stateMutability":"view"},{"type":"function","name":"globalMinimumPrice","inputs":[],"outputs":[{"name":"","type":"uint128","internalType":"uint128"}],"stateMutability":"view"},{"type":"function","name":"grantRole","inputs":[{"name":"role","type":"bytes32","internalType":"bytes32"},{"name":"account","type":"address","internalType":"address"}],"outputs":[],"stateMutability":"nonpayable"},{"type":"function","name":"hasRole","inputs":[{"name":"role","type":"bytes32","internalType":"bytes32"},{"name":"account","type":"address","internalType":"address"}],"outputs":[{"name":"","type":"bool","internalType":"bool"}],"stateMutability":"view"},{"type":"function","name":"isPriceValid","inputs":[{"name":"productId","type":"uint256","internalType":"uint256"},{"name":"price","type":"uint128","internalType":"uint128"},{"name":"farmer","type":"address","internalType":"address"}],"outputs":[{"name":"","type":"bool","internalType":"bool"}],"stateMutability":"view"},{"type":"function","name":"maxVolatilityThreshold","inputs":[],"outputs":[{"name":"","type":"uint32","internalType":"uint32"}],"stateMutability":"view"},{"type":"function","name":"pause","inputs":[],"outputs":[],"stateMutability":"nonpayable"},{"type":"function","name":"paused","inputs":[],"outputs":[{"name":"","type":"bool","internalType":"bool"}],"stateMutability":"view"},{"type":"function","name":"paymentContract","inputs":[],"outputs":[{"name":"","type":"address","internalType":"contract IPaymentContract"}],"stateMutability":"view"},{"type":"function","name":"priceOracle","inputs":[],"outputs":[{"name":"","type":"address","internalType":"address"}],"stateMutability":"view"},{"type":"function","name":"productPricing","inputs":[{"name":"","type":"uint256","internalType":"uint256"}],"outputs":[{"name":"minimumSupportPrice","type":"uint128","internalType":"uint128"},{"name":"lastUpdated","type":"uint64","internalType":"uint64"},{"name":"volatilityIndex","type":"uint32","internalType":"uint32"},{"name":"marketConfidence","type":"uint16","internalType":"uint16"},{"name":"isActive","type":"bool","internalType":"bool"}],"stateMutability":"view"},{"type":"function","name":"rateFarmer","inputs":[{"name":"farmer","type":"address","internalType":"address"},{"name":"rating","type":"uint16","internalType":"uint16"},{"name":"reason","type":"string","internalType":"string"}],"outputs":[],"stateMutability":"nonpayable"},{"type":"function","name":"registerFarmer","inputs":[{"name":"farmer","type":"address","internalType":"address"}],"outputs":[{"name":"","type":"bool","internalType":"bool"}],"stateMutability":"nonpayable"},{"type":"function","name":"renounceRole","inputs":[{"name":"role","type":"bytes32","internalType":"bytes32"},{"name":"callerConfirmation","type":"address","internalType":"address"}],"outputs":[],"stateMutability":"nonpayable"},{"type":"function","name":"revokeRole","inputs":[{"name":"role","type":"bytes32","internalType":"bytes32"},{"name":"account","type":"address","internalType":"address"}],"outputs":[],"stateMutability":"nonpayable"},{"type":"function","name":"supplyChainContract","inputs":[],"outputs":[{"name":"","type":"address","internalType":"contract IAgricultureSupplyChain"}],"stateMutability":"view"},{"type":"function","name":"supportsInterface","inputs":[{"name":"interfaceId","type":"bytes4","internalType":"bytes4"}],"outputs":[{"name":"","type":"bool","internalType":"bool"}],"stateMutability":"view"},{"type":"function","name":"unpause","inputs":[],"outputs":[],"stateMutability":"nonpayable"},{"type":"function","name":"updateGlobalMinimumPrice","inputs":[{"name":"newPrice","type":"uint128","internalType":"uint128"}],"outputs":[],"stateMutability":"nonpayable"},{"type":"function","name":"updateMinimumPrice","inputs":[{"name":"productId","type":"uint256","internalType":"uint256"},{"name":"newMinimumPrice","type":"uint128","internalType":"uint128"}],"outputs":[],"stateMutability":"nonpayable"},{"type":"function","name":"validateProductPricing","inputs":[{"name":"productId","type":"uint256","internalType":"uint256"},{"name":"proposedPrice","type":"uint128","internalType":"uint128"},{"name":"farmer","type":"address","internalType":"address"}],"outputs":[{"name":"","type":"bool","internalType":"bool"}],"stateMutability":"nonpayable"},{"type":"function","name":"validatedTransactions","inputs":[{"name":"","type":"uint256","internalType":"uint256"}],"outputs":[{"name":"productId","type":"uint256","internalType":"uint256"},{"name":"validatedPrice","type":"uint128","internalType":"uint128"},{"name":"validationTime","type":"uint64","internalType":"uint64"},{"name":"marketVariance","type":"uint32","internalType":"uint32"},{"name":"isValidated","type":"bool","internalType":"bool"}],"stateMutability":"view"},{"type":"event","name":"FarmerProtectionTriggered","inputs":[{"name":"farmer","type":"address","indexed":true,"internalType":"address"},{"name":"reason","type":"string","indexed":false,"internalType":"string"}],"anonymous":false},{"type":"event","name":"FarmerRated","inputs":[{"name":"farmer","type":"address","indexed":true,"internalType":"address"},{"name":"newRating","type":"uint256","indexed":false,"internalType":"uint256"},{"name":"rater","type":"address","indexed":true,"internalType":"address"}],"anonymous":false},{"type":"event","name":"FarmerRegistered","inputs":[{"name":"farmer","type":"address","indexed":true,"internalType":"address"},{"name":"timestamp","type":"uint256","indexed":false,"internalType":"uint256"}],"anonymous":false},{"type":"event","name":"MinimumPriceUpdated","inputs":[{"name":"newPrice","type":"uint256","indexed":false,"internalType":"uint256"},{"name":"updater","type":"address","indexed":true,"internalType":"address"}],"anonymous":false},{"type":"event","name":"Paused","inputs":[{"name":"account","type":"address","indexed":false,"internalType":"address"}],"anonymous":false},{"type":"event","name":"PriceValidated","inputs":[{"name":"productId","type":"uint256","indexed":true,"internalType":"uint256"},{"name":"validatedPrice","type":"uint256","indexed":false,"internalType":"uint256"},{"name":"farmer","type":"address","indexed":true,"internalType":"address"}],"anonymous":false},{"type":"event","name":"PriceViolationDetected","inputs":[{"name":"productId","type":"uint256","indexed":true,"internalType":"uint256"},{"name":"attemptedPrice","type":"uint256","indexed":false,"internalType":"uint256"},{"name":"minimumRequired","type":"uint256","indexed":false,"internalType":"uint256"}],"anonymous":false},{"type":"event","name":"RoleAdminChanged","inputs":[{"name":"role","type":"bytes32","indexed":true,"internalType":"bytes32"},{"name":"previousAdminRole","type":"bytes32","indexed":true,"internalType":"bytes32"},{"name":"newAdminRole","type":"bytes32","indexed":true,"internalType":"bytes32"}],"anonymous":false},{"type":"event","name":"RoleGranted","inputs":[{"name":"role","type":"bytes32","indexed":true,"internalType":"bytes32"},{"name":"account","type":"address","indexed":true,"internalType":"address"},{"name":"sender","type":"address","indexed":true,"internalType":"address"}],"anonymous":false},{"type":"event","name":"RoleRevoked","inputs":[{"name":"role","type":"bytes32","indexed":true,"internalType":"bytes32"},{"name":"account","type":"address","indexed":true,"internalType":"address"},{"name":"sender","type":"address","indexed":true,"internalType":"address"}],"anonymous":false},{"type":"event","name":"Unpaused","inputs":[{"name":"account","type":"address","indexed":false,"internalType":"address"}],"anonymous":false},{"type":"error","name":"AccessControlBadConfirmation","inputs":[]},{"type":"error","name":"AccessControlUnauthorizedAccount","inputs":[{"name":"account","type":"address","internalType":"address"},{"name":"neededRole","type":"bytes32","internalType":"bytes32"}]},{"type":"error","name":"EnforcedPause","inputs":[]},{"type":"error","name":"ExcessiveMarketDeviation","inputs":[]},{"type":"error","name":"ExpectedPause","inputs":[]},{"type":"error","name":"FarmerNotRegistered","inputs":[]},{"type":"error","name":"InsufficientPrice","inputs":[]},{"type":"error","name":"InvalidPriceOracle","inputs":[]},{"type":"error","name":"InvalidRating","inputs":[]},{"type":"error","name":"PriceTooVolatile","inputs":[]},{"type":"error","name":"ReentrancyGuardReentrantCall","inputs":[]},{"type":"error","name":"UnauthorizedPriceUpdate","inputs":[]}],"bytecode":{"object":"0x60c0604052670de0b6b3a764000060085f6101000a8154816fffffffffffffffffffffffffffffffff02191690836fffffffffffffffffffffffffffffffff1602179055506107d0600860106101000a81548163ffffffff021916908363ffffffff160217905550348015610072575f5ffd5b506040516135523803806135528339818101604052810190610094919061037d565b600180819055506100ad5f5f1b336101c060201b60201c565b506100de7f1337d7d57528a8879766fdf2d0456253114c66c4fc263c97168bfdb007c64c66826101c060201b60201c565b5061010f7f96c9a19a99b55b064ff4f59b5d077737fc789b55a7d68eb7e0343b165ee0801d336101c060201b60201c565b508273ffffffffffffffffffffffffffffffffffffffff1660808173ffffffffffffffffffffffffffffffffffffffff16815250508173ffffffffffffffffffffffffffffffffffffffff1660a08173ffffffffffffffffffffffffffffffffffffffff16815250508060075f6101000a81548173ffffffffffffffffffffffffffffffffffffffff021916908373ffffffffffffffffffffffffffffffffffffffff1602179055505050506103cd565b5f6101d183836102b560201b60201c565b6102ab5760015f5f8581526020019081526020015f205f015f8473ffffffffffffffffffffffffffffffffffffffff1673ffffffffffffffffffffffffffffffffffffffff1681526020019081526020015f205f6101000a81548160ff02191690831515021790555061024861031860201b60201c565b73ffffffffffffffffffffffffffffffffffffffff168273ffffffffffffffffffffffffffffffffffffffff16847f2f8788117e7eff1d82e926ec794901d17c78024a50270940304540a733656f0d60405160405180910390a4600190506102af565b5f90505b92915050565b5f5f5f8481526020019081526020015f205f015f8373ffffffffffffffffffffffffffffffffffffffff1673ffffffffffffffffffffffffffffffffffffffff1681526020019081526020015f205f9054906101000a900460ff16905092915050565b5f33905090565b5f5ffd5b5f73ffffffffffffffffffffffffffffffffffffffff82169050919050565b5f61034c82610323565b9050919050565b61035c81610342565b8114610366575f5ffd5b50565b5f8151905061037781610353565b92915050565b5f5f5f606084860312156103945761039361031f565b5b5f6103a186828701610369565b93505060206103b286828701610369565b92505060406103c386828701610369565b9150509250925092565b60805160a0516131646103ee5f395f611b3901525f611b6301526131645ff3fe608060405234801561000f575f5ffd5b50600436106101cd575f3560e01c8063800f65d411610102578063a217fddf116100a0578063d547741f1161006f578063d547741f14610554578063dad8d9f214610570578063ea56da381461058e578063ee12533c146105ac576101cd565b8063a217fddf146104c6578063a269cc7a146104e4578063b998902f14610502578063bbcf280414610520576101cd565b806391d14854116100dc57806391d1485414610423578063927142241461045357806394e113ea1461048a5780639c91dd56146104a8576101cd565b8063800f65d4146103c75780638456cb59146103fb578063865e99c814610405576101cd565b80634410b6b61161016f57806353ce79c51161014957806353ce79c51461034157806357b0e352146103715780635c975abb1461038d5780636273549c146103ab576101cd565b80634410b6b6146102c15780634f514a30146102f55780634fb9c79314610325576101cd565b80632630c12f116101ab5780632630c12f146102615780632f2ff15d1461027f57806336568abe1461029b5780633f4ba83a146102b7576101cd565b806301ffc9a7146101d157806317d67db314610201578063248a9ca314610231575b5f5ffd5b6101eb60048036038101906101e69190612541565b6105dc565b6040516101f89190612586565b60405180910390f35b61021b60048036038101906102169190612671565b610655565b6040516102289190612586565b60405180910390f35b61024b600480360381019061024691906126f4565b6106fe565b604051610258919061272e565b60405180910390f35b61026961071a565b6040516102769190612756565b60405180910390f35b6102996004803603810190610294919061276f565b61073f565b005b6102b560048036038101906102b0919061276f565b610761565b005b6102bf6107dc565b005b6102db60048036038101906102d691906127ad565b6107f3565b6040516102ec959493929190612834565b60405180910390f35b61030f600480360381019061030a91906127ad565b6109f7565b60405161031c9190612586565b60405180910390f35b61033f600480360381019061033a9190612910565b610dfd565b005b61035b60048036038101906103569190612671565b61115c565b6040516103689190612586565b60405180910390f35b61038b60048036038101906103869190612981565b6116b4565b005b61039561188e565b6040516103a29190612586565b60405180910390f35b6103c560048036038101906103c091906129bf565b6118a3565b005b6103e160048036038101906103dc91906129ea565b611939565b6040516103f2959493929190612a33565b60405180910390f35b6104036119b7565b005b61040d6119ce565b60405161041a9190612a84565b60405180910390f35b61043d6004803603810190610438919061276f565b6119ef565b60405161044a9190612586565b60405180910390f35b61046d600480360381019061046891906127ad565b611a52565b604051610481989796959493929190612a9d565b60405180910390f35b610492611b31565b60405161049f9190612b19565b60405180910390f35b6104b0611b37565b6040516104bd9190612b8d565b60405180910390f35b6104ce611b5b565b6040516104db919061272e565b60405180910390f35b6104ec611b61565b6040516104f99190612bc6565b60405180910390f35b61050a611b85565b604051610517919061272e565b60405180910390f35b61053a600480360381019061053591906129ea565b611ba9565b60405161054b959493929190612bdf565b60405180910390f35b61056e6004803603810190610569919061276f565b611c31565b005b610578611c53565b6040516105859190612c30565b60405180910390f35b610596611c69565b6040516105a3919061272e565b60405180910390f35b6105c660048036038101906105c19190612c49565b611c8d565b6040516105d39190612c87565b60405180910390f35b5f7f7965db0b000000000000000000000000000000000000000000000000000000007bffffffffffffffffffffffffffffffffffffffffffffffffffffffff1916827bffffffffffffffffffffffffffffffffffffffffffffffffffffffff1916148061064e575061064d82611cb8565b5b9050919050565b5f60035f8373ffffffffffffffffffffffffffffffffffffffff1673ffffffffffffffffffffffffffffffffffffffff1681526020019081526020015f20600101601e9054906101000a900460ff166106b0575f90506106f7565b5f6106ba85611d21565b90505f6106c8868584611d9a565b9050806fffffffffffffffffffffffffffffffff16856fffffffffffffffffffffffffffffffff161015925050505b9392505050565b5f5f5f8381526020019081526020015f20600101549050919050565b60075f9054906101000a900473ffffffffffffffffffffffffffffffffffffffff1681565b610748826106fe565b61075181612082565b61075b8383612096565b50505050565b61076961217f565b73ffffffffffffffffffffffffffffffffffffffff168173ffffffffffffffffffffffffffffffffffffffff16146107cd576040517f6697b23200000000000000000000000000000000000000000000000000000000815260040160405180910390fd5b6107d78282612186565b505050565b5f5f1b6107e881612082565b6107f061226f565b50565b5f5f5f5f5f5f60035f8873ffffffffffffffffffffffffffffffffffffffff1673ffffffffffffffffffffffffffffffffffffffff1681526020019081526020015f20604051806101000160405290815f82015f9054906101000a900473ffffffffffffffffffffffffffffffffffffffff1673ffffffffffffffffffffffffffffffffffffffff1673ffffffffffffffffffffffffffffffffffffffff1681526020015f820160149054906101000a900467ffffffffffffffff1667ffffffffffffffff1667ffffffffffffffff1681526020015f8201601c9054906101000a900463ffffffff1663ffffffff1663ffffffff168152602001600182015f9054906101000a90046fffffffffffffffffffffffffffffffff166fffffffffffffffffffffffffffffffff166fffffffffffffffffffffffffffffffff1681526020016001820160109054906101000a900467ffffffffffffffff1667ffffffffffffffff1667ffffffffffffffff1681526020016001820160189054906101000a900463ffffffff1663ffffffff1663ffffffff16815260200160018201601c9054906101000a900461ffff1661ffff1661ffff16815260200160018201601e9054906101000a900460ff16151515158152505090508060c0015181604001518260a001518360e001518460800151955095509550955095505091939590929450565b5f5f5f1b610a0481612082565b5f73ffffffffffffffffffffffffffffffffffffffff1660035f8573ffffffffffffffffffffffffffffffffffffffff1673ffffffffffffffffffffffffffffffffffffffff1681526020019081526020015f205f015f9054906101000a900473ffffffffffffffffffffffffffffffffffffffff1673ffffffffffffffffffffffffffffffffffffffff1614610b5e57600160035f8573ffffffffffffffffffffffffffffffffffffffff1673ffffffffffffffffffffffffffffffffffffffff1681526020019081526020015f20600101601e6101000a81548160ff0219169083151502179055504260035f8573ffffffffffffffffffffffffffffffffffffffff1673ffffffffffffffffffffffffffffffffffffffff1681526020019081526020015f2060010160106101000a81548167ffffffffffffffff021916908367ffffffffffffffff16021790555060019150610df7565b6040518061010001604052808473ffffffffffffffffffffffffffffffffffffffff1681526020014267ffffffffffffffff1681526020015f63ffffffff1681526020015f6fffffffffffffffffffffffffffffffff1681526020014267ffffffffffffffff1681526020015f63ffffffff168152602001600a611388610be59190612cfa565b61ffff1681526020016001151581525060035f8573ffffffffffffffffffffffffffffffffffffffff1673ffffffffffffffffffffffffffffffffffffffff1681526020019081526020015f205f820151815f015f6101000a81548173ffffffffffffffffffffffffffffffffffffffff021916908373ffffffffffffffffffffffffffffffffffffffff1602179055506020820151815f0160146101000a81548167ffffffffffffffff021916908367ffffffffffffffff1602179055506040820151815f01601c6101000a81548163ffffffff021916908363ffffffff1602179055506060820151816001015f6101000a8154816fffffffffffffffffffffffffffffffff02191690836fffffffffffffffffffffffffffffffff16021790555060808201518160010160106101000a81548167ffffffffffffffff021916908367ffffffffffffffff16021790555060a08201518160010160186101000a81548163ffffffff021916908363ffffffff16021790555060c082015181600101601c6101000a81548161ffff021916908361ffff16021790555060e082015181600101601e6101000a81548160ff0219169083151502179055509050508273ffffffffffffffffffffffffffffffffffffffff167fb3219315c0ced99edd962f98390d5e04de34a96f714bfcd29dbd120e6e93dffa42604051610dea9190612c87565b60405180910390a2600191505b50919050565b7f96c9a19a99b55b064ff4f59b5d077737fc789b55a7d68eb7e0343b165ee0801d610e2781612082565b60035f8673ffffffffffffffffffffffffffffffffffffffff1673ffffffffffffffffffffffffffffffffffffffff1681526020019081526020015f20600101601e9054906101000a900460ff16610eab576040517f531a223c00000000000000000000000000000000000000000000000000000000815260040160405180910390fd5b61138861ffff168461ffff161115610eef576040517fd29df2dd00000000000000000000000000000000000000000000000000000000815260040160405180910390fd5b5f60035f8773ffffffffffffffffffffffffffffffffffffffff1673ffffffffffffffffffffffffffffffffffffffff1681526020019081526020015f2090505f8561ffff16826001015f9054906101000a90046fffffffffffffffffffffffffffffffff16610f5f9190612d2a565b90505f6001835f01601c9054906101000a900463ffffffff16610f829190612d6d565b90508063ffffffff1682610f969190612da4565b83600101601c6101000a81548161ffff021916908361ffff16021790555081836001015f6101000a8154816fffffffffffffffffffffffffffffffff02191690836fffffffffffffffffffffffffffffffff1602179055506004611388610ffd9190612cfa565b61ffff168761ffff1610156110db5782600101601881819054906101000a900463ffffffff168092919061103090612dd4565b91906101000a81548163ffffffff021916908363ffffffff1602179055505060058360010160189054906101000a900463ffffffff1663ffffffff16106110da575f83600101601e6101000a81548160ff0219169083151502179055508773ffffffffffffffffffffffffffffffffffffffff167f1383f8546de1aca0f1f053c4323e00f16ecc445b860401db2d98b01ae12f6b2a6040516110d190612e7f565b60405180910390a25b5b3373ffffffffffffffffffffffffffffffffffffffff168873ffffffffffffffffffffffffffffffffffffffff167ff7a14bc40fcfb07cb2c1f6112cf470677dd1873db48eb11f1cb5c2526379803585600101601c9054906101000a900461ffff1660405161114a9190612ecd565b60405180910390a35050505050505050565b5f6111656122d0565b61116d612311565b826fffffffffffffffffffffffffffffffff165f81036111b9576040517fd548170300000000000000000000000000000000000000000000000000000000815260040160405180910390fd5b60035f8473ffffffffffffffffffffffffffffffffffffffff1673ffffffffffffffffffffffffffffffffffffffff1681526020019081526020015f20600101601e9054906101000a900460ff1661123d576040517f531a223c00000000000000000000000000000000000000000000000000000000815260040160405180910390fd5b5f61124786611d21565b90505f611255878684611d9a565b9050806fffffffffffffffffffffffffffffffff16866fffffffffffffffffffffffffffffffff16101561133b57867f74cf91527ad1225bd2de1105cf8becee4d7cdc5605b0e5dd2521a24326a7d6ab87836040516112b5929190612f16565b60405180910390a28473ffffffffffffffffffffffffffffffffffffffff167f1383f8546de1aca0f1f053c4323e00f16ecc445b860401db2d98b01ae12f6b2a60405161130190612f87565b60405180910390a26040517fd548170300000000000000000000000000000000000000000000000000000000815260040160405180910390fd5b5f6113468784612357565b9050600860109054906101000a900463ffffffff1663ffffffff168163ffffffff1611156113ec578573ffffffffffffffffffffffffffffffffffffffff167f1383f8546de1aca0f1f053c4323e00f16ecc445b860401db2d98b01ae12f6b2a6040516113b290613015565b60405180910390a26040517f18c5808700000000000000000000000000000000000000000000000000000000815260040160405180910390fd5b6040518060a00160405280898152602001886fffffffffffffffffffffffffffffffff1681526020014267ffffffffffffffff1681526020018263ffffffff1681526020016001151581525060055f8a81526020019081526020015f205f820151815f01556020820151816001015f6101000a8154816fffffffffffffffffffffffffffffffff02191690836fffffffffffffffffffffffffffffffff16021790555060408201518160010160106101000a81548167ffffffffffffffff021916908367ffffffffffffffff16021790555060608201518160010160186101000a81548163ffffffff021916908363ffffffff160217905550608082015181600101601c6101000a81548160ff0219169083151502179055509050504260035f8873ffffffffffffffffffffffffffffffffffffffff1673ffffffffffffffffffffffffffffffffffffffff1681526020019081526020015f2060010160106101000a81548167ffffffffffffffff021916908367ffffffffffffffff16021790555060035f8773ffffffffffffffffffffffffffffffffffffffff1673ffffffffffffffffffffffffffffffffffffffff1681526020019081526020015f205f01601c81819054906101000a900463ffffffff16809291906115ce90612dd4565b91906101000a81548163ffffffff021916908363ffffffff1602179055505060065f8773ffffffffffffffffffffffffffffffffffffffff1673ffffffffffffffffffffffffffffffffffffffff1681526020019081526020015f2088908060018154018082558091505060019003905f5260205f20015f90919091909150558573ffffffffffffffffffffffffffffffffffffffff16887f253d2cb29c2ab25334d6abb75bf49566570f64d2765fda49581d5867441de48f896040516116959190613033565b60405180910390a360019450505050506116ad6123e8565b9392505050565b7f1337d7d57528a8879766fdf2d0456253114c66c4fc263c97168bfdb007c64c666116de81612082565b6040518060a00160405280836fffffffffffffffffffffffffffffffff1681526020014267ffffffffffffffff1681526020016117388460085f9054906101000a90046fffffffffffffffffffffffffffffffff16612357565b63ffffffff16815260200161271061ffff1681526020016001151581525060045f8581526020019081526020015f205f820151815f015f6101000a8154816fffffffffffffffffffffffffffffffff02191690836fffffffffffffffffffffffffffffffff1602179055506020820151815f0160106101000a81548167ffffffffffffffff021916908367ffffffffffffffff1602179055506040820151815f0160186101000a81548163ffffffff021916908363ffffffff1602179055506060820151815f01601c6101000a81548161ffff021916908361ffff1602179055506080820151815f01601e6101000a81548160ff0219169083151502179055509050503373ffffffffffffffffffffffffffffffffffffffff167fc3b2bc0633a3a27fcb74fa22e49fd072287ccfac242e149813bca1c7279abd5b836040516118819190613033565b60405180910390a2505050565b5f60025f9054906101000a900460ff16905090565b5f5f1b6118af81612082565b8160085f6101000a8154816fffffffffffffffffffffffffffffffff02191690836fffffffffffffffffffffffffffffffff1602179055503373ffffffffffffffffffffffffffffffffffffffff167fc3b2bc0633a3a27fcb74fa22e49fd072287ccfac242e149813bca1c7279abd5b8360405161192d9190613033565b60405180910390a25050565b6005602052805f5260405f205f91509050805f015490806001015f9054906101000a90046fffffffffffffffffffffffffffffffff16908060010160109054906101000a900467ffffffffffffffff16908060010160189054906101000a900463ffffffff169080600101601c9054906101000a900460ff16905085565b5f5f1b6119c381612082565b6119cb6123f1565b50565b60085f9054906101000a90046fffffffffffffffffffffffffffffffff1681565b5f5f5f8481526020019081526020015f205f015f8373ffffffffffffffffffffffffffffffffffffffff1673ffffffffffffffffffffffffffffffffffffffff1681526020019081526020015f205f9054906101000a900460ff16905092915050565b6003602052805f5260405f205f91509050805f015f9054906101000a900473ffffffffffffffffffffffffffffffffffffffff1690805f0160149054906101000a900467ffffffffffffffff1690805f01601c9054906101000a900463ffffffff1690806001015f9054906101000a90046fffffffffffffffffffffffffffffffff16908060010160109054906101000a900467ffffffffffffffff16908060010160189054906101000a900463ffffffff169080600101601c9054906101000a900461ffff169080600101601e9054906101000a900460ff16905088565b61138881565b7f000000000000000000000000000000000000000000000000000000000000000081565b5f5f1b81565b7f000000000000000000000000000000000000000000000000000000000000000081565b7f1337d7d57528a8879766fdf2d0456253114c66c4fc263c97168bfdb007c64c6681565b6004602052805f5260405f205f91509050805f015f9054906101000a90046fffffffffffffffffffffffffffffffff1690805f0160109054906101000a900467ffffffffffffffff1690805f0160189054906101000a900463ffffffff1690805f01601c9054906101000a900461ffff1690805f01601e9054906101000a900460ff16905085565b611c3a826106fe565b611c4381612082565b611c4d8383612186565b50505050565b600860109054906101000a900463ffffffff1681565b7f96c9a19a99b55b064ff4f59b5d077737fc789b55a7d68eb7e0343b165ee0801d81565b6006602052815f5260405f208181548110611ca6575f80fd5b905f5260205f20015f91509150505481565b5f7f01ffc9a7000000000000000000000000000000000000000000000000000000007bffffffffffffffffffffffffffffffffffffffffffffffffffffffff1916827bffffffffffffffffffffffffffffffffffffffffffffffffffffffff1916149050919050565b5f5f60045f8481526020019081526020015f205f015f9054906101000a90046fffffffffffffffffffffffffffffffff1690505f816fffffffffffffffffffffffffffffffff1611611d905760085f9054906101000a90046fffffffffffffffffffffffffffffffff16611d92565b805b915050919050565b5f5f60045f8681526020019081526020015f205f015f9054906101000a90046fffffffffffffffffffffffffffffffff1690505f816fffffffffffffffffffffffffffffffff1603611e075760085f9054906101000a90046fffffffffffffffffffffffffffffffff1690505b5f816fffffffffffffffffffffffffffffffff16846fffffffffffffffffffffffffffffffff1611611e395781611e3b565b835b90505f60035f8773ffffffffffffffffffffffffffffffffffffffff1673ffffffffffffffffffffffffffffffffffffffff1681526020019081526020015f20604051806101000160405290815f82015f9054906101000a900473ffffffffffffffffffffffffffffffffffffffff1673ffffffffffffffffffffffffffffffffffffffff1673ffffffffffffffffffffffffffffffffffffffff1681526020015f820160149054906101000a900467ffffffffffffffff1667ffffffffffffffff1667ffffffffffffffff1681526020015f8201601c9054906101000a900463ffffffff1663ffffffff1663ffffffff168152602001600182015f9054906101000a90046fffffffffffffffffffffffffffffffff166fffffffffffffffffffffffffffffffff166fffffffffffffffffffffffffffffffff1681526020016001820160109054906101000a900467ffffffffffffffff1667ffffffffffffffff1667ffffffffffffffff1681526020016001820160189054906101000a900463ffffffff1663ffffffff1663ffffffff16815260200160018201601c9054906101000a900461ffff1661ffff1661ffff16815260200160018201601e9054906101000a900460ff1615151515815250509050600261138861201e9190612cfa565b61ffff168160c0015161ffff161115612075575f600a611388612041919061304c565b61ffff168260c0015161ffff16846120599190613088565b6120639190612da4565b905080836120719190612d2a565b9250505b8193505050509392505050565b6120938161208e61217f565b612453565b50565b5f6120a183836119ef565b6121755760015f5f8581526020019081526020015f205f015f8473ffffffffffffffffffffffffffffffffffffffff1673ffffffffffffffffffffffffffffffffffffffff1681526020019081526020015f205f6101000a81548160ff02191690831515021790555061211261217f565b73ffffffffffffffffffffffffffffffffffffffff168273ffffffffffffffffffffffffffffffffffffffff16847f2f8788117e7eff1d82e926ec794901d17c78024a50270940304540a733656f0d60405160405180910390a460019050612179565b5f90505b92915050565b5f33905090565b5f61219183836119ef565b15612265575f5f5f8581526020019081526020015f205f015f8473ffffffffffffffffffffffffffffffffffffffff1673ffffffffffffffffffffffffffffffffffffffff1681526020019081526020015f205f6101000a81548160ff02191690831515021790555061220261217f565b73ffffffffffffffffffffffffffffffffffffffff168273ffffffffffffffffffffffffffffffffffffffff16847ff6391f5c32d9c69d2a47ea670b442974b53935d1edc7fd64eb21e047a839171b60405160405180910390a460019050612269565b5f90505b92915050565b6122776124a4565b5f60025f6101000a81548160ff0219169083151502179055507f5db9ee0a495bf2e6ff9c91a7834c1ba4fdd244a5e8aa4e537bd38aeae4b073aa6122b961217f565b6040516122c69190612756565b60405180910390a1565b6122d861188e565b1561230f576040517fd93c066500000000000000000000000000000000000000000000000000000000815260040160405180910390fd5b565b60026001540361234d576040517f3ee5aeb500000000000000000000000000000000000000000000000000000000815260040160405180910390fd5b6002600181905550565b5f5f826fffffffffffffffffffffffffffffffff1603612379575f90506123e2565b5f826fffffffffffffffffffffffffffffffff16846fffffffffffffffffffffffffffffffff16116123b65783836123b191906130c4565b6123c3565b82846123c291906130c4565b5b905082612710826123d49190613088565b6123de9190612da4565b9150505b92915050565b60018081905550565b6123f96122d0565b600160025f6101000a81548160ff0219169083151502179055507f62e78cea01bee320cd4e420270b5ea74000d11b0c9f74754ebdbfc544b05a25861243c61217f565b6040516124499190612756565b60405180910390a1565b61245d82826119ef565b6124a05780826040517fe2517d3f000000000000000000000000000000000000000000000000000000008152600401612497929190613107565b60405180910390fd5b5050565b6124ac61188e565b6124e2576040517f8dfc202b00000000000000000000000000000000000000000000000000000000815260040160405180910390fd5b565b5f5ffd5b5f5ffd5b5f7fffffffff0000000000000000000000000000000000000000000000000000000082169050919050565b612520816124ec565b811461252a575f5ffd5b50565b5f8135905061253b81612517565b92915050565b5f60208284031215612556576125556124e4565b5b5f6125638482850161252d565b91505092915050565b5f8115159050919050565b6125808161256c565b82525050565b5f6020820190506125995f830184612577565b92915050565b5f819050919050565b6125b18161259f565b81146125bb575f5ffd5b50565b5f813590506125cc816125a8565b92915050565b5f6fffffffffffffffffffffffffffffffff82169050919050565b6125f6816125d2565b8114612600575f5ffd5b50565b5f81359050612611816125ed565b92915050565b5f73ffffffffffffffffffffffffffffffffffffffff82169050919050565b5f61264082612617565b9050919050565b61265081612636565b811461265a575f5ffd5b50565b5f8135905061266b81612647565b92915050565b5f5f5f60608486031215612688576126876124e4565b5b5f612695868287016125be565b93505060206126a686828701612603565b92505060406126b78682870161265d565b9150509250925092565b5f819050919050565b6126d3816126c1565b81146126dd575f5ffd5b50565b5f813590506126ee816126ca565b92915050565b5f60208284031215612709576127086124e4565b5b5f612716848285016126e0565b91505092915050565b612728816126c1565b82525050565b5f6020820190506127415f83018461271f565b92915050565b61275081612636565b82525050565b5f6020820190506127695f830184612747565b92915050565b5f5f60408385031215612785576127846124e4565b5b5f612792858286016126e0565b92505060206127a38582860161265d565b9150509250929050565b5f602082840312156127c2576127c16124e4565b5b5f6127cf8482850161265d565b91505092915050565b5f61ffff82169050919050565b6127ee816127d8565b82525050565b5f63ffffffff82169050919050565b61280c816127f4565b82525050565b5f67ffffffffffffffff82169050919050565b61282e81612812565b82525050565b5f60a0820190506128475f8301886127e5565b6128546020830187612803565b6128616040830186612803565b61286e6060830185612577565b61287b6080830184612825565b9695505050505050565b61288e816127d8565b8114612898575f5ffd5b50565b5f813590506128a981612885565b92915050565b5f5ffd5b5f5ffd5b5f5ffd5b5f5f83601f8401126128d0576128cf6128af565b5b8235905067ffffffffffffffff8111156128ed576128ec6128b3565b5b602083019150836001820283011115612909576129086128b7565b5b9250929050565b5f5f5f5f60608587031215612928576129276124e4565b5b5f6129358782880161265d565b94505060206129468782880161289b565b935050604085013567ffffffffffffffff811115612967576129666124e8565b5b612973878288016128bb565b925092505092959194509250565b5f5f60408385031215612997576129966124e4565b5b5f6129a4858286016125be565b92505060206129b585828601612603565b9150509250929050565b5f602082840312156129d4576129d36124e4565b5b5f6129e184828501612603565b91505092915050565b5f602082840312156129ff576129fe6124e4565b5b5f612a0c848285016125be565b91505092915050565b612a1e8161259f565b82525050565b612a2d816125d2565b82525050565b5f60a082019050612a465f830188612a15565b612a536020830187612a24565b612a606040830186612825565b612a6d6060830185612803565b612a7a6080830184612577565b9695505050505050565b5f602082019050612a975f830184612a24565b92915050565b5f61010082019050612ab15f83018b612747565b612abe602083018a612825565b612acb6040830189612803565b612ad86060830188612a24565b612ae56080830187612825565b612af260a0830186612803565b612aff60c08301856127e5565b612b0c60e0830184612577565b9998505050505050505050565b5f602082019050612b2c5f8301846127e5565b92915050565b5f819050919050565b5f612b55612b50612b4b84612617565b612b32565b612617565b9050919050565b5f612b6682612b3b565b9050919050565b5f612b7782612b5c565b9050919050565b612b8781612b6d565b82525050565b5f602082019050612ba05f830184612b7e565b92915050565b5f612bb082612b5c565b9050919050565b612bc081612ba6565b82525050565b5f602082019050612bd95f830184612bb7565b92915050565b5f60a082019050612bf25f830188612a24565b612bff6020830187612825565b612c0c6040830186612803565b612c1960608301856127e5565b612c266080830184612577565b9695505050505050565b5f602082019050612c435f830184612803565b92915050565b5f5f60408385031215612c5f57612c5e6124e4565b5b5f612c6c8582860161265d565b9250506020612c7d858286016125be565b9150509250929050565b5f602082019050612c9a5f830184612a15565b92915050565b7f4e487b71000000000000000000000000000000000000000000000000000000005f52601260045260245ffd5b7f4e487b71000000000000000000000000000000000000000000000000000000005f52601160045260245ffd5b5f612d04826127d8565b9150612d0f836127d8565b925082612d1f57612d1e612ca0565b5b828204905092915050565b5f612d34826125d2565b9150612d3f836125d2565b925082820190506fffffffffffffffffffffffffffffffff811115612d6757612d66612ccd565b5b92915050565b5f612d77826127f4565b9150612d82836127f4565b9250828201905063ffffffff811115612d9e57612d9d612ccd565b5b92915050565b5f612dae826125d2565b9150612db9836125d2565b925082612dc957612dc8612ca0565b5b828204905092915050565b5f612dde826127f4565b915063ffffffff8203612df457612df3612ccd565b5b600182019050919050565b5f82825260208201905092915050565b7f4661726d65722073757370656e6465642064756520746f20706f6f72207065725f8201527f666f726d616e6365000000000000000000000000000000000000000000000000602082015250565b5f612e69602883612dff565b9150612e7482612e0f565b604082019050919050565b5f6020820190508181035f830152612e9681612e5d565b9050919050565b5f612eb7612eb2612ead846127d8565b612b32565b61259f565b9050919050565b612ec781612e9d565b82525050565b5f602082019050612ee05f830184612ebe565b92915050565b5f612f00612efb612ef6846125d2565b612b32565b61259f565b9050919050565b612f1081612ee6565b82525050565b5f604082019050612f295f830185612f07565b612f366020830184612f07565b9392505050565b7f50726963652062656c6f77206d696e696d756d2067756172616e7465650000005f82015250565b5f612f71601d83612dff565b9150612f7c82612f3d565b602082019050919050565b5f6020820190508181035f830152612f9e81612f65565b9050919050565b7f457863657373697665206d61726b657420646576696174696f6e2064657465635f8201527f7465640000000000000000000000000000000000000000000000000000000000602082015250565b5f612fff602383612dff565b915061300a82612fa5565b604082019050919050565b5f6020820190508181035f83015261302c81612ff3565b9050919050565b5f6020820190506130465f830184612f07565b92915050565b5f613056826127d8565b9150613061836127d8565b925082820261306f816127d8565b915080821461308157613080612ccd565b5b5092915050565b5f613092826125d2565b915061309d836125d2565b92508282026130ab816125d2565b91508082146130bd576130bc612ccd565b5b5092915050565b5f6130ce826125d2565b91506130d9836125d2565b925082820390506fffffffffffffffffffffffffffffffff81111561310157613100612ccd565b5b92915050565b5f60408201905061311a5f830185612747565b613127602083018461271f565b939250505056fea2646970667358221220a005295a39834d8b392110ee5cbe0897ef8d175741192fe7735f6133956b30ca64736f6c634300081e0033","linkReferences":{}},"methodIdentifiers":{"DEFAULT_ADMIN_ROLE()":"a217fddf","FARMER_PROTECTION_ROLE()":"ea56da38","MAX_RATING()":"94e113ea","PRICE_ORACLE_ROLE()":"b998902f","farmerProfiles(address)":"92714224","farmerTransactions(address,uint256)":"ee12533c","getFarmerProfile(address)":"4410b6b6","getRoleAdmin(bytes32)":"248a9ca3","globalMinimumPrice()":"865e99c8","grantRole(bytes32,address)":"2f2ff15d","hasRole(bytes32,address)":"91d14854","isPriceValid(uint256,uint128,address)":"17d67db3","maxVolatilityThreshold()":"dad8d9f2","pause()":"8456cb59","paused()":"5c975abb","paymentContract()":"9c91dd56","priceOracle()":"2630c12f","productPricing(uint256)":"bbcf2804","rateFarmer(address,uint16,string)":"4fb9c793","registerFarmer(address)":"4f514a30","renounceRole(bytes32,address)":"36568abe","revokeRole(bytes32,address)":"d547741f","supplyChainContract()":"a269cc7a","supportsInterface(bytes4)":"01ffc9a7","unpause()":"3f4ba83a","updateGlobalMinimumPrice(uint128)":"6273549c","updateMinimumPrice(uint256,uint128)":"57b0e352","validateProductPricing(uint256,uint128,address)":"53ce79c5","validatedTransactions(uint256)":"800f65d4"},"id":8}